{
  "contractName": "Faucet",
  "abi": [
    {
      "payable": true,
      "stateMutability": "payable",
      "type": "fallback"
    },
    {
      "constant": false,
      "inputs": [
        {
          "internalType": "uint256",
          "name": "withdraw_amount",
          "type": "uint256"
        }
      ],
      "name": "withdraw",
      "outputs": [],
      "payable": false,
      "stateMutability": "nonpayable",
      "type": "function"
    },
    {
      "constant": true,
      "inputs": [],
      "name": "getAmountAvailable",
      "outputs": [
        {
          "internalType": "uint256",
          "name": "",
          "type": "uint256"
        }
      ],
      "payable": false,
      "stateMutability": "view",
      "type": "function"
    }
  ],
  "bytecode": "0x608060405234801561001057600080fd5b5061010d806100206000396000f3fe60806040526004361060265760003560e01c80632e1a7d4d14602857806353e6f0c214605f575b005b348015603357600080fd5b50605d60048036036020811015604857600080fd5b81019080803590602001909291905050506087565b005b348015606a57600080fd5b50607160d0565b6040518082815260200191505060405180910390f35b3373ffffffffffffffffffffffffffffffffffffffff166108fc829081150290604051600060405180830381858888f1935050505015801560cc573d6000803e3d6000fd5b5050565b60004790509056fea265627a7a72315820240f729b0c228940910b661911afd8a9e5cc0988dbb06e508ed4daed91ff544e64736f6c63430005100032",
  "source": "pragma solidity >=0.4.21 <0.7.0;\n// Our first contract is a faucet\ncontract Faucet {\n\n    // Give out ether to anyone who asks\n    function withdraw(uint withdraw_amount) public {\n        // Send the amount to the address that requested it\n        msg.sender.transfer(withdraw_amount);\n    }\n\n    function getAmountAvailable() public view returns (uint){\n        return address(this).balance;\n    }\n\n    // Accept any incoming amount\n    function () external payable {}\n}",
  "sourcePath": "/Users/filippo/Workspace/ethereum_stuff/test_faucet_react/contracts/Faucet.sol",
  "compiler": {
    "name": "solc",
    "version": "0.5.16+commit.9c3226ce.Emscripten.clang"
  },
  "schemaVersion": "3.3.3",
  "updatedAt": "2021-02-12T22:51:02.190Z",
  "networkType": "ethereum",
  "devdoc": {
    "methods": {}
  },
  "userdoc": {
    "methods": {}
  }
}