{
  "contractName": "FileDetailsManager",
  "abi": [
    {
      "constant": false,
      "inputs": [
        {
          "internalType": "string",
          "name": "uniqueId",
          "type": "string"
        },
        {
          "internalType": "string",
          "name": "name",
          "type": "string"
        },
        {
          "internalType": "string",
          "name": "fileType",
          "type": "string"
        },
        {
          "internalType": "string",
          "name": "date",
          "type": "string"
        }
      ],
      "name": "addFile",
      "outputs": [],
      "payable": false,
      "stateMutability": "nonpayable",
      "type": "function"
    },
    {
      "constant": false,
      "inputs": [
        {
          "internalType": "string",
          "name": "name",
          "type": "string"
        },
        {
          "internalType": "string",
          "name": "date",
          "type": "string"
        }
      ],
      "name": "addFolder",
      "outputs": [],
      "payable": false,
      "stateMutability": "nonpayable",
      "type": "function"
    },
    {
      "constant": false,
      "inputs": [
        {
          "internalType": "string",
          "name": "uniqueId",
          "type": "string"
        },
        {
          "internalType": "string",
          "name": "name",
          "type": "string"
        }
      ],
      "name": "deleteFile",
      "outputs": [],
      "payable": false,
      "stateMutability": "nonpayable",
      "type": "function"
    },
    {
      "constant": true,
      "inputs": [],
      "name": "getFiles",
      "outputs": [
        {
          "components": [
            {
              "internalType": "string",
              "name": "uniqueId",
              "type": "string"
            },
            {
              "internalType": "string",
              "name": "name",
              "type": "string"
            },
            {
              "internalType": "string",
              "name": "transactionDate",
              "type": "string"
            },
            {
              "internalType": "string",
              "name": "fileType",
              "type": "string"
            },
            {
              "internalType": "bool",
              "name": "isFavorite",
              "type": "bool"
            }
          ],
          "internalType": "struct FileDetailsManager.FileDetails[]",
          "name": "",
          "type": "tuple[]"
        }
      ],
      "payable": false,
      "stateMutability": "view",
      "type": "function"
    },
    {
      "constant": false,
      "inputs": [
        {
          "internalType": "string",
          "name": "uniqueId",
          "type": "string"
        },
        {
          "internalType": "string",
          "name": "name",
          "type": "string"
        },
        {
          "internalType": "string",
          "name": "newName",
          "type": "string"
        }
      ],
      "name": "renameFileName",
      "outputs": [],
      "payable": false,
      "stateMutability": "nonpayable",
      "type": "function"
    },
    {
      "constant": false,
      "inputs": [
        {
          "internalType": "string",
          "name": "uniqueId",
          "type": "string"
        },
        {
          "internalType": "string",
          "name": "name",
          "type": "string"
        },
        {
          "internalType": "bool",
          "name": "isFavorite",
          "type": "bool"
        }
      ],
      "name": "setFavorite",
      "outputs": [],
      "payable": false,
      "stateMutability": "nonpayable",
      "type": "function"
    }
  ],
  "bytecode": "0x6080604052600060015534801561001557600080fd5b50611550806100256000396000f3fe608060405234801561001057600080fd5b50600436106100625760003560e01c80632da96d73146100675780635f067db01461008557806384748bbf146100a1578063b17b2256146100bd578063d34a8708146100d9578063fc99832d146100f5575b600080fd5b61006f610111565b60405161007c91906113a7565b60405180910390f35b61009f600480360361009a91908101906110e3565b610454565b005b6100bb60048036036100b69190810190610f61565b610584565b005b6100d760048036036100d29190810190610fcd565b610703565b005b6100f360048036036100ee9190810190610f61565b610824565b005b61010f600480360361010a919081019061104c565b610ab9565b005b6060806000803373ffffffffffffffffffffffffffffffffffffffff1673ffffffffffffffffffffffffffffffffffffffff168152602001908152602001600020805480602002602001604051908101604052809291908181526020016000905b8282101561044757838290600052602060002090600502016040518060a0016040529081600082018054600181600116156101000203166002900480601f01602080910402602001604051908101604052809291908181526020018280546001816001161561010002031660029004801561022e5780601f106102035761010080835404028352916020019161022e565b820191906000526020600020905b81548152906001019060200180831161021157829003601f168201915b50505050508152602001600182018054600181600116156101000203166002900480601f0160208091040260200160405190810160405280929190818152602001828054600181600116156101000203166002900480156102d05780601f106102a5576101008083540402835291602001916102d0565b820191906000526020600020905b8154815290600101906020018083116102b357829003601f168201915b50505050508152602001600282018054600181600116156101000203166002900480601f0160208091040260200160405190810160405280929190818152602001828054600181600116156101000203166002900480156103725780601f1061034757610100808354040283529160200191610372565b820191906000526020600020905b81548152906001019060200180831161035557829003601f168201915b50505050508152602001600382018054600181600116156101000203166002900480601f0160208091040260200160405190810160405280929190818152602001828054600181600116156101000203166002900480156104145780601f106103e957610100808354040283529160200191610414565b820191906000526020600020905b8154815290600101906020018083116103f757829003601f168201915b505050505081526020016004820160009054906101000a900460ff16151515158152505081526020019060010190610172565b5050505090508091505090565b6000803373ffffffffffffffffffffffffffffffffffffffff1673ffffffffffffffffffffffffffffffffffffffff1681526020019081526020016000206040518060a0016040528086815260200185815260200183815260200184815260200160001515815250908060018154018082558091505090600182039060005260206000209060050201600090919290919091506000820151816000019080519060200190610503929190610d04565b506020820151816001019080519060200190610520929190610d04565b50604082015181600201908051906020019061053d929190610d04565b50606082015181600301908051906020019061055a929190610d04565b5060808201518160040160006101000a81548160ff02191690831515021790555050505050505050565b6000803373ffffffffffffffffffffffffffffffffffffffff1673ffffffffffffffffffffffffffffffffffffffff1681526020019081526020016000206040518060a001604052806105d8600154610bd7565b81526020018481526020018381526020016040518060400160405280600681526020017f666f6c6465720000000000000000000000000000000000000000000000000000815250815260200160001515815250908060018154018082558091505090600182039060005260206000209060050201600090919290919091506000820151816000019080519060200190610672929190610d04565b50602082015181600101908051906020019061068f929190610d04565b5060408201518160020190805190602001906106ac929190610d04565b5060608201518160030190805190602001906106c9929190610d04565b5060808201518160040160006101000a81548160ff0219169083151502179055505050506001600081548092919060010191905055505050565b60008060003373ffffffffffffffffffffffffffffffffffffffff1673ffffffffffffffffffffffffffffffffffffffff168152602001908152602001600020905060008090505b818054905081101561081d57848051906020012082828154811061076b57fe5b90600052602060002090600502016000016040516107899190611390565b60405180910390201480156107d5575083805190602001208282815481106107ad57fe5b90600052602060002090600502016001016040516107cb9190611390565b6040518091039020145b1561081057828282815481106107e757fe5b906000526020600020906005020160040160006101000a81548160ff0219169083151502179055505b808060010191505061074b565b5050505050565b60008060003373ffffffffffffffffffffffffffffffffffffffff1673ffffffffffffffffffffffffffffffffffffffff1681526020019081526020016000209050600080905060008090505b828054905081101561091157848051906020012083828154811061089157fe5b90600052602060002090600502016000016040516108af9190611390565b60405180910390201480156108fb575083805190602001208382815481106108d357fe5b90600052602060002090600502016001016040516108f19190611390565b6040518091039020145b15610904578091505b8080600101915050610871565b5060008190505b6001838054905003811015610a3b5782600182018154811061093657fe5b906000526020600020906005020183828154811061095057fe5b906000526020600020906005020160008201816000019080546001816001161561010002031660029004610985929190610d84565b50600182018160010190805460018160011615610100020316600290046109ad929190610d84565b50600282018160020190805460018160011615610100020316600290046109d5929190610d84565b50600382018160030190805460018160011615610100020316600290046109fd929190610d84565b506004820160009054906101000a900460ff168160040160006101000a81548160ff0219169083151502179055509050508080600101915050610918565b5081805480610a4657fe5b600190038181906000526020600020906005020160008082016000610a6b9190610e0b565b600182016000610a7b9190610e0b565b600282016000610a8b9190610e0b565b600382016000610a9b9190610e0b565b6004820160006101000a81549060ff02191690555050905550505050565b60008060003373ffffffffffffffffffffffffffffffffffffffff1673ffffffffffffffffffffffffffffffffffffffff168152602001908152602001600020905060008090505b8180549050811015610bd0578480519060200120828281548110610b2157fe5b9060005260206000209060050201600001604051610b3f9190611390565b6040518091039020148015610b8b57508380519060200120828281548110610b6357fe5b9060005260206000209060050201600101604051610b819190611390565b6040518091039020145b15610bc35782828281548110610b9d57fe5b90600052602060002090600502016001019080519060200190610bc1929190610e53565b505b8080600101915050610b01565b5050505050565b60606000821415610c1f576040518060400160405280600181526020017f30000000000000000000000000000000000000000000000000000000000000008152509050610cff565b600082905060005b60008214610c49578080600101915050600a8281610c4157fe5b049150610c27565b6060816040519080825280601f01601f191660200182016040528015610c7e5781602001600182028038833980820191505090505b50905060006001830390505b60008614610cf757600a8681610c9c57fe5b0660300160f81b82828060019003935081518110610cb657fe5b60200101907effffffffffffffffffffffffffffffffffffffffffffffffffffffffffffff1916908160001a905350600a8681610cef57fe5b049550610c8a565b819450505050505b919050565b828054600181600116156101000203166002900490600052602060002090601f016020900481019282601f10610d4557805160ff1916838001178555610d73565b82800160010185558215610d73579182015b82811115610d72578251825591602001919060010190610d57565b5b509050610d809190610ed3565b5090565b828054600181600116156101000203166002900490600052602060002090601f016020900481019282601f10610dbd5780548555610dfa565b82800160010185558215610dfa57600052602060002091601f016020900482015b82811115610df9578254825591600101919060010190610dde565b5b509050610e079190610ed3565b5090565b50805460018160011615610100020316600290046000825580601f10610e315750610e50565b601f016020900490600052602060002090810190610e4f9190610ed3565b5b50565b828054600181600116156101000203166002900490600052602060002090601f016020900481019282601f10610e9457805160ff1916838001178555610ec2565b82800160010185558215610ec2579182015b82811115610ec1578251825591602001919060010190610ea6565b5b509050610ecf9190610ed3565b5090565b610ef591905b80821115610ef1576000816000905550600101610ed9565b5090565b90565b600081359050610f07816114f6565b92915050565b600082601f830112610f1e57600080fd5b8135610f31610f2c826113f6565b6113c9565b91508082526020830160208301858383011115610f4d57600080fd5b610f588382846114a3565b50505092915050565b60008060408385031215610f7457600080fd5b600083013567ffffffffffffffff811115610f8e57600080fd5b610f9a85828601610f0d565b925050602083013567ffffffffffffffff811115610fb757600080fd5b610fc385828601610f0d565b9150509250929050565b600080600060608486031215610fe257600080fd5b600084013567ffffffffffffffff811115610ffc57600080fd5b61100886828701610f0d565b935050602084013567ffffffffffffffff81111561102557600080fd5b61103186828701610f0d565b925050604061104286828701610ef8565b9150509250925092565b60008060006060848603121561106157600080fd5b600084013567ffffffffffffffff81111561107b57600080fd5b61108786828701610f0d565b935050602084013567ffffffffffffffff8111156110a457600080fd5b6110b086828701610f0d565b925050604084013567ffffffffffffffff8111156110cd57600080fd5b6110d986828701610f0d565b9150509250925092565b600080600080608085870312156110f957600080fd5b600085013567ffffffffffffffff81111561111357600080fd5b61111f87828801610f0d565b945050602085013567ffffffffffffffff81111561113c57600080fd5b61114887828801610f0d565b935050604085013567ffffffffffffffff81111561116557600080fd5b61117187828801610f0d565b925050606085013567ffffffffffffffff81111561118e57600080fd5b61119a87828801610f0d565b91505092959194509250565b60006111b28383611305565b905092915050565b60006111c582611447565b6111cf818561146a565b9350836020820285016111e185611422565b8060005b8581101561121d57848403895281516111fe85826111a6565b94506112098361145d565b925060208a019950506001810190506111e5565b50829750879550505050505092915050565b61123881611497565b82525050565b60008154600181166000811461125b5760018114611280576112c4565b607f600283041661126c818761147b565b955060ff19831686528086019350506112c4565b6002820461128e818761147b565b955061129985611432565b60005b828110156112bb5781548189015260018201915060208101905061129c565b82880195505050505b505092915050565b60006112d782611452565b6112e18185611486565b93506112f18185602086016114b2565b6112fa816114e5565b840191505092915050565b600060a083016000830151848203600086015261132282826112cc565b9150506020830151848203602086015261133c82826112cc565b9150506040830151848203604086015261135682826112cc565b9150506060830151848203606086015261137082826112cc565b9150506080830151611385608086018261122f565b508091505092915050565b600061139c828461123e565b915081905092915050565b600060208201905081810360008301526113c181846111ba565b905092915050565b6000604051905081810181811067ffffffffffffffff821117156113ec57600080fd5b8060405250919050565b600067ffffffffffffffff82111561140d57600080fd5b601f19601f8301169050602081019050919050565b6000819050602082019050919050565b60008190508160005260206000209050919050565b600081519050919050565b600081519050919050565b6000602082019050919050565b600082825260208201905092915050565b600081905092915050565b600082825260208201905092915050565b60008115159050919050565b82818337600083830152505050565b60005b838110156114d05780820151818401526020810190506114b5565b838111156114df576000848401525b50505050565b6000601f19601f8301169050919050565b6114ff81611497565b811461150a57600080fd5b5056fea365627a7a72315820dc87d4e59908dba72f88accb782ca6aace2d2d72e5b287e37c69d67db84d84546c6578706572696d656e74616cf564736f6c63430005100040",
  "source": "pragma solidity >=0.4.21 <0.7.0;\npragma experimental ABIEncoderV2;\n\n/*\n * Contract for storing and retrieve file details uploaded to the IPFS\n * P2P network. This is made thanks to a \"mapping\" data structure, which allows\n * storing all file's information. More information through the source\n * code below.\n */\ncontract FileDetailsManager {\n\n    /*\n     * Structure for files' details and folders' details.\n    */\n    struct FileDetails {\n        string uniqueId; // If isFolder==true -> unique id of the folder, otherwise it's IPFS fileHash.\n        string name; // name of the folder or of the file.\n        string transactionDate; // The date in which file infos was stored.\n        string fileType; // \"folder\" if folder, the extension of the file otherwise.\n        bool isFavorite;\n    }\n\n    /*\n     * Mapping file details with users account address\n    */\n    mapping(address => FileDetails[]) filesList;\n    uint folderId = 0;\n    /* \n     * When calling this function, the file's information are mapped to address \n     * of the user.\n    */\n    function addFile(string memory uniqueId, string memory name, string memory fileType, string memory date) public {\n        filesList[msg.sender].push(FileDetails({\n                uniqueId: uniqueId,\n                name: name,\n                fileType: fileType,\n                transactionDate: date,\n                isFavorite: false\n            }));\n    }\n\n    /* \n     * When calling this function, the folder's information are mapped to address \n     * of the user.\n    */\n    function addFolder(string memory name, string memory date) public {\n        filesList[msg.sender].push(FileDetails({\n                uniqueId: uint2str(folderId),\n                name: name,\n                fileType: \"folder\",\n                transactionDate: date,\n                isFavorite: false\n            }));\n        folderId++;\n    }\n\n\n    \n    function uint2str(uint i) internal pure returns (string memory uintAsString) {\n        if (i == 0) {\n            return \"0\";\n        }\n        uint j = i;\n        uint len;\n        while (j != 0) {\n            len++;\n            j /= 10;\n        }\n        bytes memory bstr = new bytes(len);\n        uint k = len - 1;\n        while (i != 0) {\n            bstr[k--] = byte(uint8(48 + i % 10));\n            i /= 10;\n        }\n        return string(bstr);\n    }\n\n    function deleteFile(string memory uniqueId, string memory name) public {\n        FileDetails[] storage filesDetails = filesList[msg.sender];\n        uint index = 0;\n        for(uint i = 0; i < filesDetails.length; i++){\n            if(keccak256(bytes(filesDetails[i].uniqueId)) == keccak256(bytes(uniqueId)) \n            && keccak256(bytes(filesDetails[i].name)) == keccak256(bytes(name))) {\n                index = i;\n            }\n        }\n\n        for (uint i = index; i < filesDetails.length-1; i++){\n            filesDetails[i] = filesDetails[i+1];\n        }\n        filesDetails.pop();\n    }\n\n    /* \n     * TODO: description of returned values\n    */\n    \n    function getFiles() public view returns (FileDetails[] memory) {\n        FileDetails[] memory fileToBeRetrieved = filesList[msg.sender];\n        return (fileToBeRetrieved);\n    }\n\n    /*\n     * \n    */\n    function renameFileName(string memory uniqueId, string memory name, string memory newName) public{\n        FileDetails[] storage filesDetails = filesList[msg.sender];\n        for(uint i = 0; i < filesDetails.length; i++){\n            if(keccak256(bytes(filesDetails[i].uniqueId)) == keccak256(bytes(uniqueId)) && keccak256(bytes(filesDetails[i].name)) == keccak256(bytes(name))) filesDetails[i].name = newName;\n        }\n    }\n\n\n    /*\n     *\n    */\n    function setFavorite(string memory uniqueId, string memory name, bool  isFavorite) public{\n        FileDetails[] storage filesDetails = filesList[msg.sender];\n        for(uint i = 0; i < filesDetails.length; i++){\n            if(keccak256(bytes(filesDetails[i].uniqueId)) == keccak256(bytes(uniqueId)) && keccak256(bytes(filesDetails[i].name)) == keccak256(bytes(name))) filesDetails[i].isFavorite = isFavorite;\n        }\n    }\n}\n",
  "sourcePath": "/Users/filippo/Workspace/Cloudest/clouest_client/contracts/FileDetailsManager.sol",
  "compiler": {
    "name": "solc",
    "version": "0.5.16+commit.9c3226ce.Emscripten.clang"
  },
  "schemaVersion": "3.3.3",
  "updatedAt": "2021-03-02T13:14:02.122Z",
  "networkType": "ethereum",
  "devdoc": {
    "methods": {}
  },
  "userdoc": {
    "methods": {}
  }
}