{
  "contractName": "FileDetailsManager",
  "abi": [
    {
      "constant": false,
      "inputs": [
        {
          "internalType": "string",
          "name": "uniqueId",
          "type": "string"
        },
        {
          "internalType": "string",
          "name": "name",
          "type": "string"
        },
        {
          "internalType": "string",
          "name": "fileType",
          "type": "string"
        },
        {
          "internalType": "string",
          "name": "date",
          "type": "string"
        },
        {
          "internalType": "string",
          "name": "parentFolderId",
          "type": "string"
        }
      ],
      "name": "addFile",
      "outputs": [],
      "payable": false,
      "stateMutability": "nonpayable",
      "type": "function"
    },
    {
      "constant": false,
      "inputs": [
        {
          "internalType": "string",
          "name": "name",
          "type": "string"
        },
        {
          "internalType": "string",
          "name": "date",
          "type": "string"
        },
        {
          "internalType": "string",
          "name": "parentFolderId",
          "type": "string"
        }
      ],
      "name": "addFolder",
      "outputs": [],
      "payable": false,
      "stateMutability": "nonpayable",
      "type": "function"
    },
    {
      "constant": false,
      "inputs": [
        {
          "internalType": "string",
          "name": "uniqueId",
          "type": "string"
        },
        {
          "internalType": "string",
          "name": "name",
          "type": "string"
        }
      ],
      "name": "deleteFile",
      "outputs": [],
      "payable": false,
      "stateMutability": "nonpayable",
      "type": "function"
    },
    {
      "constant": false,
      "inputs": [
        {
          "internalType": "string",
          "name": "uniqueId",
          "type": "string"
        }
      ],
      "name": "deleteFolder",
      "outputs": [],
      "payable": false,
      "stateMutability": "nonpayable",
      "type": "function"
    },
    {
      "constant": true,
      "inputs": [],
      "name": "getFiles",
      "outputs": [
        {
          "components": [
            {
              "internalType": "string",
              "name": "uniqueId",
              "type": "string"
            },
            {
              "internalType": "string",
              "name": "name",
              "type": "string"
            },
            {
              "internalType": "string",
              "name": "transactionDate",
              "type": "string"
            },
            {
              "internalType": "string",
              "name": "fileType",
              "type": "string"
            },
            {
              "internalType": "string",
              "name": "parentFolderId",
              "type": "string"
            },
            {
              "internalType": "bool",
              "name": "isFavorite",
              "type": "bool"
            }
          ],
          "internalType": "struct FileDetailsManager.FileDetails[]",
          "name": "",
          "type": "tuple[]"
        }
      ],
      "payable": false,
      "stateMutability": "view",
      "type": "function"
    },
    {
      "constant": false,
      "inputs": [
        {
          "internalType": "string",
          "name": "uniqueId",
          "type": "string"
        },
        {
          "internalType": "string",
          "name": "name",
          "type": "string"
        },
        {
          "internalType": "string",
          "name": "newName",
          "type": "string"
        }
      ],
      "name": "renameFileName",
      "outputs": [],
      "payable": false,
      "stateMutability": "nonpayable",
      "type": "function"
    },
    {
      "constant": false,
      "inputs": [
        {
          "internalType": "string",
          "name": "uniqueId",
          "type": "string"
        },
        {
          "internalType": "string",
          "name": "name",
          "type": "string"
        },
        {
          "internalType": "bool",
          "name": "isFavorite",
          "type": "bool"
        }
      ],
      "name": "setFavorite",
      "outputs": [],
      "payable": false,
      "stateMutability": "nonpayable",
      "type": "function"
    }
  ],
  "bytecode": "0x6080604052600060015534801561001557600080fd5b50611d61806100256000396000f3fe608060405234801561001057600080fd5b506004361061007d5760003560e01c8063b17b22561161005b578063b17b2256146100d8578063d279d9d6146100f4578063d34a870814610110578063fc99832d1461012c5761007d565b80630a7fac441461008257806316cec2f41461009e5780632da96d73146100ba575b600080fd5b61009c600480360361009791908101906118ae565b610148565b005b6100b860048036036100b39190810190611817565b61029c565b005b6100c261043f565b6040516100cf9190611bb8565b60405180910390f35b6100f260048036036100ed9190810190611798565b610824565b005b61010e600480360361010991908101906116eb565b610945565b005b61012a6004803603610125919081019061172c565b610f76565b005b61014660048036036101419190810190611817565b611243565b005b6000803373ffffffffffffffffffffffffffffffffffffffff1673ffffffffffffffffffffffffffffffffffffffff1681526020019081526020016000206040518060c00160405280878152602001868152602001848152602001858152602001838152602001600015158152509080600181540180825580915050906001820390600052602060002090600602016000909192909190915060008201518160000190805190602001906101fd92919061148e565b50602082015181600101908051906020019061021a92919061148e565b50604082015181600201908051906020019061023792919061148e565b50606082015181600301908051906020019061025492919061148e565b50608082015181600401908051906020019061027192919061148e565b5060a08201518160050160006101000a81548160ff0219169083151502179055505050505050505050565b6000803373ffffffffffffffffffffffffffffffffffffffff1673ffffffffffffffffffffffffffffffffffffffff1681526020019081526020016000206040518060c001604052806102f0600154611361565b81526020018581526020018481526020016040518060400160405280600681526020017f666f6c646572000000000000000000000000000000000000000000000000000081525081526020018381526020016000151581525090806001815401808255809150509060018203906000526020600020906006020160009091929091909150600082015181600001908051906020019061039092919061148e565b5060208201518160010190805190602001906103ad92919061148e565b5060408201518160020190805190602001906103ca92919061148e565b5060608201518160030190805190602001906103e792919061148e565b50608082015181600401908051906020019061040492919061148e565b5060a08201518160050160006101000a81548160ff021916908315150217905550505050600160008154809291906001019190505550505050565b6060806000803373ffffffffffffffffffffffffffffffffffffffff1673ffffffffffffffffffffffffffffffffffffffff168152602001908152602001600020805480602002602001604051908101604052809291908181526020016000905b8282101561081757838290600052602060002090600602016040518060c0016040529081600082018054600181600116156101000203166002900480601f01602080910402602001604051908101604052809291908181526020018280546001816001161561010002031660029004801561055c5780601f106105315761010080835404028352916020019161055c565b820191906000526020600020905b81548152906001019060200180831161053f57829003601f168201915b50505050508152602001600182018054600181600116156101000203166002900480601f0160208091040260200160405190810160405280929190818152602001828054600181600116156101000203166002900480156105fe5780601f106105d3576101008083540402835291602001916105fe565b820191906000526020600020905b8154815290600101906020018083116105e157829003601f168201915b50505050508152602001600282018054600181600116156101000203166002900480601f0160208091040260200160405190810160405280929190818152602001828054600181600116156101000203166002900480156106a05780601f10610675576101008083540402835291602001916106a0565b820191906000526020600020905b81548152906001019060200180831161068357829003601f168201915b50505050508152602001600382018054600181600116156101000203166002900480601f0160208091040260200160405190810160405280929190818152602001828054600181600116156101000203166002900480156107425780601f1061071757610100808354040283529160200191610742565b820191906000526020600020905b81548152906001019060200180831161072557829003601f168201915b50505050508152602001600482018054600181600116156101000203166002900480601f0160208091040260200160405190810160405280929190818152602001828054600181600116156101000203166002900480156107e45780601f106107b9576101008083540402835291602001916107e4565b820191906000526020600020905b8154815290600101906020018083116107c757829003601f168201915b505050505081526020016005820160009054906101000a900460ff161515151581525050815260200190600101906104a0565b5050505090508091505090565b60008060003373ffffffffffffffffffffffffffffffffffffffff1673ffffffffffffffffffffffffffffffffffffffff168152602001908152602001600020905060008090505b818054905081101561093e57848051906020012082828154811061088c57fe5b90600052602060002090600602016000016040516108aa9190611ba1565b60405180910390201480156108f6575083805190602001208282815481106108ce57fe5b90600052602060002090600602016001016040516108ec9190611ba1565b6040518091039020145b15610931578282828154811061090857fe5b906000526020600020906006020160050160006101000a81548160ff0219169083151502179055505b808060010191505061086c565b5050505050565b60008060003373ffffffffffffffffffffffffffffffffffffffff1673ffffffffffffffffffffffffffffffffffffffff1681526020019081526020016000209050600080905060008090505b8280549050811015610d975783805190602001208382815481106109b257fe5b90600052602060002090600602016000016040516109d09190611ba1565b60405180910390201415610d8a5780915060008090505b8380549050811015610d88578382815481106109ff57fe5b9060005260206000209060060201600001604051610a1d9190611ba1565b6040518091039020848281548110610a3157fe5b9060005260206000209060060201600401604051610a4f9190611ba1565b60405180910390201415610d7b576040518060400160405280600681526020017f666f6c646572000000000000000000000000000000000000000000000000000081525080519060200120848281548110610aa657fe5b9060005260206000209060060201600301604051610ac49190611ba1565b60405180910390201415610b9157610b90848281548110610ae157fe5b90600052602060002090600602016000018054600181600116156101000203166002900480601f016020809104026020016040519081016040528092919081815260200182805460018160011615610100020316600290048015610b865780601f10610b5b57610100808354040283529160200191610b86565b820191906000526020600020905b815481529060010190602001808311610b6957829003601f168201915b5050505050610945565b5b6040518060400160405280600681526020017f666f6c646572000000000000000000000000000000000000000000000000000081525080519060200120848281548110610bda57fe5b9060005260206000209060060201600301604051610bf89190611ba1565b604051809103902014610d7a57610d79848281548110610c1457fe5b90600052602060002090600602016000018054600181600116156101000203166002900480601f016020809104026020016040519081016040528092919081815260200182805460018160011615610100020316600290048015610cb95780601f10610c8e57610100808354040283529160200191610cb9565b820191906000526020600020905b815481529060010190602001808311610c9c57829003601f168201915b5050505050858381548110610cca57fe5b90600052602060002090600602016001018054600181600116156101000203166002900480601f016020809104026020016040519081016040528092919081815260200182805460018160011615610100020316600290048015610d6f5780601f10610d4457610100808354040283529160200191610d6f565b820191906000526020600020905b815481529060010190602001808311610d5257829003601f168201915b5050505050610f76565b5b5b80806001019150506109e7565b505b8080600101915050610992565b5060008190505b6001838054905003811015610ee957826001820181548110610dbc57fe5b9060005260206000209060060201838281548110610dd657fe5b906000526020600020906006020160008201816000019080546001816001161561010002031660029004610e0b92919061150e565b5060018201816001019080546001816001161561010002031660029004610e3392919061150e565b5060028201816002019080546001816001161561010002031660029004610e5b92919061150e565b5060038201816003019080546001816001161561010002031660029004610e8392919061150e565b5060048201816004019080546001816001161561010002031660029004610eab92919061150e565b506005820160009054906101000a900460ff168160050160006101000a81548160ff0219169083151502179055509050508080600101915050610d9e565b5081805480610ef457fe5b600190038181906000526020600020906006020160008082016000610f199190611595565b600182016000610f299190611595565b600282016000610f399190611595565b600382016000610f499190611595565b600482016000610f599190611595565b6005820160006101000a81549060ff021916905550509055505050565b60008060003373ffffffffffffffffffffffffffffffffffffffff1673ffffffffffffffffffffffffffffffffffffffff1681526020019081526020016000209050600080905060008090505b8280549050811015611063578480519060200120838281548110610fe357fe5b90600052602060002090600602016000016040516110019190611ba1565b604051809103902014801561104d5750838051906020012083828154811061102557fe5b90600052602060002090600602016001016040516110439190611ba1565b6040518091039020145b15611056578091505b8080600101915050610fc3565b5060008190505b60018380549050038110156111b55782600182018154811061108857fe5b90600052602060002090600602018382815481106110a257fe5b9060005260206000209060060201600082018160000190805460018160011615610100020316600290046110d792919061150e565b50600182018160010190805460018160011615610100020316600290046110ff92919061150e565b506002820181600201908054600181600116156101000203166002900461112792919061150e565b506003820181600301908054600181600116156101000203166002900461114f92919061150e565b506004820181600401908054600181600116156101000203166002900461117792919061150e565b506005820160009054906101000a900460ff168160050160006101000a81548160ff021916908315150217905550905050808060010191505061106a565b50818054806111c057fe5b6001900381819060005260206000209060060201600080820160006111e59190611595565b6001820160006111f59190611595565b6002820160006112059190611595565b6003820160006112159190611595565b6004820160006112259190611595565b6005820160006101000a81549060ff02191690555050905550505050565b60008060003373ffffffffffffffffffffffffffffffffffffffff1673ffffffffffffffffffffffffffffffffffffffff168152602001908152602001600020905060008090505b818054905081101561135a5784805190602001208282815481106112ab57fe5b90600052602060002090600602016000016040516112c99190611ba1565b6040518091039020148015611315575083805190602001208282815481106112ed57fe5b906000526020600020906006020160010160405161130b9190611ba1565b6040518091039020145b1561134d578282828154811061132757fe5b9060005260206000209060060201600101908051906020019061134b9291906115dd565b505b808060010191505061128b565b5050505050565b606060008214156113a9576040518060400160405280600181526020017f30000000000000000000000000000000000000000000000000000000000000008152509050611489565b600082905060005b600082146113d3578080600101915050600a82816113cb57fe5b0491506113b1565b6060816040519080825280601f01601f1916602001820160405280156114085781602001600182028038833980820191505090505b50905060006001830390505b6000861461148157600a868161142657fe5b0660300160f81b8282806001900393508151811061144057fe5b60200101907effffffffffffffffffffffffffffffffffffffffffffffffffffffffffffff1916908160001a905350600a868161147957fe5b049550611414565b819450505050505b919050565b828054600181600116156101000203166002900490600052602060002090601f016020900481019282601f106114cf57805160ff19168380011785556114fd565b828001600101855582156114fd579182015b828111156114fc5782518255916020019190600101906114e1565b5b50905061150a919061165d565b5090565b828054600181600116156101000203166002900490600052602060002090601f016020900481019282601f106115475780548555611584565b8280016001018555821561158457600052602060002091601f016020900482015b82811115611583578254825591600101919060010190611568565b5b509050611591919061165d565b5090565b50805460018160011615610100020316600290046000825580601f106115bb57506115da565b601f0160209004906000526020600020908101906115d9919061165d565b5b50565b828054600181600116156101000203166002900490600052602060002090601f016020900481019282601f1061161e57805160ff191683800117855561164c565b8280016001018555821561164c579182015b8281111561164b578251825591602001919060010190611630565b5b509050611659919061165d565b5090565b61167f91905b8082111561167b576000816000905550600101611663565b5090565b90565b60008135905061169181611d07565b92915050565b600082601f8301126116a857600080fd5b81356116bb6116b682611c07565b611bda565b915080825260208301602083018583830111156116d757600080fd5b6116e2838284611cb4565b50505092915050565b6000602082840312156116fd57600080fd5b600082013567ffffffffffffffff81111561171757600080fd5b61172384828501611697565b91505092915050565b6000806040838503121561173f57600080fd5b600083013567ffffffffffffffff81111561175957600080fd5b61176585828601611697565b925050602083013567ffffffffffffffff81111561178257600080fd5b61178e85828601611697565b9150509250929050565b6000806000606084860312156117ad57600080fd5b600084013567ffffffffffffffff8111156117c757600080fd5b6117d386828701611697565b935050602084013567ffffffffffffffff8111156117f057600080fd5b6117fc86828701611697565b925050604061180d86828701611682565b9150509250925092565b60008060006060848603121561182c57600080fd5b600084013567ffffffffffffffff81111561184657600080fd5b61185286828701611697565b935050602084013567ffffffffffffffff81111561186f57600080fd5b61187b86828701611697565b925050604084013567ffffffffffffffff81111561189857600080fd5b6118a486828701611697565b9150509250925092565b600080600080600060a086880312156118c657600080fd5b600086013567ffffffffffffffff8111156118e057600080fd5b6118ec88828901611697565b955050602086013567ffffffffffffffff81111561190957600080fd5b61191588828901611697565b945050604086013567ffffffffffffffff81111561193257600080fd5b61193e88828901611697565b935050606086013567ffffffffffffffff81111561195b57600080fd5b61196788828901611697565b925050608086013567ffffffffffffffff81111561198457600080fd5b61199088828901611697565b9150509295509295909350565b60006119a98383611afc565b905092915050565b60006119bc82611c58565b6119c68185611c7b565b9350836020820285016119d885611c33565b8060005b85811015611a1457848403895281516119f5858261199d565b9450611a0083611c6e565b925060208a019950506001810190506119dc565b50829750879550505050505092915050565b611a2f81611ca8565b82525050565b600081546001811660008114611a525760018114611a7757611abb565b607f6002830416611a638187611c8c565b955060ff1983168652808601935050611abb565b60028204611a858187611c8c565b9550611a9085611c43565b60005b82811015611ab257815481890152600182019150602081019050611a93565b82880195505050505b505092915050565b6000611ace82611c63565b611ad88185611c97565b9350611ae8818560208601611cc3565b611af181611cf6565b840191505092915050565b600060c0830160008301518482036000860152611b198282611ac3565b91505060208301518482036020860152611b338282611ac3565b91505060408301518482036040860152611b4d8282611ac3565b91505060608301518482036060860152611b678282611ac3565b91505060808301518482036080860152611b818282611ac3565b91505060a0830151611b9660a0860182611a26565b508091505092915050565b6000611bad8284611a35565b915081905092915050565b60006020820190508181036000830152611bd281846119b1565b905092915050565b6000604051905081810181811067ffffffffffffffff82111715611bfd57600080fd5b8060405250919050565b600067ffffffffffffffff821115611c1e57600080fd5b601f19601f8301169050602081019050919050565b6000819050602082019050919050565b60008190508160005260206000209050919050565b600081519050919050565b600081519050919050565b6000602082019050919050565b600082825260208201905092915050565b600081905092915050565b600082825260208201905092915050565b60008115159050919050565b82818337600083830152505050565b60005b83811015611ce1578082015181840152602081019050611cc6565b83811115611cf0576000848401525b50505050565b6000601f19601f8301169050919050565b611d1081611ca8565b8114611d1b57600080fd5b5056fea365627a7a723158206e0e598992a4b5b014fee6fe93816baa78ac1207caa7b8354df9a315a081c6e96c6578706572696d656e74616cf564736f6c63430005100040",
  "source": "pragma solidity >=0.4.21 <0.7.0;\npragma experimental ABIEncoderV2;\n\n/*\n * Contract for storing and retrieve file details uploaded to the IPFS\n * P2P network. This is made thanks to a \"mapping\" data structure, which allows\n * storing all file's information. More information through the source\n * code below.\n */\ncontract FileDetailsManager {\n\n    /*\n     * Structure for files' details and folders' details.\n    */\n    struct FileDetails {\n        string uniqueId; // If isFolder==true -> unique id of the folder, otherwise it's IPFS fileHash.\n        string name; // name of the folder or of the file.\n        string transactionDate; // The date in which file infos was stored.\n        string fileType; // \"folder\" if folder, the extension of the file otherwise.\n        string parentFolderId;\n        bool isFavorite;\n    }\n\n    /*\n     * Mapping file details with users account address\n    */\n    mapping(address => FileDetails[]) filesList;\n    uint folderId = 0;\n    /* \n     * When calling this function, the file's information are mapped to address \n     * of the user.\n    */\n    function addFile(string memory uniqueId, string memory name, string memory fileType, string memory date, string memory parentFolderId) public {\n        filesList[msg.sender].push(FileDetails({\n                uniqueId: uniqueId,\n                name: name,\n                fileType: fileType,\n                transactionDate: date,\n                parentFolderId: parentFolderId,\n                isFavorite: false\n            }));\n    }\n\n    /* \n     * When calling this function, the folder's information are mapped to address \n     * of the user.\n    */\n    function addFolder(string memory name, string memory date, string memory parentFolderId) public {\n        filesList[msg.sender].push(FileDetails({\n                uniqueId: uint2str(folderId),\n                name: name,\n                fileType: \"folder\",\n                transactionDate: date,\n                parentFolderId: parentFolderId,\n                isFavorite: false\n            }));\n        folderId++;\n    }\n\n    function deleteFile(string memory uniqueId, string memory name) public {\n        FileDetails[] storage filesDetails = filesList[msg.sender];\n        uint index = 0;\n        for(uint i = 0; i < filesDetails.length; i++){\n            if(keccak256(bytes(filesDetails[i].uniqueId)) == keccak256(bytes(uniqueId)) \n            && keccak256(bytes(filesDetails[i].name)) == keccak256(bytes(name))) {\n                index = i;\n            }\n        }\n\n        for (uint i = index; i < filesDetails.length-1; i++){\n            filesDetails[i] = filesDetails[i+1];\n        }\n        filesDetails.pop();\n    }\n\n    function deleteFolder(string memory uniqueId) public {\n        FileDetails[] storage filesDetails = filesList[msg.sender];\n        uint index = 0;\n        for(uint i = 0; i < filesDetails.length; i++){\n\n            if(keccak256(bytes(filesDetails[i].uniqueId)) == keccak256(bytes(uniqueId))){\n                index = i;\n                for(uint j = 0; j < filesDetails.length; j++){\n                    \n                    if( keccak256(bytes(filesDetails[j].parentFolderId)) == keccak256(bytes(filesDetails[i].uniqueId)) ){\n                        if( keccak256(bytes(filesDetails[j].fileType)) == keccak256(bytes(\"folder\")) ){\n                            deleteFolder(filesDetails[j].uniqueId);\n                        }   \n                        if( keccak256(bytes(filesDetails[j].fileType)) != keccak256(bytes(\"folder\")) ){\n                            deleteFile(filesDetails[j].uniqueId, filesDetails[j].name);\n                        }\n                    }\n                } \n            }\n        }\n\n        for (uint i = index; i < filesDetails.length-1; i++){\n            filesDetails[i] = filesDetails[i+1];\n        }\n        filesDetails.pop();\n    }\n\n    /* \n     * TODO: description of returned values\n    */\n    \n    function getFiles() public view returns (FileDetails[] memory) {\n        FileDetails[] memory fileToBeRetrieved = filesList[msg.sender];\n        return (fileToBeRetrieved);\n    }\n\n    /*\n     * \n    */\n    function renameFileName(string memory uniqueId, string memory name, string memory newName) public{\n        FileDetails[] storage filesDetails = filesList[msg.sender];\n        for(uint i = 0; i < filesDetails.length; i++){\n            if(keccak256(bytes(filesDetails[i].uniqueId)) == keccak256(bytes(uniqueId)) && keccak256(bytes(filesDetails[i].name)) == keccak256(bytes(name))) filesDetails[i].name = newName;\n        }\n    }\n\n\n    /*\n     *\n    */\n    function setFavorite(string memory uniqueId, string memory name, bool  isFavorite) public{\n        FileDetails[] storage filesDetails = filesList[msg.sender];\n        for(uint i = 0; i < filesDetails.length; i++){\n            if(keccak256(bytes(filesDetails[i].uniqueId)) == keccak256(bytes(uniqueId)) && keccak256(bytes(filesDetails[i].name)) == keccak256(bytes(name))) filesDetails[i].isFavorite = isFavorite;\n        }\n    }\n\n    function uint2str(uint i) internal pure returns (string memory uintAsString) {\n        if (i == 0) {\n            return \"0\";\n        }\n        uint j = i;\n        uint len;\n        while (j != 0) {\n            len++;\n            j /= 10;\n        }\n        bytes memory bstr = new bytes(len);\n        uint k = len - 1;\n        while (i != 0) {\n            bstr[k--] = byte(uint8(48 + i % 10));\n            i /= 10;\n        }\n        return string(bstr);\n    }\n}\n",
  "sourcePath": "/Users/filippo/Workspace/Cloudest/clouest_client/contracts/FileDetailsManager.sol",
  "compiler": {
    "name": "solc",
    "version": "0.5.16+commit.9c3226ce.Emscripten.clang"
  },
  "schemaVersion": "3.3.3",
  "updatedAt": "2021-03-03T16:11:30.741Z",
  "networkType": "ethereum",
  "devdoc": {
    "methods": {}
  },
  "userdoc": {
    "methods": {}
  }
}