{
  "contractName": "FileDetailsManager",
  "abi": [
    {
      "constant": false,
      "inputs": [
        {
          "internalType": "string",
          "name": "uniqueId",
          "type": "string"
        },
        {
          "internalType": "string",
          "name": "name",
          "type": "string"
        },
        {
          "internalType": "string",
          "name": "fileType",
          "type": "string"
        },
        {
          "internalType": "string",
          "name": "date",
          "type": "string"
        },
        {
          "internalType": "string",
          "name": "parentFolderId",
          "type": "string"
        }
      ],
      "name": "addFile",
      "outputs": [],
      "payable": false,
      "stateMutability": "nonpayable",
      "type": "function"
    },
    {
      "constant": false,
      "inputs": [
        {
          "internalType": "string",
          "name": "name",
          "type": "string"
        },
        {
          "internalType": "string",
          "name": "date",
          "type": "string"
        },
        {
          "internalType": "string",
          "name": "parentFolderId",
          "type": "string"
        }
      ],
      "name": "addFolder",
      "outputs": [],
      "payable": false,
      "stateMutability": "nonpayable",
      "type": "function"
    },
    {
      "constant": false,
      "inputs": [
        {
          "internalType": "string",
          "name": "uniqueId",
          "type": "string"
        },
        {
          "internalType": "string",
          "name": "name",
          "type": "string"
        }
      ],
      "name": "doveToTrasheleteFile",
      "outputs": [],
      "payable": false,
      "stateMutability": "nonpayable",
      "type": "function"
    },
    {
      "constant": false,
      "inputs": [
        {
          "internalType": "string",
          "name": "uniqueId",
          "type": "string"
        },
        {
          "internalType": "string",
          "name": "name",
          "type": "string"
        }
      ],
      "name": "deleteFile",
      "outputs": [],
      "payable": false,
      "stateMutability": "nonpayable",
      "type": "function"
    },
    {
      "constant": false,
      "inputs": [
        {
          "internalType": "string",
          "name": "uniqueId",
          "type": "string"
        }
      ],
      "name": "deleteFolder",
      "outputs": [],
      "payable": false,
      "stateMutability": "nonpayable",
      "type": "function"
    },
    {
      "constant": true,
      "inputs": [],
      "name": "getFiles",
      "outputs": [
        {
          "components": [
            {
              "internalType": "string",
              "name": "uniqueId",
              "type": "string"
            },
            {
              "internalType": "string",
              "name": "name",
              "type": "string"
            },
            {
              "internalType": "string",
              "name": "transactionDate",
              "type": "string"
            },
            {
              "internalType": "string",
              "name": "fileType",
              "type": "string"
            },
            {
              "internalType": "string",
              "name": "parentFolderId",
              "type": "string"
            },
            {
              "internalType": "bool",
              "name": "isFavorite",
              "type": "bool"
            }
          ],
          "internalType": "struct FileDetailsManager.FileDetails[]",
          "name": "",
          "type": "tuple[]"
        }
      ],
      "payable": false,
      "stateMutability": "view",
      "type": "function"
    },
    {
      "constant": false,
      "inputs": [
        {
          "internalType": "string",
          "name": "uniqueId",
          "type": "string"
        },
        {
          "internalType": "string",
          "name": "name",
          "type": "string"
        },
        {
          "internalType": "string",
          "name": "newName",
          "type": "string"
        }
      ],
      "name": "renameFileName",
      "outputs": [],
      "payable": false,
      "stateMutability": "nonpayable",
      "type": "function"
    },
    {
      "constant": false,
      "inputs": [
        {
          "internalType": "string",
          "name": "uniqueId",
          "type": "string"
        },
        {
          "internalType": "string",
          "name": "name",
          "type": "string"
        },
        {
          "internalType": "bool",
          "name": "isFavorite",
          "type": "bool"
        }
      ],
      "name": "setFavorite",
      "outputs": [],
      "payable": false,
      "stateMutability": "nonpayable",
      "type": "function"
    }
  ],
  "bytecode": "0x6080604052600060015534801561001557600080fd5b50611eda806100256000396000f3fe608060405234801561001057600080fd5b50600436106100885760003560e01c8063d279d9d61161005b578063d279d9d6146100ff578063d34a87081461011b578063e74e89bb14610137578063fc99832d1461015357610088565b80630a7fac441461008d57806316cec2f4146100a95780632da96d73146100c5578063b17b2256146100e3575b600080fd5b6100a760048036036100a29190810190611a27565b61016f565b005b6100c360048036036100be9190810190611990565b6102c3565b005b6100cd610466565b6040516100da9190611d31565b60405180910390f35b6100fd60048036036100f89190810190611911565b61084b565b005b61011960048036036101149190810190611864565b61096c565b005b610135600480360361013091908101906118a5565b610f9d565b005b610151600480360361014c91908101906118a5565b61126a565b005b61016d60048036036101689190810190611990565b6113bc565b005b6000803373ffffffffffffffffffffffffffffffffffffffff1673ffffffffffffffffffffffffffffffffffffffff1681526020019081526020016000206040518060c0016040528087815260200186815260200184815260200185815260200183815260200160001515815250908060018154018082558091505090600182039060005260206000209060060201600090919290919091506000820151816000019080519060200190610224929190611607565b506020820151816001019080519060200190610241929190611607565b50604082015181600201908051906020019061025e929190611607565b50606082015181600301908051906020019061027b929190611607565b506080820151816004019080519060200190610298929190611607565b5060a08201518160050160006101000a81548160ff0219169083151502179055505050505050505050565b6000803373ffffffffffffffffffffffffffffffffffffffff1673ffffffffffffffffffffffffffffffffffffffff1681526020019081526020016000206040518060c001604052806103176001546114da565b81526020018581526020018481526020016040518060400160405280600681526020017f666f6c64657200000000000000000000000000000000000000000000000000008152508152602001838152602001600015158152509080600181540180825580915050906001820390600052602060002090600602016000909192909190915060008201518160000190805190602001906103b7929190611607565b5060208201518160010190805190602001906103d4929190611607565b5060408201518160020190805190602001906103f1929190611607565b50606082015181600301908051906020019061040e929190611607565b50608082015181600401908051906020019061042b929190611607565b5060a08201518160050160006101000a81548160ff021916908315150217905550505050600160008154809291906001019190505550505050565b6060806000803373ffffffffffffffffffffffffffffffffffffffff1673ffffffffffffffffffffffffffffffffffffffff168152602001908152602001600020805480602002602001604051908101604052809291908181526020016000905b8282101561083e57838290600052602060002090600602016040518060c0016040529081600082018054600181600116156101000203166002900480601f0160208091040260200160405190810160405280929190818152602001828054600181600116156101000203166002900480156105835780601f1061055857610100808354040283529160200191610583565b820191906000526020600020905b81548152906001019060200180831161056657829003601f168201915b50505050508152602001600182018054600181600116156101000203166002900480601f0160208091040260200160405190810160405280929190818152602001828054600181600116156101000203166002900480156106255780601f106105fa57610100808354040283529160200191610625565b820191906000526020600020905b81548152906001019060200180831161060857829003601f168201915b50505050508152602001600282018054600181600116156101000203166002900480601f0160208091040260200160405190810160405280929190818152602001828054600181600116156101000203166002900480156106c75780601f1061069c576101008083540402835291602001916106c7565b820191906000526020600020905b8154815290600101906020018083116106aa57829003601f168201915b50505050508152602001600382018054600181600116156101000203166002900480601f0160208091040260200160405190810160405280929190818152602001828054600181600116156101000203166002900480156107695780601f1061073e57610100808354040283529160200191610769565b820191906000526020600020905b81548152906001019060200180831161074c57829003601f168201915b50505050508152602001600482018054600181600116156101000203166002900480601f01602080910402602001604051908101604052809291908181526020018280546001816001161561010002031660029004801561080b5780601f106107e05761010080835404028352916020019161080b565b820191906000526020600020905b8154815290600101906020018083116107ee57829003601f168201915b505050505081526020016005820160009054906101000a900460ff161515151581525050815260200190600101906104c7565b5050505090508091505090565b60008060003373ffffffffffffffffffffffffffffffffffffffff1673ffffffffffffffffffffffffffffffffffffffff168152602001908152602001600020905060008090505b81805490508110156109655784805190602001208282815481106108b357fe5b90600052602060002090600602016000016040516108d19190611d1a565b604051809103902014801561091d575083805190602001208282815481106108f557fe5b90600052602060002090600602016001016040516109139190611d1a565b6040518091039020145b15610958578282828154811061092f57fe5b906000526020600020906006020160050160006101000a81548160ff0219169083151502179055505b8080600101915050610893565b5050505050565b60008060003373ffffffffffffffffffffffffffffffffffffffff1673ffffffffffffffffffffffffffffffffffffffff1681526020019081526020016000209050600080905060008090505b8280549050811015610dbe5783805190602001208382815481106109d957fe5b90600052602060002090600602016000016040516109f79190611d1a565b60405180910390201415610db15780915060008090505b8380549050811015610daf57838281548110610a2657fe5b9060005260206000209060060201600001604051610a449190611d1a565b6040518091039020848281548110610a5857fe5b9060005260206000209060060201600401604051610a769190611d1a565b60405180910390201415610da2576040518060400160405280600681526020017f666f6c646572000000000000000000000000000000000000000000000000000081525080519060200120848281548110610acd57fe5b9060005260206000209060060201600301604051610aeb9190611d1a565b60405180910390201415610bb857610bb7848281548110610b0857fe5b90600052602060002090600602016000018054600181600116156101000203166002900480601f016020809104026020016040519081016040528092919081815260200182805460018160011615610100020316600290048015610bad5780601f10610b8257610100808354040283529160200191610bad565b820191906000526020600020905b815481529060010190602001808311610b9057829003601f168201915b505050505061096c565b5b6040518060400160405280600681526020017f666f6c646572000000000000000000000000000000000000000000000000000081525080519060200120848281548110610c0157fe5b9060005260206000209060060201600301604051610c1f9190611d1a565b604051809103902014610da157610da0848281548110610c3b57fe5b90600052602060002090600602016000018054600181600116156101000203166002900480601f016020809104026020016040519081016040528092919081815260200182805460018160011615610100020316600290048015610ce05780601f10610cb557610100808354040283529160200191610ce0565b820191906000526020600020905b815481529060010190602001808311610cc357829003601f168201915b5050505050858381548110610cf157fe5b90600052602060002090600602016001018054600181600116156101000203166002900480601f016020809104026020016040519081016040528092919081815260200182805460018160011615610100020316600290048015610d965780601f10610d6b57610100808354040283529160200191610d96565b820191906000526020600020905b815481529060010190602001808311610d7957829003601f168201915b5050505050610f9d565b5b5b8080600101915050610a0e565b505b80806001019150506109b9565b5060008190505b6001838054905003811015610f1057826001820181548110610de357fe5b9060005260206000209060060201838281548110610dfd57fe5b906000526020600020906006020160008201816000019080546001816001161561010002031660029004610e32929190611687565b5060018201816001019080546001816001161561010002031660029004610e5a929190611687565b5060028201816002019080546001816001161561010002031660029004610e82929190611687565b5060038201816003019080546001816001161561010002031660029004610eaa929190611687565b5060048201816004019080546001816001161561010002031660029004610ed2929190611687565b506005820160009054906101000a900460ff168160050160006101000a81548160ff0219169083151502179055509050508080600101915050610dc5565b5081805480610f1b57fe5b600190038181906000526020600020906006020160008082016000610f40919061170e565b600182016000610f50919061170e565b600282016000610f60919061170e565b600382016000610f70919061170e565b600482016000610f80919061170e565b6005820160006101000a81549060ff021916905550509055505050565b60008060003373ffffffffffffffffffffffffffffffffffffffff1673ffffffffffffffffffffffffffffffffffffffff1681526020019081526020016000209050600080905060008090505b828054905081101561108a57848051906020012083828154811061100a57fe5b90600052602060002090600602016000016040516110289190611d1a565b60405180910390201480156110745750838051906020012083828154811061104c57fe5b906000526020600020906006020160010160405161106a9190611d1a565b6040518091039020145b1561107d578091505b8080600101915050610fea565b5060008190505b60018380549050038110156111dc578260018201815481106110af57fe5b90600052602060002090600602018382815481106110c957fe5b9060005260206000209060060201600082018160000190805460018160011615610100020316600290046110fe929190611687565b5060018201816001019080546001816001161561010002031660029004611126929190611687565b506002820181600201908054600181600116156101000203166002900461114e929190611687565b5060038201816003019080546001816001161561010002031660029004611176929190611687565b506004820181600401908054600181600116156101000203166002900461119e929190611687565b506005820160009054906101000a900460ff168160050160006101000a81548160ff0219169083151502179055509050508080600101915050611091565b50818054806111e757fe5b60019003818190600052602060002090600602016000808201600061120c919061170e565b60018201600061121c919061170e565b60028201600061122c919061170e565b60038201600061123c919061170e565b60048201600061124c919061170e565b6005820160006101000a81549060ff02191690555050905550505050565b60008060003373ffffffffffffffffffffffffffffffffffffffff1673ffffffffffffffffffffffffffffffffffffffff168152602001908152602001600020905060008090505b81805490508110156113b65783805190602001208282815481106112d257fe5b90600052602060002090600602016000016040516112f09190611d1a565b604051809103902014801561133c5750828051906020012082828154811061131457fe5b90600052602060002090600602016001016040516113329190611d1a565b6040518091039020145b156113a9576040518060400160405280600581526020017f547261736800000000000000000000000000000000000000000000000000000081525082828154811061138357fe5b906000526020600020906006020160040190805190602001906113a7929190611756565b505b80806001019150506112b2565b50505050565b60008060003373ffffffffffffffffffffffffffffffffffffffff1673ffffffffffffffffffffffffffffffffffffffff168152602001908152602001600020905060008090505b81805490508110156114d357848051906020012082828154811061142457fe5b90600052602060002090600602016000016040516114429190611d1a565b604051809103902014801561148e5750838051906020012082828154811061146657fe5b90600052602060002090600602016001016040516114849190611d1a565b6040518091039020145b156114c657828282815481106114a057fe5b906000526020600020906006020160010190805190602001906114c4929190611756565b505b8080600101915050611404565b5050505050565b60606000821415611522576040518060400160405280600181526020017f30000000000000000000000000000000000000000000000000000000000000008152509050611602565b600082905060005b6000821461154c578080600101915050600a828161154457fe5b04915061152a565b6060816040519080825280601f01601f1916602001820160405280156115815781602001600182028038833980820191505090505b50905060006001830390505b600086146115fa57600a868161159f57fe5b0660300160f81b828280600190039350815181106115b957fe5b60200101907effffffffffffffffffffffffffffffffffffffffffffffffffffffffffffff1916908160001a905350600a86816115f257fe5b04955061158d565b819450505050505b919050565b828054600181600116156101000203166002900490600052602060002090601f016020900481019282601f1061164857805160ff1916838001178555611676565b82800160010185558215611676579182015b8281111561167557825182559160200191906001019061165a565b5b50905061168391906117d6565b5090565b828054600181600116156101000203166002900490600052602060002090601f016020900481019282601f106116c057805485556116fd565b828001600101855582156116fd57600052602060002091601f016020900482015b828111156116fc5782548255916001019190600101906116e1565b5b50905061170a91906117d6565b5090565b50805460018160011615610100020316600290046000825580601f106117345750611753565b601f01602090049060005260206000209081019061175291906117d6565b5b50565b828054600181600116156101000203166002900490600052602060002090601f016020900481019282601f1061179757805160ff19168380011785556117c5565b828001600101855582156117c5579182015b828111156117c45782518255916020019190600101906117a9565b5b5090506117d291906117d6565b5090565b6117f891905b808211156117f45760008160009055506001016117dc565b5090565b90565b60008135905061180a81611e80565b92915050565b600082601f83011261182157600080fd5b813561183461182f82611d80565b611d53565b9150808252602083016020830185838301111561185057600080fd5b61185b838284611e2d565b50505092915050565b60006020828403121561187657600080fd5b600082013567ffffffffffffffff81111561189057600080fd5b61189c84828501611810565b91505092915050565b600080604083850312156118b857600080fd5b600083013567ffffffffffffffff8111156118d257600080fd5b6118de85828601611810565b925050602083013567ffffffffffffffff8111156118fb57600080fd5b61190785828601611810565b9150509250929050565b60008060006060848603121561192657600080fd5b600084013567ffffffffffffffff81111561194057600080fd5b61194c86828701611810565b935050602084013567ffffffffffffffff81111561196957600080fd5b61197586828701611810565b9250506040611986868287016117fb565b9150509250925092565b6000806000606084860312156119a557600080fd5b600084013567ffffffffffffffff8111156119bf57600080fd5b6119cb86828701611810565b935050602084013567ffffffffffffffff8111156119e857600080fd5b6119f486828701611810565b925050604084013567ffffffffffffffff811115611a1157600080fd5b611a1d86828701611810565b9150509250925092565b600080600080600060a08688031215611a3f57600080fd5b600086013567ffffffffffffffff811115611a5957600080fd5b611a6588828901611810565b955050602086013567ffffffffffffffff811115611a8257600080fd5b611a8e88828901611810565b945050604086013567ffffffffffffffff811115611aab57600080fd5b611ab788828901611810565b935050606086013567ffffffffffffffff811115611ad457600080fd5b611ae088828901611810565b925050608086013567ffffffffffffffff811115611afd57600080fd5b611b0988828901611810565b9150509295509295909350565b6000611b228383611c75565b905092915050565b6000611b3582611dd1565b611b3f8185611df4565b935083602082028501611b5185611dac565b8060005b85811015611b8d5784840389528151611b6e8582611b16565b9450611b7983611de7565b925060208a01995050600181019050611b55565b50829750879550505050505092915050565b611ba881611e21565b82525050565b600081546001811660008114611bcb5760018114611bf057611c34565b607f6002830416611bdc8187611e05565b955060ff1983168652808601935050611c34565b60028204611bfe8187611e05565b9550611c0985611dbc565b60005b82811015611c2b57815481890152600182019150602081019050611c0c565b82880195505050505b505092915050565b6000611c4782611ddc565b611c518185611e10565b9350611c61818560208601611e3c565b611c6a81611e6f565b840191505092915050565b600060c0830160008301518482036000860152611c928282611c3c565b91505060208301518482036020860152611cac8282611c3c565b91505060408301518482036040860152611cc68282611c3c565b91505060608301518482036060860152611ce08282611c3c565b91505060808301518482036080860152611cfa8282611c3c565b91505060a0830151611d0f60a0860182611b9f565b508091505092915050565b6000611d268284611bae565b915081905092915050565b60006020820190508181036000830152611d4b8184611b2a565b905092915050565b6000604051905081810181811067ffffffffffffffff82111715611d7657600080fd5b8060405250919050565b600067ffffffffffffffff821115611d9757600080fd5b601f19601f8301169050602081019050919050565b6000819050602082019050919050565b60008190508160005260206000209050919050565b600081519050919050565b600081519050919050565b6000602082019050919050565b600082825260208201905092915050565b600081905092915050565b600082825260208201905092915050565b60008115159050919050565b82818337600083830152505050565b60005b83811015611e5a578082015181840152602081019050611e3f565b83811115611e69576000848401525b50505050565b6000601f19601f8301169050919050565b611e8981611e21565b8114611e9457600080fd5b5056fea365627a7a72315820bac04389a21f6657b7936f77f23c88d66e8ceae6681512f232f2f5e16742bc5b6c6578706572696d656e74616cf564736f6c63430005100040",
  "source": "pragma solidity >=0.4.21 <0.7.0;\npragma experimental ABIEncoderV2;\n\n/*\n * Contract for storing and retrieve file details uploaded to the IPFS\n * P2P network. This is made thanks to a \"mapping\" data structure, which allows\n * storing all file's information. More information through the source\n * code below.\n */\ncontract FileDetailsManager {\n\n    /*\n     * Structure for files' details and folders' details.\n    */\n    struct FileDetails {\n        string uniqueId; // If isFolder==true -> unique id of the folder, otherwise it's IPFS fileHash.\n        string name; // name of the folder or of the file.\n        string transactionDate; // The date in which file infos was stored.\n        string fileType; // \"folder\" if folder, the extension of the file otherwise.\n        string parentFolderId;\n        bool isFavorite;\n    }\n\n    /*\n     * Mapping file details with users account address\n    */\n    mapping(address => FileDetails[]) filesList;\n    uint folderId = 0;\n    /* \n     * When calling this function, the file's information are mapped to address \n     * of the user.\n    */\n    function addFile(string memory uniqueId, string memory name, string memory fileType, string memory date, string memory parentFolderId) public {\n        filesList[msg.sender].push(FileDetails({\n                uniqueId: uniqueId,\n                name: name,\n                fileType: fileType,\n                transactionDate: date,\n                parentFolderId: parentFolderId,\n                isFavorite: false\n            }));\n    }\n\n    /* \n     * When calling this function, the folder's information are mapped to address \n     * of the user.\n    */\n    function addFolder(string memory name, string memory date, string memory parentFolderId) public {\n        filesList[msg.sender].push(FileDetails({\n                uniqueId: uint2str(folderId),\n                name: name,\n                fileType: \"folder\",\n                transactionDate: date,\n                parentFolderId: parentFolderId,\n                isFavorite: false\n            }));\n        folderId++;\n    }\n\n    function doveToTrasheleteFile(string memory uniqueId, string memory name) public {\n        FileDetails[] storage filesDetails = filesList[msg.sender];\n        for(uint i = 0; i < filesDetails.length; i++){\n            if(keccak256(bytes(filesDetails[i].uniqueId)) == keccak256(bytes(uniqueId)) \n            && keccak256(bytes(filesDetails[i].name)) == keccak256(bytes(name))) {\n                filesDetails[i].parentFolderId = \"Trash\";\n            }\n        }\n    }\n\n    function deleteFile(string memory uniqueId, string memory name) public {\n        FileDetails[] storage filesDetails = filesList[msg.sender];\n        uint index = 0;\n        for(uint i = 0; i < filesDetails.length; i++){\n            if(keccak256(bytes(filesDetails[i].uniqueId)) == keccak256(bytes(uniqueId)) \n            && keccak256(bytes(filesDetails[i].name)) == keccak256(bytes(name))) {\n                index = i;\n            }\n        }\n\n        for (uint i = index; i < filesDetails.length-1; i++){\n            filesDetails[i] = filesDetails[i+1];\n        }\n        filesDetails.pop();\n    }\n\n    function deleteFolder(string memory uniqueId) public {\n        FileDetails[] storage filesDetails = filesList[msg.sender];\n        uint index = 0;\n        for(uint i = 0; i < filesDetails.length; i++){\n\n            if(keccak256(bytes(filesDetails[i].uniqueId)) == keccak256(bytes(uniqueId))){\n                index = i;\n                for(uint j = 0; j < filesDetails.length; j++){\n                    \n                    if( keccak256(bytes(filesDetails[j].parentFolderId)) == keccak256(bytes(filesDetails[i].uniqueId)) ){\n                        if( keccak256(bytes(filesDetails[j].fileType)) == keccak256(bytes(\"folder\")) ){\n                            deleteFolder(filesDetails[j].uniqueId);\n                        }   \n                        if( keccak256(bytes(filesDetails[j].fileType)) != keccak256(bytes(\"folder\")) ){\n                            deleteFile(filesDetails[j].uniqueId, filesDetails[j].name);\n                        }\n                    }\n                } \n            }\n        }\n\n        for (uint i = index; i < filesDetails.length-1; i++){\n            filesDetails[i] = filesDetails[i+1];\n        }\n        filesDetails.pop();\n    }\n\n    /* \n     * TODO: description of returned values\n    */\n    \n    function getFiles() public view returns (FileDetails[] memory) {\n        FileDetails[] memory fileToBeRetrieved = filesList[msg.sender];\n        return (fileToBeRetrieved);\n    }\n\n    /*\n     * \n    */\n    function renameFileName(string memory uniqueId, string memory name, string memory newName) public{\n        FileDetails[] storage filesDetails = filesList[msg.sender];\n        for(uint i = 0; i < filesDetails.length; i++){\n            if(keccak256(bytes(filesDetails[i].uniqueId)) == keccak256(bytes(uniqueId)) && keccak256(bytes(filesDetails[i].name)) == keccak256(bytes(name))) filesDetails[i].name = newName;\n        }\n    }\n\n\n    /*\n     *\n    */\n    function setFavorite(string memory uniqueId, string memory name, bool  isFavorite) public{\n        FileDetails[] storage filesDetails = filesList[msg.sender];\n        for(uint i = 0; i < filesDetails.length; i++){\n            if(keccak256(bytes(filesDetails[i].uniqueId)) == keccak256(bytes(uniqueId)) && keccak256(bytes(filesDetails[i].name)) == keccak256(bytes(name))) filesDetails[i].isFavorite = isFavorite;\n        }\n    }\n\n    function uint2str(uint i) internal pure returns (string memory uintAsString) {\n        if (i == 0) {\n            return \"0\";\n        }\n        uint j = i;\n        uint len;\n        while (j != 0) {\n            len++;\n            j /= 10;\n        }\n        bytes memory bstr = new bytes(len);\n        uint k = len - 1;\n        while (i != 0) {\n            bstr[k--] = byte(uint8(48 + i % 10));\n            i /= 10;\n        }\n        return string(bstr);\n    }\n}\n",
  "sourcePath": "/Users/filippo/Workspace/Cloudest/clouest_client/contracts/FileDetailsManager.sol",
  "compiler": {
    "name": "solc",
    "version": "0.5.16+commit.9c3226ce.Emscripten.clang"
  },
  "schemaVersion": "3.3.3",
  "updatedAt": "2021-03-04T14:08:20.721Z",
  "devdoc": {
    "methods": {}
  },
  "userdoc": {
    "methods": {}
  }
}