{
  "contractName": "FileDetailsManager",
  "abi": [
    {
      "constant": false,
      "inputs": [
        {
          "internalType": "string",
          "name": "fileHash",
          "type": "string"
        },
        {
          "internalType": "string",
          "name": "fileName",
          "type": "string"
        },
        {
          "internalType": "string",
          "name": "fileType",
          "type": "string"
        },
        {
          "internalType": "string",
          "name": "date",
          "type": "string"
        }
      ],
      "name": "addFile",
      "outputs": [],
      "payable": false,
      "stateMutability": "nonpayable",
      "type": "function"
    },
    {
      "constant": true,
      "inputs": [],
      "name": "getFiles",
      "outputs": [
        {
          "components": [
            {
              "internalType": "string",
              "name": "fileHash",
              "type": "string"
            },
            {
              "internalType": "string",
              "name": "fileName",
              "type": "string"
            },
            {
              "internalType": "string",
              "name": "transactionDate",
              "type": "string"
            },
            {
              "internalType": "string",
              "name": "fileExtension",
              "type": "string"
            }
          ],
          "internalType": "struct FileDetailsManager.FileDetails[]",
          "name": "",
          "type": "tuple[]"
        }
      ],
      "payable": false,
      "stateMutability": "view",
      "type": "function"
    },
    {
      "constant": false,
      "inputs": [
        {
          "internalType": "string",
          "name": "fileHash",
          "type": "string"
        },
        {
          "internalType": "string",
          "name": "fileName",
          "type": "string"
        },
        {
          "internalType": "string",
          "name": "newName",
          "type": "string"
        }
      ],
      "name": "renameFileName",
      "outputs": [],
      "payable": false,
      "stateMutability": "nonpayable",
      "type": "function"
    }
  ],
  "bytecode": "0x608060405234801561001057600080fd5b50610d7b806100206000396000f3fe608060405234801561001057600080fd5b50600436106100415760003560e01c80632da96d73146100465780635f067db014610064578063fc99832d14610080575b600080fd5b61004e61009c565b60405161005b9190610c15565b60405180910390f35b61007e60048036036100799190810190610a18565b6103c4565b005b61009a60048036036100959190810190610981565b6104cb565b005b6060806000803373ffffffffffffffffffffffffffffffffffffffff1673ffffffffffffffffffffffffffffffffffffffff168152602001908152602001600020805480602002602001604051908101604052809291908181526020016000905b828210156103b75783829060005260206000209060040201604051806080016040529081600082018054600181600116156101000203166002900480601f0160208091040260200160405190810160405280929190818152602001828054600181600116156101000203166002900480156101b95780601f1061018e576101008083540402835291602001916101b9565b820191906000526020600020905b81548152906001019060200180831161019c57829003601f168201915b50505050508152602001600182018054600181600116156101000203166002900480601f01602080910402602001604051908101604052809291908181526020018280546001816001161561010002031660029004801561025b5780601f106102305761010080835404028352916020019161025b565b820191906000526020600020905b81548152906001019060200180831161023e57829003601f168201915b50505050508152602001600282018054600181600116156101000203166002900480601f0160208091040260200160405190810160405280929190818152602001828054600181600116156101000203166002900480156102fd5780601f106102d2576101008083540402835291602001916102fd565b820191906000526020600020905b8154815290600101906020018083116102e057829003601f168201915b50505050508152602001600382018054600181600116156101000203166002900480601f01602080910402602001604051908101604052809291908181526020018280546001816001161561010002031660029004801561039f5780601f106103745761010080835404028352916020019161039f565b820191906000526020600020905b81548152906001019060200180831161038257829003601f168201915b505050505081525050815260200190600101906100fd565b5050505090508091505090565b6000803373ffffffffffffffffffffffffffffffffffffffff1673ffffffffffffffffffffffffffffffffffffffff16815260200190815260200160002060405180608001604052808681526020018581526020018381526020018481525090806001815401808255809150509060018203906000526020600020906004020160009091929091909150600082015181600001908051906020019061046a929190610888565b506020820151816001019080519060200190610487929190610888565b5060408201518160020190805190602001906104a4929190610888565b5060608201518160030190805190602001906104c1929190610888565b5050505050505050565b60606000803373ffffffffffffffffffffffffffffffffffffffff1673ffffffffffffffffffffffffffffffffffffffff168152602001908152602001600020805480602002602001604051908101604052809291908181526020016000905b828210156107e55783829060005260206000209060040201604051806080016040529081600082018054600181600116156101000203166002900480601f0160208091040260200160405190810160405280929190818152602001828054600181600116156101000203166002900480156105e75780601f106105bc576101008083540402835291602001916105e7565b820191906000526020600020905b8154815290600101906020018083116105ca57829003601f168201915b50505050508152602001600182018054600181600116156101000203166002900480601f0160208091040260200160405190810160405280929190818152602001828054600181600116156101000203166002900480156106895780601f1061065e57610100808354040283529160200191610689565b820191906000526020600020905b81548152906001019060200180831161066c57829003601f168201915b50505050508152602001600282018054600181600116156101000203166002900480601f01602080910402602001604051908101604052809291908181526020018280546001816001161561010002031660029004801561072b5780601f106107005761010080835404028352916020019161072b565b820191906000526020600020905b81548152906001019060200180831161070e57829003601f168201915b50505050508152602001600382018054600181600116156101000203166002900480601f0160208091040260200160405190810160405280929190818152602001828054600181600116156101000203166002900480156107cd5780601f106107a2576101008083540402835291602001916107cd565b820191906000526020600020905b8154815290600101906020018083116107b057829003601f168201915b5050505050815250508152602001906001019061052b565b50505050905060008090505b815181101561088157848051906020012082828151811061080e57fe5b602002602001015160000151805190602001201480156108525750838051906020012082828151811061083d57fe5b60200260200101516020015180519060200120145b15610874578282828151811061086457fe5b6020026020010151602001819052505b80806001019150506107f1565b5050505050565b828054600181600116156101000203166002900490600052602060002090601f016020900481019282601f106108c957805160ff19168380011785556108f7565b828001600101855582156108f7579182015b828111156108f65782518255916020019190600101906108db565b5b5090506109049190610908565b5090565b61092a91905b8082111561092657600081600090555060010161090e565b5090565b90565b600082601f83011261093e57600080fd5b813561095161094c82610c64565b610c37565b9150808252602083016020830185838301111561096d57600080fd5b610978838284610ce5565b50505092915050565b60008060006060848603121561099657600080fd5b600084013567ffffffffffffffff8111156109b057600080fd5b6109bc8682870161092d565b935050602084013567ffffffffffffffff8111156109d957600080fd5b6109e58682870161092d565b925050604084013567ffffffffffffffff811115610a0257600080fd5b610a0e8682870161092d565b9150509250925092565b60008060008060808587031215610a2e57600080fd5b600085013567ffffffffffffffff811115610a4857600080fd5b610a548782880161092d565b945050602085013567ffffffffffffffff811115610a7157600080fd5b610a7d8782880161092d565b935050604085013567ffffffffffffffff811115610a9a57600080fd5b610aa68782880161092d565b925050606085013567ffffffffffffffff811115610ac357600080fd5b610acf8782880161092d565b91505092959194509250565b6000610ae78383610b9d565b905092915050565b6000610afa82610ca0565b610b048185610cc3565b935083602082028501610b1685610c90565b8060005b85811015610b525784840389528151610b338582610adb565b9450610b3e83610cb6565b925060208a01995050600181019050610b1a565b50829750879550505050505092915050565b6000610b6f82610cab565b610b798185610cd4565b9350610b89818560208601610cf4565b610b9281610d27565b840191505092915050565b60006080830160008301518482036000860152610bba8282610b64565b91505060208301518482036020860152610bd48282610b64565b91505060408301518482036040860152610bee8282610b64565b91505060608301518482036060860152610c088282610b64565b9150508091505092915050565b60006020820190508181036000830152610c2f8184610aef565b905092915050565b6000604051905081810181811067ffffffffffffffff82111715610c5a57600080fd5b8060405250919050565b600067ffffffffffffffff821115610c7b57600080fd5b601f19601f8301169050602081019050919050565b6000819050602082019050919050565b600081519050919050565b600081519050919050565b6000602082019050919050565b600082825260208201905092915050565b600082825260208201905092915050565b82818337600083830152505050565b60005b83811015610d12578082015181840152602081019050610cf7565b83811115610d21576000848401525b50505050565b6000601f19601f830116905091905056fea365627a7a7231582039c475289a11fc15300734a009ab3d3626eabd385f3078668df94ec8f24ea4356c6578706572696d656e74616cf564736f6c63430005100040",
  "source": "pragma solidity >=0.4.21 <0.7.0;\npragma experimental ABIEncoderV2;\n\n/*\n * Contract for storing and retrieve file details uploaded to the IPFS\n * P2P network. This is made thanks to a \"mapping\" data structure, which allows\n * storing all file's information. More information through the source\n * code below.\n */\ncontract FileDetailsManager {\n\n    /*\n     * Structure for file's details.\n    */\n    struct FileDetails {\n        string fileHash; // The IPFS file hash\n        string fileName; // The file name\n        string transactionDate; // The date in which file infos was stored\n        string fileExtension; // The type of file (its extension)\n    }\n\n    /*\n     * Mapping file details with users account address\n    */\n    mapping(address => FileDetails[]) filesList;\n\n    /* \n     * When calling this function, the file's information are mapped to address \n     * of the user.\n    */\n    function addFile(string memory fileHash, string memory fileName, string memory fileType, string memory date) public {\n        filesList[msg.sender].push(FileDetails({\n                fileHash: fileHash,\n                fileName: fileName,\n                fileExtension: fileType,\n                transactionDate: date\n            }));\n    }\n\n    /* \n     * TODO: description of returned values\n    */\n    \n    function getFiles() public view returns (FileDetails[] memory) {\n        FileDetails[] memory fileToBeRetrieved = filesList[msg.sender];\n        return (fileToBeRetrieved);\n    }\n\n    /*\n    * \n    */\n    function renameFileName(string memory fileHash, string memory fileName, string memory newName) public{\n        FileDetails[] memory fileToBeRetrieved = filesList[msg.sender];\n        for(uint i = 0; i < fileToBeRetrieved.length; i++){\n            if(keccak256(bytes(fileToBeRetrieved[i].fileHash)) == keccak256(bytes(fileHash)) && keccak256(bytes(fileToBeRetrieved[i].fileName)) == keccak256(bytes(fileName))) fileToBeRetrieved[i].fileName = newName;\n        }\n    }\n\n}\n",
  "sourcePath": "/Users/filippo/Workspace/Cloudest/clouest_client/contracts/FileDetailsManager.sol",
  "compiler": {
    "name": "solc",
    "version": "0.5.16+commit.9c3226ce.Emscripten.clang"
  },
  "schemaVersion": "3.3.3",
  "updatedAt": "2021-02-28T23:34:54.009Z",
  "devdoc": {
    "methods": {}
  },
  "userdoc": {
    "methods": {}
  }
}