{
  "contractName": "FileDetailsManager",
  "abi": [
    {
      "constant": false,
      "inputs": [
        {
          "internalType": "string",
          "name": "fileHash",
          "type": "string"
        },
        {
          "internalType": "string",
          "name": "fileName",
          "type": "string"
        },
        {
          "internalType": "string",
          "name": "fileType",
          "type": "string"
        },
        {
          "internalType": "string",
          "name": "date",
          "type": "string"
        }
      ],
      "name": "addFile",
      "outputs": [],
      "payable": false,
      "stateMutability": "nonpayable",
      "type": "function"
    },
    {
      "constant": true,
      "inputs": [],
      "name": "getFiles",
      "outputs": [
        {
          "components": [
            {
              "internalType": "string",
              "name": "fileHash",
              "type": "string"
            },
            {
              "internalType": "string",
              "name": "fileName",
              "type": "string"
            },
            {
              "internalType": "string",
              "name": "transactionDate",
              "type": "string"
            },
            {
              "internalType": "string",
              "name": "fileExtension",
              "type": "string"
            },
            {
              "internalType": "bool",
              "name": "isFavorite",
              "type": "bool"
            }
          ],
          "internalType": "struct FileDetailsManager.FileDetails[]",
          "name": "",
          "type": "tuple[]"
        }
      ],
      "payable": false,
      "stateMutability": "view",
      "type": "function"
    },
    {
      "constant": false,
      "inputs": [
        {
          "internalType": "string",
          "name": "fileHash",
          "type": "string"
        },
        {
          "internalType": "string",
          "name": "fileName",
          "type": "string"
        },
        {
          "internalType": "string",
          "name": "newName",
          "type": "string"
        }
      ],
      "name": "renameFileName",
      "outputs": [],
      "payable": false,
      "stateMutability": "nonpayable",
      "type": "function"
    },
    {
      "constant": false,
      "inputs": [
        {
          "internalType": "string",
          "name": "fileHash",
          "type": "string"
        },
        {
          "internalType": "string",
          "name": "fileName",
          "type": "string"
        },
        {
          "internalType": "bool",
          "name": "isFavorite",
          "type": "bool"
        }
      ],
      "name": "setFavorite",
      "outputs": [],
      "payable": false,
      "stateMutability": "nonpayable",
      "type": "function"
    }
  ],
  "bytecode": "0x608060405234801561001057600080fd5b50610e86806100206000396000f3fe608060405234801561001057600080fd5b506004361061004c5760003560e01c80632da96d73146100515780635f067db01461006f578063b17b22561461008b578063fc99832d146100a7575b600080fd5b6100596100c3565b6040516100669190610cdd565b60405180910390f35b61008960048036036100849190810190610a19565b610406565b005b6100a560048036036100a09190810190610903565b610536565b005b6100c160048036036100bc9190810190610982565b610657565b005b6060806000803373ffffffffffffffffffffffffffffffffffffffff1673ffffffffffffffffffffffffffffffffffffffff168152602001908152602001600020805480602002602001604051908101604052809291908181526020016000905b828210156103f957838290600052602060002090600502016040518060a0016040529081600082018054600181600116156101000203166002900480601f0160208091040260200160405190810160405280929190818152602001828054600181600116156101000203166002900480156101e05780601f106101b5576101008083540402835291602001916101e0565b820191906000526020600020905b8154815290600101906020018083116101c357829003601f168201915b50505050508152602001600182018054600181600116156101000203166002900480601f0160208091040260200160405190810160405280929190818152602001828054600181600116156101000203166002900480156102825780601f1061025757610100808354040283529160200191610282565b820191906000526020600020905b81548152906001019060200180831161026557829003601f168201915b50505050508152602001600282018054600181600116156101000203166002900480601f0160208091040260200160405190810160405280929190818152602001828054600181600116156101000203166002900480156103245780601f106102f957610100808354040283529160200191610324565b820191906000526020600020905b81548152906001019060200180831161030757829003601f168201915b50505050508152602001600382018054600181600116156101000203166002900480601f0160208091040260200160405190810160405280929190818152602001828054600181600116156101000203166002900480156103c65780601f1061039b576101008083540402835291602001916103c6565b820191906000526020600020905b8154815290600101906020018083116103a957829003601f168201915b505050505081526020016004820160009054906101000a900460ff16151515158152505081526020019060010190610124565b5050505090508091505090565b6000803373ffffffffffffffffffffffffffffffffffffffff1673ffffffffffffffffffffffffffffffffffffffff1681526020019081526020016000206040518060a00160405280868152602001858152602001838152602001848152602001600015158152509080600181540180825580915050906001820390600052602060002090600502016000909192909190915060008201518160000190805190602001906104b5929190610775565b5060208201518160010190805190602001906104d2929190610775565b5060408201518160020190805190602001906104ef929190610775565b50606082015181600301908051906020019061050c929190610775565b5060808201518160040160006101000a81548160ff02191690831515021790555050505050505050565b60008060003373ffffffffffffffffffffffffffffffffffffffff1673ffffffffffffffffffffffffffffffffffffffff168152602001908152602001600020905060008090505b818054905081101561065057848051906020012082828154811061059e57fe5b90600052602060002090600502016000016040516105bc9190610cc6565b6040518091039020148015610608575083805190602001208282815481106105e057fe5b90600052602060002090600502016001016040516105fe9190610cc6565b6040518091039020145b15610643578282828154811061061a57fe5b906000526020600020906005020160040160006101000a81548160ff0219169083151502179055505b808060010191505061057e565b5050505050565b60008060003373ffffffffffffffffffffffffffffffffffffffff1673ffffffffffffffffffffffffffffffffffffffff168152602001908152602001600020905060008090505b818054905081101561076e5784805190602001208282815481106106bf57fe5b90600052602060002090600502016000016040516106dd9190610cc6565b60405180910390201480156107295750838051906020012082828154811061070157fe5b906000526020600020906005020160010160405161071f9190610cc6565b6040518091039020145b15610761578282828154811061073b57fe5b9060005260206000209060050201600101908051906020019061075f9291906107f5565b505b808060010191505061069f565b5050505050565b828054600181600116156101000203166002900490600052602060002090601f016020900481019282601f106107b657805160ff19168380011785556107e4565b828001600101855582156107e4579182015b828111156107e35782518255916020019190600101906107c8565b5b5090506107f19190610875565b5090565b828054600181600116156101000203166002900490600052602060002090601f016020900481019282601f1061083657805160ff1916838001178555610864565b82800160010185558215610864579182015b82811115610863578251825591602001919060010190610848565b5b5090506108719190610875565b5090565b61089791905b8082111561089357600081600090555060010161087b565b5090565b90565b6000813590506108a981610e2c565b92915050565b600082601f8301126108c057600080fd5b81356108d36108ce82610d2c565b610cff565b915080825260208301602083018583830111156108ef57600080fd5b6108fa838284610dd9565b50505092915050565b60008060006060848603121561091857600080fd5b600084013567ffffffffffffffff81111561093257600080fd5b61093e868287016108af565b935050602084013567ffffffffffffffff81111561095b57600080fd5b610967868287016108af565b92505060406109788682870161089a565b9150509250925092565b60008060006060848603121561099757600080fd5b600084013567ffffffffffffffff8111156109b157600080fd5b6109bd868287016108af565b935050602084013567ffffffffffffffff8111156109da57600080fd5b6109e6868287016108af565b925050604084013567ffffffffffffffff811115610a0357600080fd5b610a0f868287016108af565b9150509250925092565b60008060008060808587031215610a2f57600080fd5b600085013567ffffffffffffffff811115610a4957600080fd5b610a55878288016108af565b945050602085013567ffffffffffffffff811115610a7257600080fd5b610a7e878288016108af565b935050604085013567ffffffffffffffff811115610a9b57600080fd5b610aa7878288016108af565b925050606085013567ffffffffffffffff811115610ac457600080fd5b610ad0878288016108af565b91505092959194509250565b6000610ae88383610c3b565b905092915050565b6000610afb82610d7d565b610b058185610da0565b935083602082028501610b1785610d58565b8060005b85811015610b535784840389528151610b348582610adc565b9450610b3f83610d93565b925060208a01995050600181019050610b1b565b50829750879550505050505092915050565b610b6e81610dcd565b82525050565b600081546001811660008114610b915760018114610bb657610bfa565b607f6002830416610ba28187610db1565b955060ff1983168652808601935050610bfa565b60028204610bc48187610db1565b9550610bcf85610d68565b60005b82811015610bf157815481890152600182019150602081019050610bd2565b82880195505050505b505092915050565b6000610c0d82610d88565b610c178185610dbc565b9350610c27818560208601610de8565b610c3081610e1b565b840191505092915050565b600060a0830160008301518482036000860152610c588282610c02565b91505060208301518482036020860152610c728282610c02565b91505060408301518482036040860152610c8c8282610c02565b91505060608301518482036060860152610ca68282610c02565b9150506080830151610cbb6080860182610b65565b508091505092915050565b6000610cd28284610b74565b915081905092915050565b60006020820190508181036000830152610cf78184610af0565b905092915050565b6000604051905081810181811067ffffffffffffffff82111715610d2257600080fd5b8060405250919050565b600067ffffffffffffffff821115610d4357600080fd5b601f19601f8301169050602081019050919050565b6000819050602082019050919050565b60008190508160005260206000209050919050565b600081519050919050565b600081519050919050565b6000602082019050919050565b600082825260208201905092915050565b600081905092915050565b600082825260208201905092915050565b60008115159050919050565b82818337600083830152505050565b60005b83811015610e06578082015181840152602081019050610deb565b83811115610e15576000848401525b50505050565b6000601f19601f8301169050919050565b610e3581610dcd565b8114610e4057600080fd5b5056fea365627a7a72315820d92c931eed1a2e32cbbaa9fd68f9049d4b4009430b72e8dce54c6a7dcf1cb70d6c6578706572696d656e74616cf564736f6c63430005100040",
  "source": "pragma solidity >=0.4.21 <0.7.0;\npragma experimental ABIEncoderV2;\n\n/*\n * Contract for storing and retrieve file details uploaded to the IPFS\n * P2P network. This is made thanks to a \"mapping\" data structure, which allows\n * storing all file's information. More information through the source\n * code below.\n */\ncontract FileDetailsManager {\n\n    /*\n     * Structure for file's details.\n    */\n    struct FileDetails {\n        string fileHash; // The IPFS file hash\n        string fileName; // The file name\n        string transactionDate; // The date in which file infos was stored\n        string fileExtension; // The type of file (its extension)\n        bool isFavorite;\n    }\n\n    /*\n     * Mapping file details with users account address\n    */\n    mapping(address => FileDetails[]) filesList;\n\n    /* \n     * When calling this function, the file's information are mapped to address \n     * of the user.\n    */\n    function addFile(string memory fileHash, string memory fileName, string memory fileType, string memory date) public {\n        filesList[msg.sender].push(FileDetails({\n                fileHash: fileHash,\n                fileName: fileName,\n                fileExtension: fileType,\n                transactionDate: date,\n                isFavorite: false\n            }));\n    }\n\n    /* \n     * TODO: description of returned values\n    */\n    \n    function getFiles() public view returns (FileDetails[] memory) {\n        FileDetails[] memory fileToBeRetrieved = filesList[msg.sender];\n        return (fileToBeRetrieved);\n    }\n\n    /*\n    * \n    */\n    function renameFileName(string memory fileHash, string memory fileName, string memory newName) public{\n        FileDetails[] storage filesDetails = filesList[msg.sender];\n        for(uint i = 0; i < filesDetails.length; i++){\n            if(keccak256(bytes(filesDetails[i].fileHash)) == keccak256(bytes(fileHash)) && keccak256(bytes(filesDetails[i].fileName)) == keccak256(bytes(fileName))) filesDetails[i].fileName = newName;\n        }\n    }\n\n    function setFavorite(string memory fileHash, string memory fileName, bool  isFavorite) public{\n        FileDetails[] storage filesDetails = filesList[msg.sender];\n        for(uint i = 0; i < filesDetails.length; i++){\n            if(keccak256(bytes(filesDetails[i].fileHash)) == keccak256(bytes(fileHash)) && keccak256(bytes(filesDetails[i].fileName)) == keccak256(bytes(fileName))) filesDetails[i].isFavorite = isFavorite;\n        }\n    }\n}\n",
  "sourcePath": "/Users/filippo/Workspace/Cloudest/clouest_client/contracts/FileDetailsManager.sol",
  "compiler": {
    "name": "solc",
    "version": "0.5.16+commit.9c3226ce.Emscripten.clang"
  },
  "schemaVersion": "3.3.3",
  "updatedAt": "2021-03-01T12:40:38.719Z",
  "networkType": "ethereum",
  "devdoc": {
    "methods": {}
  },
  "userdoc": {
    "methods": {}
  }
}