{
  "contractName": "FileDetailsManager",
  "abi": [
    {
      "constant": false,
      "inputs": [
        {
          "internalType": "string",
          "name": "fileHash",
          "type": "string"
        },
        {
          "internalType": "string",
          "name": "fileName",
          "type": "string"
        },
        {
          "internalType": "string",
          "name": "fileType",
          "type": "string"
        },
        {
          "internalType": "string",
          "name": "date",
          "type": "string"
        }
      ],
      "name": "addFile",
      "outputs": [],
      "payable": false,
      "stateMutability": "nonpayable",
      "type": "function"
    },
    {
      "constant": false,
      "inputs": [
        {
          "internalType": "string",
          "name": "fileHash",
          "type": "string"
        },
        {
          "internalType": "string",
          "name": "fileName",
          "type": "string"
        }
      ],
      "name": "deleteFile",
      "outputs": [],
      "payable": false,
      "stateMutability": "nonpayable",
      "type": "function"
    },
    {
      "constant": true,
      "inputs": [],
      "name": "getFiles",
      "outputs": [
        {
          "components": [
            {
              "internalType": "string",
              "name": "fileHash",
              "type": "string"
            },
            {
              "internalType": "string",
              "name": "fileName",
              "type": "string"
            },
            {
              "internalType": "string",
              "name": "transactionDate",
              "type": "string"
            },
            {
              "internalType": "string",
              "name": "fileExtension",
              "type": "string"
            },
            {
              "internalType": "bool",
              "name": "isFavorite",
              "type": "bool"
            }
          ],
          "internalType": "struct FileDetailsManager.FileDetails[]",
          "name": "",
          "type": "tuple[]"
        }
      ],
      "payable": false,
      "stateMutability": "view",
      "type": "function"
    },
    {
      "constant": false,
      "inputs": [
        {
          "internalType": "string",
          "name": "fileHash",
          "type": "string"
        },
        {
          "internalType": "string",
          "name": "fileName",
          "type": "string"
        },
        {
          "internalType": "string",
          "name": "newName",
          "type": "string"
        }
      ],
      "name": "renameFileName",
      "outputs": [],
      "payable": false,
      "stateMutability": "nonpayable",
      "type": "function"
    },
    {
      "constant": false,
      "inputs": [
        {
          "internalType": "string",
          "name": "fileHash",
          "type": "string"
        },
        {
          "internalType": "string",
          "name": "fileName",
          "type": "string"
        },
        {
          "internalType": "bool",
          "name": "isFavorite",
          "type": "bool"
        }
      ],
      "name": "setFavorite",
      "outputs": [],
      "payable": false,
      "stateMutability": "nonpayable",
      "type": "function"
    }
  ],
  "bytecode": "0x608060405234801561001057600080fd5b5061127d806100206000396000f3fe608060405234801561001057600080fd5b50600436106100575760003560e01c80632da96d731461005c5780635f067db01461007a578063b17b225614610096578063d34a8708146100b2578063fc99832d146100ce575b600080fd5b6100646100ea565b60405161007191906110d4565b60405180910390f35b610094600480360361008f9190810190610e10565b61042d565b005b6100b060048036036100ab9190810190610cfa565b61055d565b005b6100cc60048036036100c79190810190610c8e565b61067e565b005b6100e860048036036100e39190810190610d79565b610913565b005b6060806000803373ffffffffffffffffffffffffffffffffffffffff1673ffffffffffffffffffffffffffffffffffffffff168152602001908152602001600020805480602002602001604051908101604052809291908181526020016000905b8282101561042057838290600052602060002090600502016040518060a0016040529081600082018054600181600116156101000203166002900480601f0160208091040260200160405190810160405280929190818152602001828054600181600116156101000203166002900480156102075780601f106101dc57610100808354040283529160200191610207565b820191906000526020600020905b8154815290600101906020018083116101ea57829003601f168201915b50505050508152602001600182018054600181600116156101000203166002900480601f0160208091040260200160405190810160405280929190818152602001828054600181600116156101000203166002900480156102a95780601f1061027e576101008083540402835291602001916102a9565b820191906000526020600020905b81548152906001019060200180831161028c57829003601f168201915b50505050508152602001600282018054600181600116156101000203166002900480601f01602080910402602001604051908101604052809291908181526020018280546001816001161561010002031660029004801561034b5780601f106103205761010080835404028352916020019161034b565b820191906000526020600020905b81548152906001019060200180831161032e57829003601f168201915b50505050508152602001600382018054600181600116156101000203166002900480601f0160208091040260200160405190810160405280929190818152602001828054600181600116156101000203166002900480156103ed5780601f106103c2576101008083540402835291602001916103ed565b820191906000526020600020905b8154815290600101906020018083116103d057829003601f168201915b505050505081526020016004820160009054906101000a900460ff1615151515815250508152602001906001019061014b565b5050505090508091505090565b6000803373ffffffffffffffffffffffffffffffffffffffff1673ffffffffffffffffffffffffffffffffffffffff1681526020019081526020016000206040518060a00160405280868152602001858152602001838152602001848152602001600015158152509080600181540180825580915050906001820390600052602060002090600502016000909192909190915060008201518160000190805190602001906104dc929190610a31565b5060208201518160010190805190602001906104f9929190610a31565b506040820151816002019080519060200190610516929190610a31565b506060820151816003019080519060200190610533929190610a31565b5060808201518160040160006101000a81548160ff02191690831515021790555050505050505050565b60008060003373ffffffffffffffffffffffffffffffffffffffff1673ffffffffffffffffffffffffffffffffffffffff168152602001908152602001600020905060008090505b81805490508110156106775784805190602001208282815481106105c557fe5b90600052602060002090600502016000016040516105e391906110bd565b604051809103902014801561062f5750838051906020012082828154811061060757fe5b906000526020600020906005020160010160405161062591906110bd565b6040518091039020145b1561066a578282828154811061064157fe5b906000526020600020906005020160040160006101000a81548160ff0219169083151502179055505b80806001019150506105a5565b5050505050565b60008060003373ffffffffffffffffffffffffffffffffffffffff1673ffffffffffffffffffffffffffffffffffffffff1681526020019081526020016000209050600080905060008090505b828054905081101561076b5784805190602001208382815481106106eb57fe5b906000526020600020906005020160000160405161070991906110bd565b60405180910390201480156107555750838051906020012083828154811061072d57fe5b906000526020600020906005020160010160405161074b91906110bd565b6040518091039020145b1561075e578091505b80806001019150506106cb565b5060008190505b60018380549050038110156108955782600182018154811061079057fe5b90600052602060002090600502018382815481106107aa57fe5b9060005260206000209060050201600082018160000190805460018160011615610100020316600290046107df929190610ab1565b5060018201816001019080546001816001161561010002031660029004610807929190610ab1565b506002820181600201908054600181600116156101000203166002900461082f929190610ab1565b5060038201816003019080546001816001161561010002031660029004610857929190610ab1565b506004820160009054906101000a900460ff168160040160006101000a81548160ff0219169083151502179055509050508080600101915050610772565b50818054806108a057fe5b6001900381819060005260206000209060050201600080820160006108c59190610b38565b6001820160006108d59190610b38565b6002820160006108e59190610b38565b6003820160006108f59190610b38565b6004820160006101000a81549060ff02191690555050905550505050565b60008060003373ffffffffffffffffffffffffffffffffffffffff1673ffffffffffffffffffffffffffffffffffffffff168152602001908152602001600020905060008090505b8180549050811015610a2a57848051906020012082828154811061097b57fe5b906000526020600020906005020160000160405161099991906110bd565b60405180910390201480156109e5575083805190602001208282815481106109bd57fe5b90600052602060002090600502016001016040516109db91906110bd565b6040518091039020145b15610a1d57828282815481106109f757fe5b90600052602060002090600502016001019080519060200190610a1b929190610b80565b505b808060010191505061095b565b5050505050565b828054600181600116156101000203166002900490600052602060002090601f016020900481019282601f10610a7257805160ff1916838001178555610aa0565b82800160010185558215610aa0579182015b82811115610a9f578251825591602001919060010190610a84565b5b509050610aad9190610c00565b5090565b828054600181600116156101000203166002900490600052602060002090601f016020900481019282601f10610aea5780548555610b27565b82800160010185558215610b2757600052602060002091601f016020900482015b82811115610b26578254825591600101919060010190610b0b565b5b509050610b349190610c00565b5090565b50805460018160011615610100020316600290046000825580601f10610b5e5750610b7d565b601f016020900490600052602060002090810190610b7c9190610c00565b5b50565b828054600181600116156101000203166002900490600052602060002090601f016020900481019282601f10610bc157805160ff1916838001178555610bef565b82800160010185558215610bef579182015b82811115610bee578251825591602001919060010190610bd3565b5b509050610bfc9190610c00565b5090565b610c2291905b80821115610c1e576000816000905550600101610c06565b5090565b90565b600081359050610c3481611223565b92915050565b600082601f830112610c4b57600080fd5b8135610c5e610c5982611123565b6110f6565b91508082526020830160208301858383011115610c7a57600080fd5b610c858382846111d0565b50505092915050565b60008060408385031215610ca157600080fd5b600083013567ffffffffffffffff811115610cbb57600080fd5b610cc785828601610c3a565b925050602083013567ffffffffffffffff811115610ce457600080fd5b610cf085828601610c3a565b9150509250929050565b600080600060608486031215610d0f57600080fd5b600084013567ffffffffffffffff811115610d2957600080fd5b610d3586828701610c3a565b935050602084013567ffffffffffffffff811115610d5257600080fd5b610d5e86828701610c3a565b9250506040610d6f86828701610c25565b9150509250925092565b600080600060608486031215610d8e57600080fd5b600084013567ffffffffffffffff811115610da857600080fd5b610db486828701610c3a565b935050602084013567ffffffffffffffff811115610dd157600080fd5b610ddd86828701610c3a565b925050604084013567ffffffffffffffff811115610dfa57600080fd5b610e0686828701610c3a565b9150509250925092565b60008060008060808587031215610e2657600080fd5b600085013567ffffffffffffffff811115610e4057600080fd5b610e4c87828801610c3a565b945050602085013567ffffffffffffffff811115610e6957600080fd5b610e7587828801610c3a565b935050604085013567ffffffffffffffff811115610e9257600080fd5b610e9e87828801610c3a565b925050606085013567ffffffffffffffff811115610ebb57600080fd5b610ec787828801610c3a565b91505092959194509250565b6000610edf8383611032565b905092915050565b6000610ef282611174565b610efc8185611197565b935083602082028501610f0e8561114f565b8060005b85811015610f4a5784840389528151610f2b8582610ed3565b9450610f368361118a565b925060208a01995050600181019050610f12565b50829750879550505050505092915050565b610f65816111c4565b82525050565b600081546001811660008114610f885760018114610fad57610ff1565b607f6002830416610f9981876111a8565b955060ff1983168652808601935050610ff1565b60028204610fbb81876111a8565b9550610fc68561115f565b60005b82811015610fe857815481890152600182019150602081019050610fc9565b82880195505050505b505092915050565b60006110048261117f565b61100e81856111b3565b935061101e8185602086016111df565b61102781611212565b840191505092915050565b600060a083016000830151848203600086015261104f8282610ff9565b915050602083015184820360208601526110698282610ff9565b915050604083015184820360408601526110838282610ff9565b9150506060830151848203606086015261109d8282610ff9565b91505060808301516110b26080860182610f5c565b508091505092915050565b60006110c98284610f6b565b915081905092915050565b600060208201905081810360008301526110ee8184610ee7565b905092915050565b6000604051905081810181811067ffffffffffffffff8211171561111957600080fd5b8060405250919050565b600067ffffffffffffffff82111561113a57600080fd5b601f19601f8301169050602081019050919050565b6000819050602082019050919050565b60008190508160005260206000209050919050565b600081519050919050565b600081519050919050565b6000602082019050919050565b600082825260208201905092915050565b600081905092915050565b600082825260208201905092915050565b60008115159050919050565b82818337600083830152505050565b60005b838110156111fd5780820151818401526020810190506111e2565b8381111561120c576000848401525b50505050565b6000601f19601f8301169050919050565b61122c816111c4565b811461123757600080fd5b5056fea365627a7a72315820788b5907b2711a61724b8c9913985b54c5f534ec1795382af8f303711b3d614d6c6578706572696d656e74616cf564736f6c63430005100040",
  "source": "pragma solidity >=0.4.21 <0.7.0;\npragma experimental ABIEncoderV2;\n\n/*\n * Contract for storing and retrieve file details uploaded to the IPFS\n * P2P network. This is made thanks to a \"mapping\" data structure, which allows\n * storing all file's information. More information through the source\n * code below.\n */\ncontract FileDetailsManager {\n\n    /*\n     * Structure for file's details.\n    */\n    struct FileDetails {\n        string fileHash; // The IPFS file hash\n        string fileName; // The file name\n        string transactionDate; // The date in which file infos was stored\n        string fileExtension; // The type of file (its extension)\n        bool isFavorite;\n    }\n\n    /*\n     * Mapping file details with users account address\n    */\n    mapping(address => FileDetails[]) filesList;\n\n    /* \n     * When calling this function, the file's information are mapped to address \n     * of the user.\n    */\n    function addFile(string memory fileHash, string memory fileName, string memory fileType, string memory date) public {\n        filesList[msg.sender].push(FileDetails({\n                fileHash: fileHash,\n                fileName: fileName,\n                fileExtension: fileType,\n                transactionDate: date,\n                isFavorite: false\n            }));\n    }\n\n    function deleteFile(string memory fileHash, string memory fileName) public {\n        FileDetails[] storage filesDetails = filesList[msg.sender];\n        uint index = 0;\n        for(uint i = 0; i < filesDetails.length; i++){\n            if(keccak256(bytes(filesDetails[i].fileHash)) == keccak256(bytes(fileHash)) \n            && keccak256(bytes(filesDetails[i].fileName)) == keccak256(bytes(fileName))) {\n                index = i;\n            }\n        }\n\n        for (uint i = index; i < filesDetails.length-1; i++){\n            filesDetails[i] = filesDetails[i+1];\n        }\n        filesDetails.pop();\n    }\n\n    /* \n     * TODO: description of returned values\n    */\n    \n    function getFiles() public view returns (FileDetails[] memory) {\n        FileDetails[] memory fileToBeRetrieved = filesList[msg.sender];\n        return (fileToBeRetrieved);\n    }\n\n    /*\n     * \n    */\n    function renameFileName(string memory fileHash, string memory fileName, string memory newName) public{\n        FileDetails[] storage filesDetails = filesList[msg.sender];\n        for(uint i = 0; i < filesDetails.length; i++){\n            if(keccak256(bytes(filesDetails[i].fileHash)) == keccak256(bytes(fileHash)) && keccak256(bytes(filesDetails[i].fileName)) == keccak256(bytes(fileName))) filesDetails[i].fileName = newName;\n        }\n    }\n\n\n    /*\n     *\n    */\n    function setFavorite(string memory fileHash, string memory fileName, bool  isFavorite) public{\n        FileDetails[] storage filesDetails = filesList[msg.sender];\n        for(uint i = 0; i < filesDetails.length; i++){\n            if(keccak256(bytes(filesDetails[i].fileHash)) == keccak256(bytes(fileHash)) && keccak256(bytes(filesDetails[i].fileName)) == keccak256(bytes(fileName))) filesDetails[i].isFavorite = isFavorite;\n        }\n    }\n}\n",
  "sourcePath": "/Users/filippo/Workspace/Cloudest/clouest_client/contracts/FileDetailsManager.sol",
  "compiler": {
    "name": "solc",
    "version": "0.5.16+commit.9c3226ce.Emscripten.clang"
  },
  "schemaVersion": "3.3.3",
  "updatedAt": "2021-03-01T20:54:56.734Z",
  "networkType": "ethereum",
  "devdoc": {
    "methods": {}
  },
  "userdoc": {
    "methods": {}
  }
}