{
  "contractName": "FileDetailsManager",
  "abi": [
    {
      "constant": false,
      "inputs": [
        {
          "internalType": "string",
          "name": "uniqueId",
          "type": "string"
        },
        {
          "internalType": "string",
          "name": "name",
          "type": "string"
        },
        {
          "internalType": "string",
          "name": "fileType",
          "type": "string"
        },
        {
          "internalType": "string",
          "name": "date",
          "type": "string"
        },
        {
          "internalType": "string",
          "name": "parentFolderId",
          "type": "string"
        }
      ],
      "name": "addFile",
      "outputs": [],
      "payable": false,
      "stateMutability": "nonpayable",
      "type": "function"
    },
    {
      "constant": false,
      "inputs": [
        {
          "internalType": "string",
          "name": "name",
          "type": "string"
        },
        {
          "internalType": "string",
          "name": "date",
          "type": "string"
        },
        {
          "internalType": "string",
          "name": "parentFolderId",
          "type": "string"
        }
      ],
      "name": "addFolder",
      "outputs": [],
      "payable": false,
      "stateMutability": "nonpayable",
      "type": "function"
    },
    {
      "constant": false,
      "inputs": [
        {
          "internalType": "string",
          "name": "uniqueId",
          "type": "string"
        },
        {
          "internalType": "string",
          "name": "name",
          "type": "string"
        }
      ],
      "name": "deleteFile",
      "outputs": [],
      "payable": false,
      "stateMutability": "nonpayable",
      "type": "function"
    },
    {
      "constant": true,
      "inputs": [],
      "name": "getFiles",
      "outputs": [
        {
          "components": [
            {
              "internalType": "string",
              "name": "uniqueId",
              "type": "string"
            },
            {
              "internalType": "string",
              "name": "name",
              "type": "string"
            },
            {
              "internalType": "string",
              "name": "transactionDate",
              "type": "string"
            },
            {
              "internalType": "string",
              "name": "fileType",
              "type": "string"
            },
            {
              "internalType": "string",
              "name": "parentFolderId",
              "type": "string"
            },
            {
              "internalType": "bool",
              "name": "isFavorite",
              "type": "bool"
            }
          ],
          "internalType": "struct FileDetailsManager.FileDetails[]",
          "name": "",
          "type": "tuple[]"
        }
      ],
      "payable": false,
      "stateMutability": "view",
      "type": "function"
    },
    {
      "constant": false,
      "inputs": [
        {
          "internalType": "string",
          "name": "uniqueId",
          "type": "string"
        },
        {
          "internalType": "string",
          "name": "name",
          "type": "string"
        },
        {
          "internalType": "string",
          "name": "newName",
          "type": "string"
        }
      ],
      "name": "renameFileName",
      "outputs": [],
      "payable": false,
      "stateMutability": "nonpayable",
      "type": "function"
    },
    {
      "constant": false,
      "inputs": [
        {
          "internalType": "string",
          "name": "uniqueId",
          "type": "string"
        },
        {
          "internalType": "string",
          "name": "name",
          "type": "string"
        },
        {
          "internalType": "bool",
          "name": "isFavorite",
          "type": "bool"
        }
      ],
      "name": "setFavorite",
      "outputs": [],
      "payable": false,
      "stateMutability": "nonpayable",
      "type": "function"
    }
  ],
  "bytecode": "0x6080604052600060015534801561001557600080fd5b506116b8806100256000396000f3fe608060405234801561001057600080fd5b50600436106100625760003560e01c80630a7fac441461006757806316cec2f4146100835780632da96d731461009f578063b17b2256146100bd578063d34a8708146100d9578063fc99832d146100f5575b600080fd5b610081600480360361007c9190810190611205565b610111565b005b61009d6004803603610098919081019061116e565b610265565b005b6100a7610408565b6040516100b4919061150f565b60405180910390f35b6100d760048036036100d291908101906110ef565b6107ed565b005b6100f360048036036100ee9190810190611083565b61090e565b005b61010f600480360361010a919081019061116e565b610bdb565b005b6000803373ffffffffffffffffffffffffffffffffffffffff1673ffffffffffffffffffffffffffffffffffffffff1681526020019081526020016000206040518060c00160405280878152602001868152602001848152602001858152602001838152602001600015158152509080600181540180825580915050906001820390600052602060002090600602016000909192909190915060008201518160000190805190602001906101c6929190610e26565b5060208201518160010190805190602001906101e3929190610e26565b506040820151816002019080519060200190610200929190610e26565b50606082015181600301908051906020019061021d929190610e26565b50608082015181600401908051906020019061023a929190610e26565b5060a08201518160050160006101000a81548160ff0219169083151502179055505050505050505050565b6000803373ffffffffffffffffffffffffffffffffffffffff1673ffffffffffffffffffffffffffffffffffffffff1681526020019081526020016000206040518060c001604052806102b9600154610cf9565b81526020018581526020018481526020016040518060400160405280600681526020017f666f6c6465720000000000000000000000000000000000000000000000000000815250815260200183815260200160001515815250908060018154018082558091505090600182039060005260206000209060060201600090919290919091506000820151816000019080519060200190610359929190610e26565b506020820151816001019080519060200190610376929190610e26565b506040820151816002019080519060200190610393929190610e26565b5060608201518160030190805190602001906103b0929190610e26565b5060808201518160040190805190602001906103cd929190610e26565b5060a08201518160050160006101000a81548160ff021916908315150217905550505050600160008154809291906001019190505550505050565b6060806000803373ffffffffffffffffffffffffffffffffffffffff1673ffffffffffffffffffffffffffffffffffffffff168152602001908152602001600020805480602002602001604051908101604052809291908181526020016000905b828210156107e057838290600052602060002090600602016040518060c0016040529081600082018054600181600116156101000203166002900480601f0160208091040260200160405190810160405280929190818152602001828054600181600116156101000203166002900480156105255780601f106104fa57610100808354040283529160200191610525565b820191906000526020600020905b81548152906001019060200180831161050857829003601f168201915b50505050508152602001600182018054600181600116156101000203166002900480601f0160208091040260200160405190810160405280929190818152602001828054600181600116156101000203166002900480156105c75780601f1061059c576101008083540402835291602001916105c7565b820191906000526020600020905b8154815290600101906020018083116105aa57829003601f168201915b50505050508152602001600282018054600181600116156101000203166002900480601f0160208091040260200160405190810160405280929190818152602001828054600181600116156101000203166002900480156106695780601f1061063e57610100808354040283529160200191610669565b820191906000526020600020905b81548152906001019060200180831161064c57829003601f168201915b50505050508152602001600382018054600181600116156101000203166002900480601f01602080910402602001604051908101604052809291908181526020018280546001816001161561010002031660029004801561070b5780601f106106e05761010080835404028352916020019161070b565b820191906000526020600020905b8154815290600101906020018083116106ee57829003601f168201915b50505050508152602001600482018054600181600116156101000203166002900480601f0160208091040260200160405190810160405280929190818152602001828054600181600116156101000203166002900480156107ad5780601f10610782576101008083540402835291602001916107ad565b820191906000526020600020905b81548152906001019060200180831161079057829003601f168201915b505050505081526020016005820160009054906101000a900460ff16151515158152505081526020019060010190610469565b5050505090508091505090565b60008060003373ffffffffffffffffffffffffffffffffffffffff1673ffffffffffffffffffffffffffffffffffffffff168152602001908152602001600020905060008090505b818054905081101561090757848051906020012082828154811061085557fe5b906000526020600020906006020160000160405161087391906114f8565b60405180910390201480156108bf5750838051906020012082828154811061089757fe5b90600052602060002090600602016001016040516108b591906114f8565b6040518091039020145b156108fa57828282815481106108d157fe5b906000526020600020906006020160050160006101000a81548160ff0219169083151502179055505b8080600101915050610835565b5050505050565b60008060003373ffffffffffffffffffffffffffffffffffffffff1673ffffffffffffffffffffffffffffffffffffffff1681526020019081526020016000209050600080905060008090505b82805490508110156109fb57848051906020012083828154811061097b57fe5b906000526020600020906006020160000160405161099991906114f8565b60405180910390201480156109e5575083805190602001208382815481106109bd57fe5b90600052602060002090600602016001016040516109db91906114f8565b6040518091039020145b156109ee578091505b808060010191505061095b565b5060008190505b6001838054905003811015610b4d57826001820181548110610a2057fe5b9060005260206000209060060201838281548110610a3a57fe5b906000526020600020906006020160008201816000019080546001816001161561010002031660029004610a6f929190610ea6565b5060018201816001019080546001816001161561010002031660029004610a97929190610ea6565b5060028201816002019080546001816001161561010002031660029004610abf929190610ea6565b5060038201816003019080546001816001161561010002031660029004610ae7929190610ea6565b5060048201816004019080546001816001161561010002031660029004610b0f929190610ea6565b506005820160009054906101000a900460ff168160050160006101000a81548160ff0219169083151502179055509050508080600101915050610a02565b5081805480610b5857fe5b600190038181906000526020600020906006020160008082016000610b7d9190610f2d565b600182016000610b8d9190610f2d565b600282016000610b9d9190610f2d565b600382016000610bad9190610f2d565b600482016000610bbd9190610f2d565b6005820160006101000a81549060ff02191690555050905550505050565b60008060003373ffffffffffffffffffffffffffffffffffffffff1673ffffffffffffffffffffffffffffffffffffffff168152602001908152602001600020905060008090505b8180549050811015610cf2578480519060200120828281548110610c4357fe5b9060005260206000209060060201600001604051610c6191906114f8565b6040518091039020148015610cad57508380519060200120828281548110610c8557fe5b9060005260206000209060060201600101604051610ca391906114f8565b6040518091039020145b15610ce55782828281548110610cbf57fe5b90600052602060002090600602016001019080519060200190610ce3929190610f75565b505b8080600101915050610c23565b5050505050565b60606000821415610d41576040518060400160405280600181526020017f30000000000000000000000000000000000000000000000000000000000000008152509050610e21565b600082905060005b60008214610d6b578080600101915050600a8281610d6357fe5b049150610d49565b6060816040519080825280601f01601f191660200182016040528015610da05781602001600182028038833980820191505090505b50905060006001830390505b60008614610e1957600a8681610dbe57fe5b0660300160f81b82828060019003935081518110610dd857fe5b60200101907effffffffffffffffffffffffffffffffffffffffffffffffffffffffffffff1916908160001a905350600a8681610e1157fe5b049550610dac565b819450505050505b919050565b828054600181600116156101000203166002900490600052602060002090601f016020900481019282601f10610e6757805160ff1916838001178555610e95565b82800160010185558215610e95579182015b82811115610e94578251825591602001919060010190610e79565b5b509050610ea29190610ff5565b5090565b828054600181600116156101000203166002900490600052602060002090601f016020900481019282601f10610edf5780548555610f1c565b82800160010185558215610f1c57600052602060002091601f016020900482015b82811115610f1b578254825591600101919060010190610f00565b5b509050610f299190610ff5565b5090565b50805460018160011615610100020316600290046000825580601f10610f535750610f72565b601f016020900490600052602060002090810190610f719190610ff5565b5b50565b828054600181600116156101000203166002900490600052602060002090601f016020900481019282601f10610fb657805160ff1916838001178555610fe4565b82800160010185558215610fe4579182015b82811115610fe3578251825591602001919060010190610fc8565b5b509050610ff19190610ff5565b5090565b61101791905b80821115611013576000816000905550600101610ffb565b5090565b90565b6000813590506110298161165e565b92915050565b600082601f83011261104057600080fd5b813561105361104e8261155e565b611531565b9150808252602083016020830185838301111561106f57600080fd5b61107a83828461160b565b50505092915050565b6000806040838503121561109657600080fd5b600083013567ffffffffffffffff8111156110b057600080fd5b6110bc8582860161102f565b925050602083013567ffffffffffffffff8111156110d957600080fd5b6110e58582860161102f565b9150509250929050565b60008060006060848603121561110457600080fd5b600084013567ffffffffffffffff81111561111e57600080fd5b61112a8682870161102f565b935050602084013567ffffffffffffffff81111561114757600080fd5b6111538682870161102f565b92505060406111648682870161101a565b9150509250925092565b60008060006060848603121561118357600080fd5b600084013567ffffffffffffffff81111561119d57600080fd5b6111a98682870161102f565b935050602084013567ffffffffffffffff8111156111c657600080fd5b6111d28682870161102f565b925050604084013567ffffffffffffffff8111156111ef57600080fd5b6111fb8682870161102f565b9150509250925092565b600080600080600060a0868803121561121d57600080fd5b600086013567ffffffffffffffff81111561123757600080fd5b6112438882890161102f565b955050602086013567ffffffffffffffff81111561126057600080fd5b61126c8882890161102f565b945050604086013567ffffffffffffffff81111561128957600080fd5b6112958882890161102f565b935050606086013567ffffffffffffffff8111156112b257600080fd5b6112be8882890161102f565b925050608086013567ffffffffffffffff8111156112db57600080fd5b6112e78882890161102f565b9150509295509295909350565b60006113008383611453565b905092915050565b6000611313826115af565b61131d81856115d2565b93508360208202850161132f8561158a565b8060005b8581101561136b578484038952815161134c85826112f4565b9450611357836115c5565b925060208a01995050600181019050611333565b50829750879550505050505092915050565b611386816115ff565b82525050565b6000815460018116600081146113a957600181146113ce57611412565b607f60028304166113ba81876115e3565b955060ff1983168652808601935050611412565b600282046113dc81876115e3565b95506113e78561159a565b60005b82811015611409578154818901526001820191506020810190506113ea565b82880195505050505b505092915050565b6000611425826115ba565b61142f81856115ee565b935061143f81856020860161161a565b6114488161164d565b840191505092915050565b600060c0830160008301518482036000860152611470828261141a565b9150506020830151848203602086015261148a828261141a565b915050604083015184820360408601526114a4828261141a565b915050606083015184820360608601526114be828261141a565b915050608083015184820360808601526114d8828261141a565b91505060a08301516114ed60a086018261137d565b508091505092915050565b6000611504828461138c565b915081905092915050565b600060208201905081810360008301526115298184611308565b905092915050565b6000604051905081810181811067ffffffffffffffff8211171561155457600080fd5b8060405250919050565b600067ffffffffffffffff82111561157557600080fd5b601f19601f8301169050602081019050919050565b6000819050602082019050919050565b60008190508160005260206000209050919050565b600081519050919050565b600081519050919050565b6000602082019050919050565b600082825260208201905092915050565b600081905092915050565b600082825260208201905092915050565b60008115159050919050565b82818337600083830152505050565b60005b8381101561163857808201518184015260208101905061161d565b83811115611647576000848401525b50505050565b6000601f19601f8301169050919050565b611667816115ff565b811461167257600080fd5b5056fea365627a7a72315820fab8abca1e0f31476d3ceecb4762a66d3c37218467367ed190b45cc98157df946c6578706572696d656e74616cf564736f6c63430005100040",
  "source": "pragma solidity >=0.4.21 <0.7.0;\npragma experimental ABIEncoderV2;\n\n/*\n * Contract for storing and retrieve file details uploaded to the IPFS\n * P2P network. This is made thanks to a \"mapping\" data structure, which allows\n * storing all file's information. More information through the source\n * code below.\n */\ncontract FileDetailsManager {\n\n    /*\n     * Structure for files' details and folders' details.\n    */\n    struct FileDetails {\n        string uniqueId; // If isFolder==true -> unique id of the folder, otherwise it's IPFS fileHash.\n        string name; // name of the folder or of the file.\n        string transactionDate; // The date in which file infos was stored.\n        string fileType; // \"folder\" if folder, the extension of the file otherwise.\n        string parentFolderId;\n        bool isFavorite;\n    }\n\n    /*\n     * Mapping file details with users account address\n    */\n    mapping(address => FileDetails[]) filesList;\n    uint folderId = 0;\n    /* \n     * When calling this function, the file's information are mapped to address \n     * of the user.\n    */\n    function addFile(string memory uniqueId, string memory name, string memory fileType, string memory date, string memory parentFolderId) public {\n        filesList[msg.sender].push(FileDetails({\n                uniqueId: uniqueId,\n                name: name,\n                fileType: fileType,\n                transactionDate: date,\n                parentFolderId: parentFolderId,\n                isFavorite: false\n            }));\n    }\n\n    /* \n     * When calling this function, the folder's information are mapped to address \n     * of the user.\n    */\n    function addFolder(string memory name, string memory date, string memory parentFolderId) public {\n        filesList[msg.sender].push(FileDetails({\n                uniqueId: uint2str(folderId),\n                name: name,\n                fileType: \"folder\",\n                transactionDate: date,\n                parentFolderId: parentFolderId,\n                isFavorite: false\n            }));\n        folderId++;\n    }\n\n    function deleteFile(string memory uniqueId, string memory name) public {\n        FileDetails[] storage filesDetails = filesList[msg.sender];\n        uint index = 0;\n        for(uint i = 0; i < filesDetails.length; i++){\n            if(keccak256(bytes(filesDetails[i].uniqueId)) == keccak256(bytes(uniqueId)) \n            && keccak256(bytes(filesDetails[i].name)) == keccak256(bytes(name))) {\n                index = i;\n            }\n        }\n\n        for (uint i = index; i < filesDetails.length-1; i++){\n            filesDetails[i] = filesDetails[i+1];\n        }\n        filesDetails.pop();\n    }\n\n    /* \n     * TODO: description of returned values\n    */\n    \n    function getFiles() public view returns (FileDetails[] memory) {\n        FileDetails[] memory fileToBeRetrieved = filesList[msg.sender];\n        return (fileToBeRetrieved);\n    }\n\n    /*\n     * \n    */\n    function renameFileName(string memory uniqueId, string memory name, string memory newName) public{\n        FileDetails[] storage filesDetails = filesList[msg.sender];\n        for(uint i = 0; i < filesDetails.length; i++){\n            if(keccak256(bytes(filesDetails[i].uniqueId)) == keccak256(bytes(uniqueId)) && keccak256(bytes(filesDetails[i].name)) == keccak256(bytes(name))) filesDetails[i].name = newName;\n        }\n    }\n\n\n    /*\n     *\n    */\n    function setFavorite(string memory uniqueId, string memory name, bool  isFavorite) public{\n        FileDetails[] storage filesDetails = filesList[msg.sender];\n        for(uint i = 0; i < filesDetails.length; i++){\n            if(keccak256(bytes(filesDetails[i].uniqueId)) == keccak256(bytes(uniqueId)) && keccak256(bytes(filesDetails[i].name)) == keccak256(bytes(name))) filesDetails[i].isFavorite = isFavorite;\n        }\n    }\n\n    function uint2str(uint i) internal pure returns (string memory uintAsString) {\n        if (i == 0) {\n            return \"0\";\n        }\n        uint j = i;\n        uint len;\n        while (j != 0) {\n            len++;\n            j /= 10;\n        }\n        bytes memory bstr = new bytes(len);\n        uint k = len - 1;\n        while (i != 0) {\n            bstr[k--] = byte(uint8(48 + i % 10));\n            i /= 10;\n        }\n        return string(bstr);\n    }\n}\n",
  "sourcePath": "/Users/filippo/Workspace/Cloudest/clouest_client/contracts/FileDetailsManager.sol",
  "compiler": {
    "name": "solc",
    "version": "0.5.16+commit.9c3226ce.Emscripten.clang"
  },
  "schemaVersion": "3.3.3",
  "updatedAt": "2021-03-02T17:36:52.019Z",
  "networkType": "ethereum",
  "devdoc": {
    "methods": {}
  },
  "userdoc": {
    "methods": {}
  }
}