{
  "contractName": "FileDetailsManager",
  "abi": [
    {
      "constant": false,
      "inputs": [
        {
          "internalType": "string",
          "name": "uniqueId",
          "type": "string"
        },
        {
          "internalType": "string",
          "name": "name",
          "type": "string"
        },
        {
          "internalType": "string",
          "name": "fileType",
          "type": "string"
        },
        {
          "internalType": "string",
          "name": "date",
          "type": "string"
        },
        {
          "internalType": "string",
          "name": "parentFolderId",
          "type": "string"
        }
      ],
      "name": "addFile",
      "outputs": [],
      "payable": false,
      "stateMutability": "nonpayable",
      "type": "function"
    },
    {
      "constant": false,
      "inputs": [
        {
          "internalType": "string",
          "name": "name",
          "type": "string"
        },
        {
          "internalType": "string",
          "name": "date",
          "type": "string"
        },
        {
          "internalType": "string",
          "name": "parentFolderId",
          "type": "string"
        }
      ],
      "name": "addFolder",
      "outputs": [],
      "payable": false,
      "stateMutability": "nonpayable",
      "type": "function"
    },
    {
      "constant": false,
      "inputs": [
        {
          "internalType": "string",
          "name": "uniqueId",
          "type": "string"
        },
        {
          "internalType": "string",
          "name": "name",
          "type": "string"
        }
      ],
      "name": "deleteFile",
      "outputs": [],
      "payable": false,
      "stateMutability": "nonpayable",
      "type": "function"
    },
    {
      "constant": false,
      "inputs": [
        {
          "internalType": "string",
          "name": "uniqueId",
          "type": "string"
        }
      ],
      "name": "deleteFolder",
      "outputs": [],
      "payable": false,
      "stateMutability": "nonpayable",
      "type": "function"
    },
    {
      "constant": true,
      "inputs": [],
      "name": "getFiles",
      "outputs": [
        {
          "components": [
            {
              "internalType": "string",
              "name": "uniqueId",
              "type": "string"
            },
            {
              "internalType": "string",
              "name": "name",
              "type": "string"
            },
            {
              "internalType": "string",
              "name": "transactionDate",
              "type": "string"
            },
            {
              "internalType": "string",
              "name": "fileType",
              "type": "string"
            },
            {
              "internalType": "string",
              "name": "parentFolderId",
              "type": "string"
            },
            {
              "internalType": "bool",
              "name": "isFavorite",
              "type": "bool"
            },
            {
              "internalType": "bool",
              "name": "isTrash",
              "type": "bool"
            }
          ],
          "internalType": "struct FileDetailsManager.FileDetails[]",
          "name": "",
          "type": "tuple[]"
        }
      ],
      "payable": false,
      "stateMutability": "view",
      "type": "function"
    },
    {
      "constant": false,
      "inputs": [
        {
          "internalType": "string",
          "name": "uniqueId",
          "type": "string"
        },
        {
          "internalType": "string",
          "name": "name",
          "type": "string"
        },
        {
          "internalType": "string",
          "name": "newName",
          "type": "string"
        }
      ],
      "name": "renameFileName",
      "outputs": [],
      "payable": false,
      "stateMutability": "nonpayable",
      "type": "function"
    },
    {
      "constant": false,
      "inputs": [
        {
          "internalType": "string",
          "name": "uniqueId",
          "type": "string"
        },
        {
          "internalType": "string",
          "name": "name",
          "type": "string"
        },
        {
          "internalType": "bool",
          "name": "isFavorite",
          "type": "bool"
        }
      ],
      "name": "setFavorite",
      "outputs": [],
      "payable": false,
      "stateMutability": "nonpayable",
      "type": "function"
    },
    {
      "constant": false,
      "inputs": [
        {
          "internalType": "string",
          "name": "uniqueId",
          "type": "string"
        },
        {
          "internalType": "string",
          "name": "name",
          "type": "string"
        },
        {
          "internalType": "bool",
          "name": "isTrash",
          "type": "bool"
        },
        {
          "internalType": "bool",
          "name": "isSingleDelete",
          "type": "bool"
        }
      ],
      "name": "setTrashFile",
      "outputs": [],
      "payable": false,
      "stateMutability": "nonpayable",
      "type": "function"
    },
    {
      "constant": false,
      "inputs": [
        {
          "internalType": "string",
          "name": "uniqueId",
          "type": "string"
        },
        {
          "internalType": "bool",
          "name": "isTrash",
          "type": "bool"
        },
        {
          "internalType": "bool",
          "name": "isSingleDelete",
          "type": "bool"
        }
      ],
      "name": "setTrashFolder",
      "outputs": [],
      "payable": false,
      "stateMutability": "nonpayable",
      "type": "function"
    }
  ],
  "bytecode": "0x6080604052600060015534801561001557600080fd5b50612641806100256000396000f3fe608060405234801561001057600080fd5b50600436106100935760003560e01c80632da96d73116100665780632da96d7314610108578063b17b225614610126578063d279d9d614610142578063d34a87081461015e578063fc99832d1461017a57610093565b80630a7fac441461009857806316cec2f4146100b45780631e25ff87146100d057806329e39cfb146100ec575b600080fd5b6100b260048036036100ad919081019061217b565b610196565b005b6100ce60048036036100c991908101906120e4565b610313565b005b6100ea60048036036100e59190810190612051565b6104df565b005b61010660048036036101019190810190611eff565b610675565b005b610110610b75565b60405161011d9190612498565b60405180910390f35b610140600480360361013b9190810190611fd2565b610f75565b005b61015c60048036036101579190810190611ebe565b611096565b005b61017860048036036101739190810190611f66565b611708565b005b610194600480360361018f91908101906120e4565b611a16565b005b6000803373ffffffffffffffffffffffffffffffffffffffff1673ffffffffffffffffffffffffffffffffffffffff1681526020019081526020016000206040518060e0016040528087815260200186815260200184815260200185815260200183815260200160001515815260200160001515815250908060018154018082558091505090600182039060005260206000209060060201600090919290919091506000820151816000019080519060200190610254929190611c61565b506020820151816001019080519060200190610271929190611c61565b50604082015181600201908051906020019061028e929190611c61565b5060608201518160030190805190602001906102ab929190611c61565b5060808201518160040190805190602001906102c8929190611c61565b5060a08201518160050160006101000a81548160ff02191690831515021790555060c08201518160050160016101000a81548160ff0219169083151502179055505050505050505050565b6000803373ffffffffffffffffffffffffffffffffffffffff1673ffffffffffffffffffffffffffffffffffffffff1681526020019081526020016000206040518060e00160405280610367600154611b34565b81526020018581526020018481526020016040518060400160405280600681526020017f666f6c6465720000000000000000000000000000000000000000000000000000815250815260200183815260200160001515815260200160001515815250908060018154018082558091505090600182039060005260206000209060060201600090919290919091506000820151816000019080519060200190610410929190611c61565b50602082015181600101908051906020019061042d929190611c61565b50604082015181600201908051906020019061044a929190611c61565b506060820151816003019080519060200190610467929190611c61565b506080820151816004019080519060200190610484929190611c61565b5060a08201518160050160006101000a81548160ff02191690831515021790555060c08201518160050160016101000a81548160ff021916908315150217905550505050600160008154809291906001019190505550505050565b60008060003373ffffffffffffffffffffffffffffffffffffffff1673ffffffffffffffffffffffffffffffffffffffff1681526020019081526020016000209050600080905060008090505b828054905081101561066c57868051906020012083828154811061054c57fe5b906000526020600020906006020160000160405161056a9190612481565b60405180910390201480156105b65750858051906020012083828154811061058e57fe5b90600052602060002090600602016001016040516105ac9190612481565b6040518091039020145b1561065f57848382815481106105c857fe5b906000526020600020906006020160050160016101000a81548160ff021916908315150217905550831561065e576040518060400160405280600181526020017f2f0000000000000000000000000000000000000000000000000000000000000081525083828154811061063857fe5b9060005260206000209060060201600401908051906020019061065c929190611ce1565b505b5b808060010191505061052c565b50505050505050565b60008060003373ffffffffffffffffffffffffffffffffffffffff1673ffffffffffffffffffffffffffffffffffffffff1681526020019081526020016000209050600080905060008090505b8280549050811015610b6d5785805190602001208382815481106106e257fe5b90600052602060002090600602016000016040516107009190612481565b60405180910390201415610b60578483828154811061071b57fe5b906000526020600020906006020160050160016101000a81548160ff02191690831515021790555083156107b1576040518060400160405280600181526020017f2f0000000000000000000000000000000000000000000000000000000000000081525083828154811061078b57fe5b906000526020600020906006020160040190805190602001906107af929190611ce1565b505b60008090505b8380549050811015610b5e578382815481106107cf57fe5b90600052602060002090600602016000016040516107ed9190612481565b604051809103902084828154811061080157fe5b906000526020600020906006020160040160405161081f9190612481565b60405180910390201415610b51576040518060400160405280600681526020017f666f6c64657200000000000000000000000000000000000000000000000000008152508051906020012084828154811061087657fe5b90600052602060002090600602016003016040516108949190612481565b60405180910390201415610964576109638482815481106108b157fe5b90600052602060002090600602016000018054600181600116156101000203166002900480601f0160208091040260200160405190810160405280929190818152602001828054600181600116156101000203166002900480156109565780601f1061092b57610100808354040283529160200191610956565b820191906000526020600020905b81548152906001019060200180831161093957829003601f168201915b5050505050876000610675565b5b6040518060400160405280600681526020017f666f6c6465720000000000000000000000000000000000000000000000000000815250805190602001208482815481106109ad57fe5b90600052602060002090600602016003016040516109cb9190612481565b604051809103902014610b5057610b4f8482815481106109e757fe5b90600052602060002090600602016000018054600181600116156101000203166002900480601f016020809104026020016040519081016040528092919081815260200182805460018160011615610100020316600290048015610a8c5780601f10610a6157610100808354040283529160200191610a8c565b820191906000526020600020905b815481529060010190602001808311610a6f57829003601f168201915b5050505050858381548110610a9d57fe5b90600052602060002090600602016001018054600181600116156101000203166002900480601f016020809104026020016040519081016040528092919081815260200182805460018160011615610100020316600290048015610b425780601f10610b1757610100808354040283529160200191610b42565b820191906000526020600020905b815481529060010190602001808311610b2557829003601f168201915b50505050508860006104df565b5b5b80806001019150506107b7565b505b80806001019150506106c2565b505050505050565b6060806000803373ffffffffffffffffffffffffffffffffffffffff1673ffffffffffffffffffffffffffffffffffffffff168152602001908152602001600020805480602002602001604051908101604052809291908181526020016000905b82821015610f6857838290600052602060002090600602016040518060e0016040529081600082018054600181600116156101000203166002900480601f016020809104026020016040519081016040528092919081815260200182805460018160011615610100020316600290048015610c925780601f10610c6757610100808354040283529160200191610c92565b820191906000526020600020905b815481529060010190602001808311610c7557829003601f168201915b50505050508152602001600182018054600181600116156101000203166002900480601f016020809104026020016040519081016040528092919081815260200182805460018160011615610100020316600290048015610d345780601f10610d0957610100808354040283529160200191610d34565b820191906000526020600020905b815481529060010190602001808311610d1757829003601f168201915b50505050508152602001600282018054600181600116156101000203166002900480601f016020809104026020016040519081016040528092919081815260200182805460018160011615610100020316600290048015610dd65780601f10610dab57610100808354040283529160200191610dd6565b820191906000526020600020905b815481529060010190602001808311610db957829003601f168201915b50505050508152602001600382018054600181600116156101000203166002900480601f016020809104026020016040519081016040528092919081815260200182805460018160011615610100020316600290048015610e785780601f10610e4d57610100808354040283529160200191610e78565b820191906000526020600020905b815481529060010190602001808311610e5b57829003601f168201915b50505050508152602001600482018054600181600116156101000203166002900480601f016020809104026020016040519081016040528092919081815260200182805460018160011615610100020316600290048015610f1a5780601f10610eef57610100808354040283529160200191610f1a565b820191906000526020600020905b815481529060010190602001808311610efd57829003601f168201915b505050505081526020016005820160009054906101000a900460ff161515151581526020016005820160019054906101000a900460ff16151515158152505081526020019060010190610bd6565b5050505090508091505090565b60008060003373ffffffffffffffffffffffffffffffffffffffff1673ffffffffffffffffffffffffffffffffffffffff168152602001908152602001600020905060008090505b818054905081101561108f578480519060200120828281548110610fdd57fe5b9060005260206000209060060201600001604051610ffb9190612481565b60405180910390201480156110475750838051906020012082828154811061101f57fe5b906000526020600020906006020160010160405161103d9190612481565b6040518091039020145b15611082578282828154811061105957fe5b906000526020600020906006020160050160006101000a81548160ff0219169083151502179055505b8080600101915050610fbd565b5050505050565b60008060003373ffffffffffffffffffffffffffffffffffffffff1673ffffffffffffffffffffffffffffffffffffffff1681526020019081526020016000209050600080905060008090505b82805490508110156114e857838051906020012083828154811061110357fe5b90600052602060002090600602016000016040516111219190612481565b604051809103902014156114db5780915060008090505b83805490508110156114d95783828154811061115057fe5b906000526020600020906006020160000160405161116e9190612481565b604051809103902084828154811061118257fe5b90600052602060002090600602016004016040516111a09190612481565b604051809103902014156114cc576040518060400160405280600681526020017f666f6c6465720000000000000000000000000000000000000000000000000000815250805190602001208482815481106111f757fe5b90600052602060002090600602016003016040516112159190612481565b604051809103902014156112e2576112e184828154811061123257fe5b90600052602060002090600602016000018054600181600116156101000203166002900480601f0160208091040260200160405190810160405280929190818152602001828054600181600116156101000203166002900480156112d75780601f106112ac576101008083540402835291602001916112d7565b820191906000526020600020905b8154815290600101906020018083116112ba57829003601f168201915b5050505050611096565b5b6040518060400160405280600681526020017f666f6c64657200000000000000000000000000000000000000000000000000008152508051906020012084828154811061132b57fe5b90600052602060002090600602016003016040516113499190612481565b6040518091039020146114cb576114ca84828154811061136557fe5b90600052602060002090600602016000018054600181600116156101000203166002900480601f01602080910402602001604051908101604052809291908181526020018280546001816001161561010002031660029004801561140a5780601f106113df5761010080835404028352916020019161140a565b820191906000526020600020905b8154815290600101906020018083116113ed57829003601f168201915b505050505085838154811061141b57fe5b90600052602060002090600602016001018054600181600116156101000203166002900480601f0160208091040260200160405190810160405280929190818152602001828054600181600116156101000203166002900480156114c05780601f10611495576101008083540402835291602001916114c0565b820191906000526020600020905b8154815290600101906020018083116114a357829003601f168201915b5050505050611708565b5b5b8080600101915050611138565b505b80806001019150506110e3565b5060008190505b60018380549050038110156116675782600182018154811061150d57fe5b906000526020600020906006020183828154811061152757fe5b90600052602060002090600602016000820181600001908054600181600116156101000203166002900461155c929190611d61565b5060018201816001019080546001816001161561010002031660029004611584929190611d61565b50600282018160020190805460018160011615610100020316600290046115ac929190611d61565b50600382018160030190805460018160011615610100020316600290046115d4929190611d61565b50600482018160040190805460018160011615610100020316600290046115fc929190611d61565b506005820160009054906101000a900460ff168160050160006101000a81548160ff0219169083151502179055506005820160019054906101000a900460ff168160050160016101000a81548160ff02191690831515021790555090505080806001019150506114ef565b508180548061167257fe5b6001900381819060005260206000209060060201600080820160006116979190611de8565b6001820160006116a79190611de8565b6002820160006116b79190611de8565b6003820160006116c79190611de8565b6004820160006116d79190611de8565b6005820160006101000a81549060ff02191690556005820160016101000a81549060ff021916905550509055505050565b60008060003373ffffffffffffffffffffffffffffffffffffffff1673ffffffffffffffffffffffffffffffffffffffff1681526020019081526020016000209050600080905060008090505b82805490508110156117f557848051906020012083828154811061177557fe5b90600052602060002090600602016000016040516117939190612481565b60405180910390201480156117df575083805190602001208382815481106117b757fe5b90600052602060002090600602016001016040516117d59190612481565b6040518091039020145b156117e8578091505b8080600101915050611755565b5060008190505b60018380549050038110156119745782600182018154811061181a57fe5b906000526020600020906006020183828154811061183457fe5b906000526020600020906006020160008201816000019080546001816001161561010002031660029004611869929190611d61565b5060018201816001019080546001816001161561010002031660029004611891929190611d61565b50600282018160020190805460018160011615610100020316600290046118b9929190611d61565b50600382018160030190805460018160011615610100020316600290046118e1929190611d61565b5060048201816004019080546001816001161561010002031660029004611909929190611d61565b506005820160009054906101000a900460ff168160050160006101000a81548160ff0219169083151502179055506005820160019054906101000a900460ff168160050160016101000a81548160ff02191690831515021790555090505080806001019150506117fc565b508180548061197f57fe5b6001900381819060005260206000209060060201600080820160006119a49190611de8565b6001820160006119b49190611de8565b6002820160006119c49190611de8565b6003820160006119d49190611de8565b6004820160006119e49190611de8565b6005820160006101000a81549060ff02191690556005820160016101000a81549060ff02191690555050905550505050565b60008060003373ffffffffffffffffffffffffffffffffffffffff1673ffffffffffffffffffffffffffffffffffffffff168152602001908152602001600020905060008090505b8180549050811015611b2d578480519060200120828281548110611a7e57fe5b9060005260206000209060060201600001604051611a9c9190612481565b6040518091039020148015611ae857508380519060200120828281548110611ac057fe5b9060005260206000209060060201600101604051611ade9190612481565b6040518091039020145b15611b205782828281548110611afa57fe5b90600052602060002090600602016001019080519060200190611b1e929190611ce1565b505b8080600101915050611a5e565b5050505050565b60606000821415611b7c576040518060400160405280600181526020017f30000000000000000000000000000000000000000000000000000000000000008152509050611c5c565b600082905060005b60008214611ba6578080600101915050600a8281611b9e57fe5b049150611b84565b6060816040519080825280601f01601f191660200182016040528015611bdb5781602001600182028038833980820191505090505b50905060006001830390505b60008614611c5457600a8681611bf957fe5b0660300160f81b82828060019003935081518110611c1357fe5b60200101907effffffffffffffffffffffffffffffffffffffffffffffffffffffffffffff1916908160001a905350600a8681611c4c57fe5b049550611be7565b819450505050505b919050565b828054600181600116156101000203166002900490600052602060002090601f016020900481019282601f10611ca257805160ff1916838001178555611cd0565b82800160010185558215611cd0579182015b82811115611ccf578251825591602001919060010190611cb4565b5b509050611cdd9190611e30565b5090565b828054600181600116156101000203166002900490600052602060002090601f016020900481019282601f10611d2257805160ff1916838001178555611d50565b82800160010185558215611d50579182015b82811115611d4f578251825591602001919060010190611d34565b5b509050611d5d9190611e30565b5090565b828054600181600116156101000203166002900490600052602060002090601f016020900481019282601f10611d9a5780548555611dd7565b82800160010185558215611dd757600052602060002091601f016020900482015b82811115611dd6578254825591600101919060010190611dbb565b5b509050611de49190611e30565b5090565b50805460018160011615610100020316600290046000825580601f10611e0e5750611e2d565b601f016020900490600052602060002090810190611e2c9190611e30565b5b50565b611e5291905b80821115611e4e576000816000905550600101611e36565b5090565b90565b600081359050611e64816125e7565b92915050565b600082601f830112611e7b57600080fd5b8135611e8e611e89826124e7565b6124ba565b91508082526020830160208301858383011115611eaa57600080fd5b611eb5838284612594565b50505092915050565b600060208284031215611ed057600080fd5b600082013567ffffffffffffffff811115611eea57600080fd5b611ef684828501611e6a565b91505092915050565b600080600060608486031215611f1457600080fd5b600084013567ffffffffffffffff811115611f2e57600080fd5b611f3a86828701611e6a565b9350506020611f4b86828701611e55565b9250506040611f5c86828701611e55565b9150509250925092565b60008060408385031215611f7957600080fd5b600083013567ffffffffffffffff811115611f9357600080fd5b611f9f85828601611e6a565b925050602083013567ffffffffffffffff811115611fbc57600080fd5b611fc885828601611e6a565b9150509250929050565b600080600060608486031215611fe757600080fd5b600084013567ffffffffffffffff81111561200157600080fd5b61200d86828701611e6a565b935050602084013567ffffffffffffffff81111561202a57600080fd5b61203686828701611e6a565b925050604061204786828701611e55565b9150509250925092565b6000806000806080858703121561206757600080fd5b600085013567ffffffffffffffff81111561208157600080fd5b61208d87828801611e6a565b945050602085013567ffffffffffffffff8111156120aa57600080fd5b6120b687828801611e6a565b93505060406120c787828801611e55565b92505060606120d887828801611e55565b91505092959194509250565b6000806000606084860312156120f957600080fd5b600084013567ffffffffffffffff81111561211357600080fd5b61211f86828701611e6a565b935050602084013567ffffffffffffffff81111561213c57600080fd5b61214886828701611e6a565b925050604084013567ffffffffffffffff81111561216557600080fd5b61217186828701611e6a565b9150509250925092565b600080600080600060a0868803121561219357600080fd5b600086013567ffffffffffffffff8111156121ad57600080fd5b6121b988828901611e6a565b955050602086013567ffffffffffffffff8111156121d657600080fd5b6121e288828901611e6a565b945050604086013567ffffffffffffffff8111156121ff57600080fd5b61220b88828901611e6a565b935050606086013567ffffffffffffffff81111561222857600080fd5b61223488828901611e6a565b925050608086013567ffffffffffffffff81111561225157600080fd5b61225d88828901611e6a565b9150509295509295909350565b600061227683836123c9565b905092915050565b600061228982612538565b612293818561255b565b9350836020820285016122a585612513565b8060005b858110156122e157848403895281516122c2858261226a565b94506122cd8361254e565b925060208a019950506001810190506122a9565b50829750879550505050505092915050565b6122fc81612588565b82525050565b60008154600181166000811461231f576001811461234457612388565b607f6002830416612330818761256c565b955060ff1983168652808601935050612388565b60028204612352818761256c565b955061235d85612523565b60005b8281101561237f57815481890152600182019150602081019050612360565b82880195505050505b505092915050565b600061239b82612543565b6123a58185612577565b93506123b58185602086016125a3565b6123be816125d6565b840191505092915050565b600060e08301600083015184820360008601526123e68282612390565b915050602083015184820360208601526124008282612390565b9150506040830151848203604086015261241a8282612390565b915050606083015184820360608601526124348282612390565b9150506080830151848203608086015261244e8282612390565b91505060a083015161246360a08601826122f3565b5060c083015161247660c08601826122f3565b508091505092915050565b600061248d8284612302565b915081905092915050565b600060208201905081810360008301526124b2818461227e565b905092915050565b6000604051905081810181811067ffffffffffffffff821117156124dd57600080fd5b8060405250919050565b600067ffffffffffffffff8211156124fe57600080fd5b601f19601f8301169050602081019050919050565b6000819050602082019050919050565b60008190508160005260206000209050919050565b600081519050919050565b600081519050919050565b6000602082019050919050565b600082825260208201905092915050565b600081905092915050565b600082825260208201905092915050565b60008115159050919050565b82818337600083830152505050565b60005b838110156125c15780820151818401526020810190506125a6565b838111156125d0576000848401525b50505050565b6000601f19601f8301169050919050565b6125f081612588565b81146125fb57600080fd5b5056fea365627a7a723158209dc511bf844084d5456259aebe6bd97d56752e4eef9b093f68fcbec68f9dde656c6578706572696d656e74616cf564736f6c63430005100040",
  "source": "pragma solidity >=0.4.21 <0.7.0;\npragma experimental ABIEncoderV2;\n\n/*\n * Contract for storing and retrieve file details uploaded to the IPFS\n * P2P network. This is made thanks to a \"mapping\" data structure, which allows\n * storing all file's information. More information through the source\n * code below.\n */\ncontract FileDetailsManager {\n\n    /*\n     * Structure for files' details and folders' details.\n    */\n    struct FileDetails {\n        string uniqueId; // If isFolder==true -> unique id of the folder, otherwise it's IPFS fileHash.\n        string name; // name of the folder or of the file.\n        string transactionDate; // The date in which file infos was stored.\n        string fileType; // \"folder\" if folder, the extension of the file otherwise.\n        string parentFolderId;\n        bool isFavorite;\n        bool isTrash;\n    }\n\n    /*\n     * Mapping file details with users account address\n    */\n    mapping(address => FileDetails[]) filesList;\n    uint folderId = 0;\n    /* \n     * When calling this function, the file's information are mapped to address \n     * of the user.\n    */\n    function addFile(string memory uniqueId, string memory name, string memory fileType, string memory date, string memory parentFolderId) public {\n        filesList[msg.sender].push(FileDetails({\n                uniqueId: uniqueId,\n                name: name,\n                fileType: fileType,\n                transactionDate: date,\n                parentFolderId: parentFolderId,\n                isFavorite: false,\n                isTrash: false\n            }));\n    }\n\n    /* \n     * When calling this function, the folder's information are mapped to address \n     * of the user.\n    */\n    function addFolder(string memory name, string memory date, string memory parentFolderId) public {\n        filesList[msg.sender].push(FileDetails({\n                uniqueId: uint2str(folderId),\n                name: name,\n                fileType: \"folder\",\n                transactionDate: date,\n                parentFolderId: parentFolderId,\n                isFavorite: false,\n                isTrash: false\n            }));\n        folderId++;\n    }\n\n    function deleteFile(string memory uniqueId, string memory name) public {\n        FileDetails[] storage filesDetails = filesList[msg.sender];\n        uint index = 0;\n        for(uint i = 0; i < filesDetails.length; i++){\n            if(keccak256(bytes(filesDetails[i].uniqueId)) == keccak256(bytes(uniqueId)) \n            && keccak256(bytes(filesDetails[i].name)) == keccak256(bytes(name))) {\n                index = i;\n            }\n        }\n\n        for (uint i = index; i < filesDetails.length-1; i++){\n            filesDetails[i] = filesDetails[i+1];\n        }\n        filesDetails.pop();\n    }\n\n    function deleteFolder(string memory uniqueId) public {\n        FileDetails[] storage filesDetails = filesList[msg.sender];\n        uint index = 0;\n        for(uint i = 0; i < filesDetails.length; i++){\n\n            if(keccak256(bytes(filesDetails[i].uniqueId)) == keccak256(bytes(uniqueId))){\n                index = i;\n                for(uint j = 0; j < filesDetails.length; j++){\n                    \n                    if( keccak256(bytes(filesDetails[j].parentFolderId)) == keccak256(bytes(filesDetails[i].uniqueId)) ){\n                        if( keccak256(bytes(filesDetails[j].fileType)) == keccak256(bytes(\"folder\")) ){\n                            deleteFolder(filesDetails[j].uniqueId);\n                        }   \n                        if( keccak256(bytes(filesDetails[j].fileType)) != keccak256(bytes(\"folder\")) ){\n                            deleteFile(filesDetails[j].uniqueId, filesDetails[j].name);\n                        }\n                    }\n                } \n            }\n        }\n\n        for (uint i = index; i < filesDetails.length-1; i++){\n            filesDetails[i] = filesDetails[i+1];\n        }\n        filesDetails.pop();\n    }\n\n    /* \n     * TODO: description of returned values\n    */\n    \n    function getFiles() public view returns (FileDetails[] memory) {\n        FileDetails[] memory fileToBeRetrieved = filesList[msg.sender];\n        return (fileToBeRetrieved);\n    }\n\n    /*\n     * \n    */\n    function renameFileName(string memory uniqueId, string memory name, string memory newName) public{\n        FileDetails[] storage filesDetails = filesList[msg.sender];\n        for(uint i = 0; i < filesDetails.length; i++){\n            if(keccak256(bytes(filesDetails[i].uniqueId)) == keccak256(bytes(uniqueId)) && keccak256(bytes(filesDetails[i].name)) == keccak256(bytes(name))) filesDetails[i].name = newName;\n        }\n    }\n\n\n    /*\n     *\n    */\n    function setFavorite(string memory uniqueId, string memory name, bool  isFavorite) public{\n        FileDetails[] storage filesDetails = filesList[msg.sender];\n        for(uint i = 0; i < filesDetails.length; i++){\n            if(keccak256(bytes(filesDetails[i].uniqueId)) == keccak256(bytes(uniqueId)) && keccak256(bytes(filesDetails[i].name)) == keccak256(bytes(name))) filesDetails[i].isFavorite = isFavorite;\n        }\n    }\n\n    function uint2str(uint i) internal pure returns (string memory uintAsString) {\n        if (i == 0) {\n            return \"0\";\n        }\n        uint j = i;\n        uint len;\n        while (j != 0) {\n            len++;\n            j /= 10;\n        }\n        bytes memory bstr = new bytes(len);\n        uint k = len - 1;\n        while (i != 0) {\n            bstr[k--] = byte(uint8(48 + i % 10));\n            i /= 10;\n        }\n        return string(bstr);\n    }\n\n    function setTrashFile(string memory uniqueId, string memory name, bool isTrash, bool isSingleDelete) public {\n        FileDetails[] storage filesDetails = filesList[msg.sender];\n        uint index = 0;\n        for(uint i = 0; i < filesDetails.length; i++){\n            if(keccak256(bytes(filesDetails[i].uniqueId)) == keccak256(bytes(uniqueId)) \n            && keccak256(bytes(filesDetails[i].name)) == keccak256(bytes(name))) {\n                filesDetails[i].isTrash = isTrash;\n                if(isSingleDelete) {\n                    filesDetails[i].parentFolderId = \"/\";\n                }\n            }\n        }\n    }\n\n    function setTrashFolder(string memory uniqueId, bool isTrash, bool isSingleDelete) public {\n        FileDetails[] storage filesDetails = filesList[msg.sender];\n        uint index = 0;\n        for(uint i = 0; i < filesDetails.length; i++){\n\n            if(keccak256(bytes(filesDetails[i].uniqueId)) == keccak256(bytes(uniqueId))){\n                filesDetails[i].isTrash = isTrash;\n                if(isSingleDelete) {\n                    filesDetails[i].parentFolderId = \"/\";\n                }\n                for(uint j = 0; j < filesDetails.length; j++){\n                    \n                    if( keccak256(bytes(filesDetails[j].parentFolderId)) == keccak256(bytes(filesDetails[i].uniqueId)) ){\n                        if( keccak256(bytes(filesDetails[j].fileType)) == keccak256(bytes(\"folder\")) ){\n                            setTrashFolder(filesDetails[j].uniqueId, isTrash, false);\n                        }   \n                        if( keccak256(bytes(filesDetails[j].fileType)) != keccak256(bytes(\"folder\")) ){\n                            setTrashFile(filesDetails[j].uniqueId, filesDetails[j].name, isTrash, false);\n                        }\n                    }\n                } \n            }\n        }      \n    }\n}",
  "sourcePath": "/Users/filippo/Workspace/Cloudest/clouest_client/contracts/FileDetailsManager.sol",
  "compiler": {
    "name": "solc",
    "version": "0.5.16+commit.9c3226ce.Emscripten.clang"
  },
  "schemaVersion": "3.3.3",
  "updatedAt": "2021-03-07T22:24:51.184Z",
  "networkType": "ethereum",
  "devdoc": {
    "methods": {}
  },
  "userdoc": {
    "methods": {}
  }
}