{
  "contractName": "FileDetailsManager",
  "abi": [
    {
      "constant": false,
      "inputs": [
        {
          "internalType": "string",
          "name": "fileHash",
          "type": "string"
        },
        {
          "internalType": "string",
          "name": "fileName",
          "type": "string"
        },
        {
          "internalType": "string",
          "name": "fileType",
          "type": "string"
        },
        {
          "internalType": "string",
          "name": "date",
          "type": "string"
        }
      ],
      "name": "addFile",
      "outputs": [],
      "payable": false,
      "stateMutability": "nonpayable",
      "type": "function"
    },
    {
      "constant": true,
      "inputs": [],
      "name": "getFiles",
      "outputs": [
        {
          "components": [
            {
              "internalType": "string",
              "name": "fileHash",
              "type": "string"
            },
            {
              "internalType": "string",
              "name": "fileName",
              "type": "string"
            },
            {
              "internalType": "string",
              "name": "transactionDate",
              "type": "string"
            },
            {
              "internalType": "string",
              "name": "fileExtension",
              "type": "string"
            }
          ],
          "internalType": "struct FileDetailsManager.FileDetails[]",
          "name": "",
          "type": "tuple[]"
        }
      ],
      "payable": false,
      "stateMutability": "view",
      "type": "function"
    }
  ],
  "bytecode": "0x608060405234801561001057600080fd5b50610900806100206000396000f3fe608060405234801561001057600080fd5b50600436106100365760003560e01c80632da96d731461003b5780635f067db014610059575b600080fd5b610043610075565b604051610050919061079a565b60405180910390f35b610073600480360361006e919081019061059d565b61039d565b005b6060806000803373ffffffffffffffffffffffffffffffffffffffff1673ffffffffffffffffffffffffffffffffffffffff168152602001908152602001600020805480602002602001604051908101604052809291908181526020016000905b828210156103905783829060005260206000209060040201604051806080016040529081600082018054600181600116156101000203166002900480601f0160208091040260200160405190810160405280929190818152602001828054600181600116156101000203166002900480156101925780601f1061016757610100808354040283529160200191610192565b820191906000526020600020905b81548152906001019060200180831161017557829003601f168201915b50505050508152602001600182018054600181600116156101000203166002900480601f0160208091040260200160405190810160405280929190818152602001828054600181600116156101000203166002900480156102345780601f1061020957610100808354040283529160200191610234565b820191906000526020600020905b81548152906001019060200180831161021757829003601f168201915b50505050508152602001600282018054600181600116156101000203166002900480601f0160208091040260200160405190810160405280929190818152602001828054600181600116156101000203166002900480156102d65780601f106102ab576101008083540402835291602001916102d6565b820191906000526020600020905b8154815290600101906020018083116102b957829003601f168201915b50505050508152602001600382018054600181600116156101000203166002900480601f0160208091040260200160405190810160405280929190818152602001828054600181600116156101000203166002900480156103785780601f1061034d57610100808354040283529160200191610378565b820191906000526020600020905b81548152906001019060200180831161035b57829003601f168201915b505050505081525050815260200190600101906100d6565b5050505090508091505090565b6000803373ffffffffffffffffffffffffffffffffffffffff1673ffffffffffffffffffffffffffffffffffffffff1681526020019081526020016000206040518060800160405280868152602001858152602001838152602001848152509080600181540180825580915050906001820390600052602060002090600402016000909192909190915060008201518160000190805190602001906104439291906104a4565b5060208201518160010190805190602001906104609291906104a4565b50604082015181600201908051906020019061047d9291906104a4565b50606082015181600301908051906020019061049a9291906104a4565b5050505050505050565b828054600181600116156101000203166002900490600052602060002090601f016020900481019282601f106104e557805160ff1916838001178555610513565b82800160010185558215610513579182015b828111156105125782518255916020019190600101906104f7565b5b5090506105209190610524565b5090565b61054691905b8082111561054257600081600090555060010161052a565b5090565b90565b600082601f83011261055a57600080fd5b813561056d610568826107e9565b6107bc565b9150808252602083016020830185838301111561058957600080fd5b61059483828461086a565b50505092915050565b600080600080608085870312156105b357600080fd5b600085013567ffffffffffffffff8111156105cd57600080fd5b6105d987828801610549565b945050602085013567ffffffffffffffff8111156105f657600080fd5b61060287828801610549565b935050604085013567ffffffffffffffff81111561061f57600080fd5b61062b87828801610549565b925050606085013567ffffffffffffffff81111561064857600080fd5b61065487828801610549565b91505092959194509250565b600061066c8383610722565b905092915050565b600061067f82610825565b6106898185610848565b93508360208202850161069b85610815565b8060005b858110156106d757848403895281516106b88582610660565b94506106c38361083b565b925060208a0199505060018101905061069f565b50829750879550505050505092915050565b60006106f482610830565b6106fe8185610859565b935061070e818560208601610879565b610717816108ac565b840191505092915050565b6000608083016000830151848203600086015261073f82826106e9565b9150506020830151848203602086015261075982826106e9565b9150506040830151848203604086015261077382826106e9565b9150506060830151848203606086015261078d82826106e9565b9150508091505092915050565b600060208201905081810360008301526107b48184610674565b905092915050565b6000604051905081810181811067ffffffffffffffff821117156107df57600080fd5b8060405250919050565b600067ffffffffffffffff82111561080057600080fd5b601f19601f8301169050602081019050919050565b6000819050602082019050919050565b600081519050919050565b600081519050919050565b6000602082019050919050565b600082825260208201905092915050565b600082825260208201905092915050565b82818337600083830152505050565b60005b8381101561089757808201518184015260208101905061087c565b838111156108a6576000848401525b50505050565b6000601f19601f830116905091905056fea365627a7a72315820d0917b82ba3073ccb91bc722b4ecd76f6f94add81eb262e195deaf7810a817496c6578706572696d656e74616cf564736f6c63430005100040",
  "source": "pragma solidity >=0.4.21 <0.7.0;\npragma experimental ABIEncoderV2;\n\n/*\n * Contract for storing and retrieve file details uploaded to the IPFS\n * P2P network. This is made thanks to a \"mapping\" data structure, which allows\n * storing all file's information. More information through the source\n * code below.\n */\ncontract FileDetailsManager {\n\n    /*\n     * Structure for file's details.\n    */\n    struct FileDetails {\n        string fileHash; // The IPFS file hash\n        string fileName; // The file name\n        string transactionDate; // The date in which file infos was stored\n        string fileExtension; // The type of file (its extension)\n    }\n\n    /*\n     * Mapping file details with users account address\n    */\n    mapping(address => FileDetails[]) filesList;\n\n    /* \n     * When calling this function, the file's information are mapped to address \n     * of the user.\n    */\n    function addFile(string memory fileHash, string memory fileName, string memory fileType, string memory date) public {\n        filesList[msg.sender].push(FileDetails({\n                fileHash: fileHash,\n                fileName: fileName,\n                fileExtension: fileType,\n                transactionDate: date\n            }));\n    }\n\n    /* \n     * TODO: description of returned values\n    */\n    \n    function getFiles() public view returns (FileDetails[] memory) {\n        FileDetails[] memory fileToBeRetrieved = filesList[msg.sender];\n        return (fileToBeRetrieved);\n    }\n}\n",
  "sourcePath": "/Users/lucapastori/Desktop/cloudest/clouest_client/contracts/FileDetailsManager.sol",
  "compiler": {
    "name": "solc",
    "version": "0.5.16+commit.9c3226ce.Emscripten.clang"
  },
  "schemaVersion": "3.3.3",
  "updatedAt": "2021-02-28T20:31:15.278Z",
  "networkType": "ethereum",
  "devdoc": {
    "methods": {}
  },
  "userdoc": {
    "methods": {}
  }
}