{
  "contractName": "FileDetailsManager",
  "abi": [
    {
      "constant": false,
      "inputs": [
        {
          "internalType": "string",
          "name": "fileHash",
          "type": "string"
        },
        {
          "internalType": "string",
          "name": "fileName",
          "type": "string"
        },
        {
          "internalType": "string",
          "name": "fileType",
          "type": "string"
        },
        {
          "internalType": "string",
          "name": "date",
          "type": "string"
        }
      ],
      "name": "addFile",
      "outputs": [],
      "payable": false,
      "stateMutability": "nonpayable",
      "type": "function"
    }
  ],
  "bytecode": "0x608060405234801561001057600080fd5b50610466806100206000396000f3fe608060405234801561001057600080fd5b506004361061002b5760003560e01c80635f067db014610030575b600080fd5b6102ae6004803603608081101561004657600080fd5b810190808035906020019064010000000081111561006357600080fd5b82018360208201111561007557600080fd5b8035906020019184600183028401116401000000008311171561009757600080fd5b91908080601f016020809104026020016040519081016040528093929190818152602001838380828437600081840152601f19601f820116905080830192505050505050509192919290803590602001906401000000008111156100fa57600080fd5b82018360208201111561010c57600080fd5b8035906020019184600183028401116401000000008311171561012e57600080fd5b91908080601f016020809104026020016040519081016040528093929190818152602001838380828437600081840152601f19601f8201169050808301925050505050505091929192908035906020019064010000000081111561019157600080fd5b8201836020820111156101a357600080fd5b803590602001918460018302840111640100000000831117156101c557600080fd5b91908080601f016020809104026020016040519081016040528093929190818152602001838380828437600081840152601f19601f8201169050808301925050505050505091929192908035906020019064010000000081111561022857600080fd5b82018360208201111561023a57600080fd5b8035906020019184600183028401116401000000008311171561025c57600080fd5b91908080601f016020809104026020016040519081016040528093929190818152602001838380828437600081840152601f19601f8201169050808301925050505050505091929192905050506102b0565b005b6040518060800160405280858152602001848152602001828152602001838152506000803373ffffffffffffffffffffffffffffffffffffffff1673ffffffffffffffffffffffffffffffffffffffff168152602001908152602001600020600082015181600001908051906020019061032b92919061038c565b50602082015181600101908051906020019061034892919061038c565b50604082015181600201908051906020019061036592919061038c565b50606082015181600301908051906020019061038292919061038c565b5090505050505050565b828054600181600116156101000203166002900490600052602060002090601f016020900481019282601f106103cd57805160ff19168380011785556103fb565b828001600101855582156103fb579182015b828111156103fa5782518255916020019190600101906103df565b5b509050610408919061040c565b5090565b61042e91905b8082111561042a576000816000905550600101610412565b5090565b9056fea265627a7a72315820fc664e47297a7c249b92b8780cba04ce836f59537f55df635af0e5e821b1933064736f6c63430005100032",
  "source": "pragma solidity >=0.4.21 <0.7.0;\n\n/*\n * Contract for storing and retrieve file details uploaded to the IPFS\n * P2P network. This is made thanks to a \"mapping\" data structure, which allows\n * storing all file's information. More information through the source\n * code below.\n */\ncontract FileDetailsManager {\n\n    /*\n     * Structure for file's details.\n    */\n    struct FileDetails {\n        string fileHash; // The IPFS file hash\n        string fileName; // The file name\n        string transactionDate; // The date in which file infos was stored\n        string fileExtension; // The type of file (its extension)\n    }\n\n    /*\n     * Mapping file details with users account address\n    */\n    mapping(address => FileDetails) filesList;\n\n    /* \n     * When calling this function, the file's information are mapped to address \n     * of the user.\n    */\n    function addFile(string memory fileHash, string memory fileName, string memory fileType, string memory date) public {\n        filesList[msg.sender] = FileDetails({\n                fileHash: fileHash,\n                fileName: fileName,\n                fileExtension: fileType,\n                transactionDate: date\n            });\n    }\n\n    /* \n     * TODO: description of returned values\n    */\n    /*\n    function getFiles(uint256 position) public view returns (string memory, string memory, string memory, string memory) {\n        FileDetails memory fileToBeRetrieved = filesList[msg.sender][position];\n        return (\n            fileToBeRetrieved.fileHash,\n            fileToBeRetrieved.fileName,\n            fileToBeRetrieved.fileExtension,\n            fileToBeRetrieved.transactionDate\n        );\n    }*/\n}\n",
  "sourcePath": "/Users/filippo/Workspace/Cloudest/clouest_client/contracts/FileDetailsManager.sol",
  "compiler": {
    "name": "solc",
    "version": "0.5.16+commit.9c3226ce.Emscripten.clang"
  },
  "schemaVersion": "3.3.3",
  "updatedAt": "2021-02-23T17:56:23.722Z",
  "devdoc": {
    "methods": {}
  },
  "userdoc": {
    "methods": {}
  }
}