{
  "contractName": "FileDetailsManager",
  "abi": [
    {
      "constant": false,
      "inputs": [
        {
          "internalType": "string",
          "name": "uniqueId",
          "type": "string"
        },
        {
          "internalType": "string",
          "name": "name",
          "type": "string"
        },
        {
          "internalType": "string",
          "name": "fileType",
          "type": "string"
        },
        {
          "internalType": "string",
          "name": "date",
          "type": "string"
        },
        {
          "internalType": "string",
          "name": "parentFolderId",
          "type": "string"
        }
      ],
      "name": "addFile",
      "outputs": [],
      "payable": false,
      "stateMutability": "nonpayable",
      "type": "function"
    },
    {
      "constant": false,
      "inputs": [
        {
          "internalType": "string",
          "name": "name",
          "type": "string"
        },
        {
          "internalType": "string",
          "name": "date",
          "type": "string"
        },
        {
          "internalType": "string",
          "name": "parentFolderId",
          "type": "string"
        }
      ],
      "name": "addFolder",
      "outputs": [],
      "payable": false,
      "stateMutability": "nonpayable",
      "type": "function"
    },
    {
      "constant": false,
      "inputs": [
        {
          "internalType": "string",
          "name": "uniqueId",
          "type": "string"
        },
        {
          "internalType": "string",
          "name": "name",
          "type": "string"
        }
      ],
      "name": "deleteFile",
      "outputs": [],
      "payable": false,
      "stateMutability": "nonpayable",
      "type": "function"
    },
    {
      "constant": false,
      "inputs": [
        {
          "internalType": "string",
          "name": "uniqueId",
          "type": "string"
        }
      ],
      "name": "deleteFolder",
      "outputs": [],
      "payable": false,
      "stateMutability": "nonpayable",
      "type": "function"
    },
    {
      "constant": true,
      "inputs": [],
      "name": "getFiles",
      "outputs": [
        {
          "components": [
            {
              "internalType": "string",
              "name": "uniqueId",
              "type": "string"
            },
            {
              "internalType": "string",
              "name": "name",
              "type": "string"
            },
            {
              "internalType": "string",
              "name": "transactionDate",
              "type": "string"
            },
            {
              "internalType": "string",
              "name": "fileType",
              "type": "string"
            },
            {
              "internalType": "string",
              "name": "parentFolderId",
              "type": "string"
            },
            {
              "internalType": "bool",
              "name": "isFavorite",
              "type": "bool"
            },
            {
              "internalType": "bool",
              "name": "isTrash",
              "type": "bool"
            }
          ],
          "internalType": "struct FileDetailsManager.FileDetails[]",
          "name": "",
          "type": "tuple[]"
        }
      ],
      "payable": false,
      "stateMutability": "view",
      "type": "function"
    },
    {
      "constant": false,
      "inputs": [
        {
          "internalType": "string",
          "name": "uniqueId",
          "type": "string"
        },
        {
          "internalType": "string",
          "name": "name",
          "type": "string"
        },
        {
          "internalType": "string",
          "name": "newName",
          "type": "string"
        }
      ],
      "name": "renameFileName",
      "outputs": [],
      "payable": false,
      "stateMutability": "nonpayable",
      "type": "function"
    },
    {
      "constant": false,
      "inputs": [
        {
          "internalType": "string",
          "name": "uniqueId",
          "type": "string"
        },
        {
          "internalType": "string",
          "name": "name",
          "type": "string"
        },
        {
          "internalType": "bool",
          "name": "isFavorite",
          "type": "bool"
        }
      ],
      "name": "setFavorite",
      "outputs": [],
      "payable": false,
      "stateMutability": "nonpayable",
      "type": "function"
    },
    {
      "constant": false,
      "inputs": [
        {
          "internalType": "string",
          "name": "uniqueId",
          "type": "string"
        },
        {
          "internalType": "string",
          "name": "name",
          "type": "string"
        },
        {
          "internalType": "bool",
          "name": "isTrash",
          "type": "bool"
        },
        {
          "internalType": "bool",
          "name": "isSingleDelete",
          "type": "bool"
        }
      ],
      "name": "setTrashFile",
      "outputs": [],
      "payable": false,
      "stateMutability": "nonpayable",
      "type": "function"
    },
    {
      "constant": false,
      "inputs": [
        {
          "internalType": "string",
          "name": "uniqueId",
          "type": "string"
        },
        {
          "internalType": "bool",
          "name": "isTrash",
          "type": "bool"
        },
        {
          "internalType": "bool",
          "name": "isSingleDelete",
          "type": "bool"
        }
      ],
      "name": "setTrashFolder",
      "outputs": [],
      "payable": false,
      "stateMutability": "nonpayable",
      "type": "function"
    }
  ],
  "bytecode": "0x6080604052600060015534801561001557600080fd5b50612635806100256000396000f3fe608060405234801561001057600080fd5b50600436106100935760003560e01c80632da96d73116100665780632da96d7314610108578063b17b225614610126578063d279d9d614610142578063d34a87081461015e578063fc99832d1461017a57610093565b80630a7fac441461009857806316cec2f4146100b45780631e25ff87146100d057806329e39cfb146100ec575b600080fd5b6100b260048036036100ad919081019061216f565b610196565b005b6100ce60048036036100c991908101906120d8565b610313565b005b6100ea60048036036100e59190810190612045565b6104df565b005b61010660048036036101019190810190611ef3565b61066f565b005b610110610b69565b60405161011d919061248c565b60405180910390f35b610140600480360361013b9190810190611fc6565b610f69565b005b61015c60048036036101579190810190611eb2565b61108a565b005b61017860048036036101739190810190611f5a565b6116fc565b005b610194600480360361018f91908101906120d8565b611a0a565b005b6000803373ffffffffffffffffffffffffffffffffffffffff1673ffffffffffffffffffffffffffffffffffffffff1681526020019081526020016000206040518060e0016040528087815260200186815260200184815260200185815260200183815260200160001515815260200160001515815250908060018154018082558091505090600182039060005260206000209060060201600090919290919091506000820151816000019080519060200190610254929190611c55565b506020820151816001019080519060200190610271929190611c55565b50604082015181600201908051906020019061028e929190611c55565b5060608201518160030190805190602001906102ab929190611c55565b5060808201518160040190805190602001906102c8929190611c55565b5060a08201518160050160006101000a81548160ff02191690831515021790555060c08201518160050160016101000a81548160ff0219169083151502179055505050505050505050565b6000803373ffffffffffffffffffffffffffffffffffffffff1673ffffffffffffffffffffffffffffffffffffffff1681526020019081526020016000206040518060e00160405280610367600154611b28565b81526020018581526020018481526020016040518060400160405280600681526020017f666f6c6465720000000000000000000000000000000000000000000000000000815250815260200183815260200160001515815260200160001515815250908060018154018082558091505090600182039060005260206000209060060201600090919290919091506000820151816000019080519060200190610410929190611c55565b50602082015181600101908051906020019061042d929190611c55565b50604082015181600201908051906020019061044a929190611c55565b506060820151816003019080519060200190610467929190611c55565b506080820151816004019080519060200190610484929190611c55565b5060a08201518160050160006101000a81548160ff02191690831515021790555060c08201518160050160016101000a81548160ff021916908315150217905550505050600160008154809291906001019190505550505050565b60008060003373ffffffffffffffffffffffffffffffffffffffff1673ffffffffffffffffffffffffffffffffffffffff168152602001908152602001600020905060008090505b818054905081101561066757858051906020012082828154811061054757fe5b90600052602060002090600602016000016040516105659190612475565b60405180910390201480156105b15750848051906020012082828154811061058957fe5b90600052602060002090600602016001016040516105a79190612475565b6040518091039020145b1561065a57838282815481106105c357fe5b906000526020600020906006020160050160016101000a81548160ff0219169083151502179055508215610659576040518060400160405280600181526020017f2f0000000000000000000000000000000000000000000000000000000000000081525082828154811061063357fe5b90600052602060002090600602016004019080519060200190610657929190611cd5565b505b5b8080600101915050610527565b505050505050565b60008060003373ffffffffffffffffffffffffffffffffffffffff1673ffffffffffffffffffffffffffffffffffffffff168152602001908152602001600020905060008090505b8180549050811015610b625784805190602001208282815481106106d757fe5b90600052602060002090600602016000016040516106f59190612475565b60405180910390201415610b55578382828154811061071057fe5b906000526020600020906006020160050160016101000a81548160ff02191690831515021790555082156107a6576040518060400160405280600181526020017f2f0000000000000000000000000000000000000000000000000000000000000081525082828154811061078057fe5b906000526020600020906006020160040190805190602001906107a4929190611cd5565b505b60008090505b8280549050811015610b53578282815481106107c457fe5b90600052602060002090600602016000016040516107e29190612475565b60405180910390208382815481106107f657fe5b90600052602060002090600602016004016040516108149190612475565b60405180910390201415610b46576040518060400160405280600681526020017f666f6c64657200000000000000000000000000000000000000000000000000008152508051906020012083828154811061086b57fe5b90600052602060002090600602016003016040516108899190612475565b60405180910390201415610959576109588382815481106108a657fe5b90600052602060002090600602016000018054600181600116156101000203166002900480601f01602080910402602001604051908101604052809291908181526020018280546001816001161561010002031660029004801561094b5780601f106109205761010080835404028352916020019161094b565b820191906000526020600020905b81548152906001019060200180831161092e57829003601f168201915b505050505086600061066f565b5b6040518060400160405280600681526020017f666f6c6465720000000000000000000000000000000000000000000000000000815250805190602001208382815481106109a257fe5b90600052602060002090600602016003016040516109c09190612475565b604051809103902014610b4557610b448382815481106109dc57fe5b90600052602060002090600602016000018054600181600116156101000203166002900480601f016020809104026020016040519081016040528092919081815260200182805460018160011615610100020316600290048015610a815780601f10610a5657610100808354040283529160200191610a81565b820191906000526020600020905b815481529060010190602001808311610a6457829003601f168201915b5050505050848381548110610a9257fe5b90600052602060002090600602016001018054600181600116156101000203166002900480601f016020809104026020016040519081016040528092919081815260200182805460018160011615610100020316600290048015610b375780601f10610b0c57610100808354040283529160200191610b37565b820191906000526020600020905b815481529060010190602001808311610b1a57829003601f168201915b50505050508760006104df565b5b5b80806001019150506107ac565b505b80806001019150506106b7565b5050505050565b6060806000803373ffffffffffffffffffffffffffffffffffffffff1673ffffffffffffffffffffffffffffffffffffffff168152602001908152602001600020805480602002602001604051908101604052809291908181526020016000905b82821015610f5c57838290600052602060002090600602016040518060e0016040529081600082018054600181600116156101000203166002900480601f016020809104026020016040519081016040528092919081815260200182805460018160011615610100020316600290048015610c865780601f10610c5b57610100808354040283529160200191610c86565b820191906000526020600020905b815481529060010190602001808311610c6957829003601f168201915b50505050508152602001600182018054600181600116156101000203166002900480601f016020809104026020016040519081016040528092919081815260200182805460018160011615610100020316600290048015610d285780601f10610cfd57610100808354040283529160200191610d28565b820191906000526020600020905b815481529060010190602001808311610d0b57829003601f168201915b50505050508152602001600282018054600181600116156101000203166002900480601f016020809104026020016040519081016040528092919081815260200182805460018160011615610100020316600290048015610dca5780601f10610d9f57610100808354040283529160200191610dca565b820191906000526020600020905b815481529060010190602001808311610dad57829003601f168201915b50505050508152602001600382018054600181600116156101000203166002900480601f016020809104026020016040519081016040528092919081815260200182805460018160011615610100020316600290048015610e6c5780601f10610e4157610100808354040283529160200191610e6c565b820191906000526020600020905b815481529060010190602001808311610e4f57829003601f168201915b50505050508152602001600482018054600181600116156101000203166002900480601f016020809104026020016040519081016040528092919081815260200182805460018160011615610100020316600290048015610f0e5780601f10610ee357610100808354040283529160200191610f0e565b820191906000526020600020905b815481529060010190602001808311610ef157829003601f168201915b505050505081526020016005820160009054906101000a900460ff161515151581526020016005820160019054906101000a900460ff16151515158152505081526020019060010190610bca565b5050505090508091505090565b60008060003373ffffffffffffffffffffffffffffffffffffffff1673ffffffffffffffffffffffffffffffffffffffff168152602001908152602001600020905060008090505b8180549050811015611083578480519060200120828281548110610fd157fe5b9060005260206000209060060201600001604051610fef9190612475565b604051809103902014801561103b5750838051906020012082828154811061101357fe5b90600052602060002090600602016001016040516110319190612475565b6040518091039020145b15611076578282828154811061104d57fe5b906000526020600020906006020160050160006101000a81548160ff0219169083151502179055505b8080600101915050610fb1565b5050505050565b60008060003373ffffffffffffffffffffffffffffffffffffffff1673ffffffffffffffffffffffffffffffffffffffff1681526020019081526020016000209050600080905060008090505b82805490508110156114dc5783805190602001208382815481106110f757fe5b90600052602060002090600602016000016040516111159190612475565b604051809103902014156114cf5780915060008090505b83805490508110156114cd5783828154811061114457fe5b90600052602060002090600602016000016040516111629190612475565b604051809103902084828154811061117657fe5b90600052602060002090600602016004016040516111949190612475565b604051809103902014156114c0576040518060400160405280600681526020017f666f6c6465720000000000000000000000000000000000000000000000000000815250805190602001208482815481106111eb57fe5b90600052602060002090600602016003016040516112099190612475565b604051809103902014156112d6576112d584828154811061122657fe5b90600052602060002090600602016000018054600181600116156101000203166002900480601f0160208091040260200160405190810160405280929190818152602001828054600181600116156101000203166002900480156112cb5780601f106112a0576101008083540402835291602001916112cb565b820191906000526020600020905b8154815290600101906020018083116112ae57829003601f168201915b505050505061108a565b5b6040518060400160405280600681526020017f666f6c64657200000000000000000000000000000000000000000000000000008152508051906020012084828154811061131f57fe5b906000526020600020906006020160030160405161133d9190612475565b6040518091039020146114bf576114be84828154811061135957fe5b90600052602060002090600602016000018054600181600116156101000203166002900480601f0160208091040260200160405190810160405280929190818152602001828054600181600116156101000203166002900480156113fe5780601f106113d3576101008083540402835291602001916113fe565b820191906000526020600020905b8154815290600101906020018083116113e157829003601f168201915b505050505085838154811061140f57fe5b90600052602060002090600602016001018054600181600116156101000203166002900480601f0160208091040260200160405190810160405280929190818152602001828054600181600116156101000203166002900480156114b45780601f10611489576101008083540402835291602001916114b4565b820191906000526020600020905b81548152906001019060200180831161149757829003601f168201915b50505050506116fc565b5b5b808060010191505061112c565b505b80806001019150506110d7565b5060008190505b600183805490500381101561165b5782600182018154811061150157fe5b906000526020600020906006020183828154811061151b57fe5b906000526020600020906006020160008201816000019080546001816001161561010002031660029004611550929190611d55565b5060018201816001019080546001816001161561010002031660029004611578929190611d55565b50600282018160020190805460018160011615610100020316600290046115a0929190611d55565b50600382018160030190805460018160011615610100020316600290046115c8929190611d55565b50600482018160040190805460018160011615610100020316600290046115f0929190611d55565b506005820160009054906101000a900460ff168160050160006101000a81548160ff0219169083151502179055506005820160019054906101000a900460ff168160050160016101000a81548160ff02191690831515021790555090505080806001019150506114e3565b508180548061166657fe5b60019003818190600052602060002090600602016000808201600061168b9190611ddc565b60018201600061169b9190611ddc565b6002820160006116ab9190611ddc565b6003820160006116bb9190611ddc565b6004820160006116cb9190611ddc565b6005820160006101000a81549060ff02191690556005820160016101000a81549060ff021916905550509055505050565b60008060003373ffffffffffffffffffffffffffffffffffffffff1673ffffffffffffffffffffffffffffffffffffffff1681526020019081526020016000209050600080905060008090505b82805490508110156117e957848051906020012083828154811061176957fe5b90600052602060002090600602016000016040516117879190612475565b60405180910390201480156117d3575083805190602001208382815481106117ab57fe5b90600052602060002090600602016001016040516117c99190612475565b6040518091039020145b156117dc578091505b8080600101915050611749565b5060008190505b60018380549050038110156119685782600182018154811061180e57fe5b906000526020600020906006020183828154811061182857fe5b90600052602060002090600602016000820181600001908054600181600116156101000203166002900461185d929190611d55565b5060018201816001019080546001816001161561010002031660029004611885929190611d55565b50600282018160020190805460018160011615610100020316600290046118ad929190611d55565b50600382018160030190805460018160011615610100020316600290046118d5929190611d55565b50600482018160040190805460018160011615610100020316600290046118fd929190611d55565b506005820160009054906101000a900460ff168160050160006101000a81548160ff0219169083151502179055506005820160019054906101000a900460ff168160050160016101000a81548160ff02191690831515021790555090505080806001019150506117f0565b508180548061197357fe5b6001900381819060005260206000209060060201600080820160006119989190611ddc565b6001820160006119a89190611ddc565b6002820160006119b89190611ddc565b6003820160006119c89190611ddc565b6004820160006119d89190611ddc565b6005820160006101000a81549060ff02191690556005820160016101000a81549060ff02191690555050905550505050565b60008060003373ffffffffffffffffffffffffffffffffffffffff1673ffffffffffffffffffffffffffffffffffffffff168152602001908152602001600020905060008090505b8180549050811015611b21578480519060200120828281548110611a7257fe5b9060005260206000209060060201600001604051611a909190612475565b6040518091039020148015611adc57508380519060200120828281548110611ab457fe5b9060005260206000209060060201600101604051611ad29190612475565b6040518091039020145b15611b145782828281548110611aee57fe5b90600052602060002090600602016001019080519060200190611b12929190611cd5565b505b8080600101915050611a52565b5050505050565b60606000821415611b70576040518060400160405280600181526020017f30000000000000000000000000000000000000000000000000000000000000008152509050611c50565b600082905060005b60008214611b9a578080600101915050600a8281611b9257fe5b049150611b78565b6060816040519080825280601f01601f191660200182016040528015611bcf5781602001600182028038833980820191505090505b50905060006001830390505b60008614611c4857600a8681611bed57fe5b0660300160f81b82828060019003935081518110611c0757fe5b60200101907effffffffffffffffffffffffffffffffffffffffffffffffffffffffffffff1916908160001a905350600a8681611c4057fe5b049550611bdb565b819450505050505b919050565b828054600181600116156101000203166002900490600052602060002090601f016020900481019282601f10611c9657805160ff1916838001178555611cc4565b82800160010185558215611cc4579182015b82811115611cc3578251825591602001919060010190611ca8565b5b509050611cd19190611e24565b5090565b828054600181600116156101000203166002900490600052602060002090601f016020900481019282601f10611d1657805160ff1916838001178555611d44565b82800160010185558215611d44579182015b82811115611d43578251825591602001919060010190611d28565b5b509050611d519190611e24565b5090565b828054600181600116156101000203166002900490600052602060002090601f016020900481019282601f10611d8e5780548555611dcb565b82800160010185558215611dcb57600052602060002091601f016020900482015b82811115611dca578254825591600101919060010190611daf565b5b509050611dd89190611e24565b5090565b50805460018160011615610100020316600290046000825580601f10611e025750611e21565b601f016020900490600052602060002090810190611e209190611e24565b5b50565b611e4691905b80821115611e42576000816000905550600101611e2a565b5090565b90565b600081359050611e58816125db565b92915050565b600082601f830112611e6f57600080fd5b8135611e82611e7d826124db565b6124ae565b91508082526020830160208301858383011115611e9e57600080fd5b611ea9838284612588565b50505092915050565b600060208284031215611ec457600080fd5b600082013567ffffffffffffffff811115611ede57600080fd5b611eea84828501611e5e565b91505092915050565b600080600060608486031215611f0857600080fd5b600084013567ffffffffffffffff811115611f2257600080fd5b611f2e86828701611e5e565b9350506020611f3f86828701611e49565b9250506040611f5086828701611e49565b9150509250925092565b60008060408385031215611f6d57600080fd5b600083013567ffffffffffffffff811115611f8757600080fd5b611f9385828601611e5e565b925050602083013567ffffffffffffffff811115611fb057600080fd5b611fbc85828601611e5e565b9150509250929050565b600080600060608486031215611fdb57600080fd5b600084013567ffffffffffffffff811115611ff557600080fd5b61200186828701611e5e565b935050602084013567ffffffffffffffff81111561201e57600080fd5b61202a86828701611e5e565b925050604061203b86828701611e49565b9150509250925092565b6000806000806080858703121561205b57600080fd5b600085013567ffffffffffffffff81111561207557600080fd5b61208187828801611e5e565b945050602085013567ffffffffffffffff81111561209e57600080fd5b6120aa87828801611e5e565b93505060406120bb87828801611e49565b92505060606120cc87828801611e49565b91505092959194509250565b6000806000606084860312156120ed57600080fd5b600084013567ffffffffffffffff81111561210757600080fd5b61211386828701611e5e565b935050602084013567ffffffffffffffff81111561213057600080fd5b61213c86828701611e5e565b925050604084013567ffffffffffffffff81111561215957600080fd5b61216586828701611e5e565b9150509250925092565b600080600080600060a0868803121561218757600080fd5b600086013567ffffffffffffffff8111156121a157600080fd5b6121ad88828901611e5e565b955050602086013567ffffffffffffffff8111156121ca57600080fd5b6121d688828901611e5e565b945050604086013567ffffffffffffffff8111156121f357600080fd5b6121ff88828901611e5e565b935050606086013567ffffffffffffffff81111561221c57600080fd5b61222888828901611e5e565b925050608086013567ffffffffffffffff81111561224557600080fd5b61225188828901611e5e565b9150509295509295909350565b600061226a83836123bd565b905092915050565b600061227d8261252c565b612287818561254f565b93508360208202850161229985612507565b8060005b858110156122d557848403895281516122b6858261225e565b94506122c183612542565b925060208a0199505060018101905061229d565b50829750879550505050505092915050565b6122f08161257c565b82525050565b60008154600181166000811461231357600181146123385761237c565b607f60028304166123248187612560565b955060ff198316865280860193505061237c565b600282046123468187612560565b955061235185612517565b60005b8281101561237357815481890152600182019150602081019050612354565b82880195505050505b505092915050565b600061238f82612537565b612399818561256b565b93506123a9818560208601612597565b6123b2816125ca565b840191505092915050565b600060e08301600083015184820360008601526123da8282612384565b915050602083015184820360208601526123f48282612384565b9150506040830151848203604086015261240e8282612384565b915050606083015184820360608601526124288282612384565b915050608083015184820360808601526124428282612384565b91505060a083015161245760a08601826122e7565b5060c083015161246a60c08601826122e7565b508091505092915050565b600061248182846122f6565b915081905092915050565b600060208201905081810360008301526124a68184612272565b905092915050565b6000604051905081810181811067ffffffffffffffff821117156124d157600080fd5b8060405250919050565b600067ffffffffffffffff8211156124f257600080fd5b601f19601f8301169050602081019050919050565b6000819050602082019050919050565b60008190508160005260206000209050919050565b600081519050919050565b600081519050919050565b6000602082019050919050565b600082825260208201905092915050565b600081905092915050565b600082825260208201905092915050565b60008115159050919050565b82818337600083830152505050565b60005b838110156125b557808201518184015260208101905061259a565b838111156125c4576000848401525b50505050565b6000601f19601f8301169050919050565b6125e48161257c565b81146125ef57600080fd5b5056fea365627a7a7231582044f21c65f4aee37d3ae6763459118ea8e5a999b116bba4e93da203430f33f26a6c6578706572696d656e74616cf564736f6c63430005100040",
  "source": "pragma solidity >=0.4.21 <0.7.0;\npragma experimental ABIEncoderV2;\n\n/*\n * Contract for storing and retrieving file details uploaded to the IPFS\n * P2P network. This is made thanks to a \"mapping\" data structure, which allows\n * storing all file's information. More information through the source\n * code below.\n */\ncontract FileDetailsManager {\n\n    /*\n     * Structure for files' details and folders' details.\n    */\n    struct FileDetails {\n        string uniqueId; // If isFolder==true -> unique id of the folder, otherwise it's IPFS fileHash.\n        string name; // name of the folder or of the file.\n        string transactionDate; // The date in which file infos was stored.\n        string fileType; // \"folder\" if folder, the extension of the file otherwise.\n        string parentFolderId;\n        bool isFavorite;\n        bool isTrash;\n    }\n\n    /*\n     * Mapping file details with users account address\n    */\n    mapping(address => FileDetails[]) filesList;\n    uint folderId = 0;\n    /* \n     * When calling this function, the file's information are mapped to address \n     * of the user.\n    */\n    function addFile(string memory uniqueId, string memory name, string memory fileType, string memory date, string memory parentFolderId) public {\n        filesList[msg.sender].push(FileDetails({\n                uniqueId: uniqueId,\n                name: name,\n                fileType: fileType,\n                transactionDate: date,\n                parentFolderId: parentFolderId,\n                isFavorite: false,\n                isTrash: false\n            }));\n    }\n\n    /* \n     * When calling this function, the folder's information are mapped to address \n     * of the user.\n    */\n    function addFolder(string memory name, string memory date, string memory parentFolderId) public {\n        filesList[msg.sender].push(FileDetails({\n                uniqueId: uint2str(folderId),\n                name: name,\n                fileType: \"folder\",\n                transactionDate: date,\n                parentFolderId: parentFolderId,\n                isFavorite: false,\n                isTrash: false\n            }));\n        folderId++;\n    }\n\n    /*\n     * When calling this function, the specified file is removed from the array\n     */\n    function deleteFile(string memory uniqueId, string memory name) public {\n        FileDetails[] storage filesDetails = filesList[msg.sender];\n        uint index = 0;\n        for(uint i = 0; i < filesDetails.length; i++){\n            if(keccak256(bytes(filesDetails[i].uniqueId)) == keccak256(bytes(uniqueId)) \n            && keccak256(bytes(filesDetails[i].name)) == keccak256(bytes(name))) {\n                index = i;\n            }\n        }\n\n        for (uint i = index; i < filesDetails.length-1; i++){\n            filesDetails[i] = filesDetails[i+1];\n        }\n        filesDetails.pop();\n    }\n\n    /*\n     * When calling this funtion, the specified folder is removed from the list.\n     * In a recursive way also subfolder and inner files are deleted.\n     */\n    function deleteFolder(string memory uniqueId) public {\n        FileDetails[] storage filesDetails = filesList[msg.sender];\n        uint index = 0;\n        for(uint i = 0; i < filesDetails.length; i++){\n\n            if(keccak256(bytes(filesDetails[i].uniqueId)) == keccak256(bytes(uniqueId))){\n                index = i;\n                for(uint j = 0; j < filesDetails.length; j++){\n                    \n                    if( keccak256(bytes(filesDetails[j].parentFolderId)) == keccak256(bytes(filesDetails[i].uniqueId)) ){\n                        if( keccak256(bytes(filesDetails[j].fileType)) == keccak256(bytes(\"folder\")) ){\n                            deleteFolder(filesDetails[j].uniqueId);\n                        }   \n                        if( keccak256(bytes(filesDetails[j].fileType)) != keccak256(bytes(\"folder\")) ){\n                            deleteFile(filesDetails[j].uniqueId, filesDetails[j].name);\n                        }\n                    }\n                } \n            }\n        }\n\n        for (uint i = index; i < filesDetails.length-1; i++){\n            filesDetails[i] = filesDetails[i+1];\n        }\n        filesDetails.pop();\n    }\n\n    /* \n     * When calling this function the array of file owned by the calling wallet \n     * is returned.\n    */\n    function getFiles() public view returns (FileDetails[] memory) {\n        FileDetails[] memory fileToBeRetrieved = filesList[msg.sender];\n        return (fileToBeRetrieved);\n    }\n\n    /*\n     * \n    */\n    function renameFileName(string memory uniqueId, string memory name, string memory newName) public{\n        FileDetails[] storage filesDetails = filesList[msg.sender];\n        for(uint i = 0; i < filesDetails.length; i++){\n            if(keccak256(bytes(filesDetails[i].uniqueId)) == keccak256(bytes(uniqueId)) && keccak256(bytes(filesDetails[i].name)) == keccak256(bytes(name))) filesDetails[i].name = newName;\n        }\n    }\n\n\n    /*\n     * When calling this function the field isFavorite of the specified file gets updated.\n    */\n    function setFavorite(string memory uniqueId, string memory name, bool  isFavorite) public{\n        FileDetails[] storage filesDetails = filesList[msg.sender];\n        for(uint i = 0; i < filesDetails.length; i++){\n            if(keccak256(bytes(filesDetails[i].uniqueId)) == keccak256(bytes(uniqueId)) && keccak256(bytes(filesDetails[i].name)) == keccak256(bytes(name))) filesDetails[i].isFavorite = isFavorite;\n        }\n    }\n\n    /*\n     * This function act as converter from uint to string.\n    */\n    function uint2str(uint i) internal pure returns (string memory uintAsString) {\n        if (i == 0) {\n            return \"0\";\n        }\n        uint j = i;\n        uint len;\n        while (j != 0) {\n            len++;\n            j /= 10;\n        }\n        bytes memory bstr = new bytes(len);\n        uint k = len - 1;\n        while (i != 0) {\n            bstr[k--] = byte(uint8(48 + i % 10));\n            i /= 10;\n        }\n        return string(bstr);\n    }\n\n    /*\n     * When calling this function the field isTrash of the specified file gets updated.\n     */\n    function setTrashFile(string memory uniqueId, string memory name, bool isTrash, bool isSingleDelete) public {\n        FileDetails[] storage filesDetails = filesList[msg.sender];\n        for(uint i = 0; i < filesDetails.length; i++){\n            if(keccak256(bytes(filesDetails[i].uniqueId)) == keccak256(bytes(uniqueId)) \n            && keccak256(bytes(filesDetails[i].name)) == keccak256(bytes(name))) {\n                filesDetails[i].isTrash = isTrash;\n                if(isSingleDelete) {\n                    filesDetails[i].parentFolderId = \"/\";\n                }\n            }\n        }\n    }\n    /*\n     * When calling this function the field isTrash of the specified folder gets updated.\n     * In a recursive way also subfolders and inner files get updated.\n     */\n    function setTrashFolder(string memory uniqueId, bool isTrash, bool isSingleDelete) public {\n        FileDetails[] storage filesDetails = filesList[msg.sender];\n        for(uint i = 0; i < filesDetails.length; i++){\n\n            if(keccak256(bytes(filesDetails[i].uniqueId)) == keccak256(bytes(uniqueId))){\n                filesDetails[i].isTrash = isTrash;\n                if(isSingleDelete) {\n                    filesDetails[i].parentFolderId = \"/\";\n                }\n                for(uint j = 0; j < filesDetails.length; j++){\n                    \n                    if( keccak256(bytes(filesDetails[j].parentFolderId)) == keccak256(bytes(filesDetails[i].uniqueId)) ){\n                        if( keccak256(bytes(filesDetails[j].fileType)) == keccak256(bytes(\"folder\")) ){\n                            setTrashFolder(filesDetails[j].uniqueId, isTrash, false);\n                        }   \n                        if( keccak256(bytes(filesDetails[j].fileType)) != keccak256(bytes(\"folder\")) ){\n                            setTrashFile(filesDetails[j].uniqueId, filesDetails[j].name, isTrash, false);\n                        }\n                    }\n                } \n            }\n        }      \n    }\n}",
  "sourcePath": "/Users/filippo/Workspace/cloudest/clouest_client/contracts/FileDetailsManager.sol",
  "compiler": {
    "name": "solc",
    "version": "0.5.16+commit.9c3226ce.Emscripten.clang"
  },
  "schemaVersion": "3.3.3",
  "updatedAt": "2022-01-04T22:05:22.841Z",
  "networkType": "ethereum",
  "devdoc": {
    "methods": {}
  },
  "userdoc": {
    "methods": {}
  }
}